{
	"contracts/carboncredits.sol": {
		"CarbonCredits": {
			"abi": [
				{
					"inputs": [],
					"stateMutability": "nonpayable",
					"type": "constructor"
				},
				{
					"anonymous": false,
					"inputs": [
						{
							"indexed": true,
							"internalType": "address",
							"name": "previousOwner",
							"type": "address"
						},
						{
							"indexed": true,
							"internalType": "address",
							"name": "newOwner",
							"type": "address"
						}
					],
					"name": "OwnershipTransferred",
					"type": "event"
				},
				{
					"anonymous": false,
					"inputs": [
						{
							"indexed": false,
							"internalType": "string",
							"name": "name",
							"type": "string"
						},
						{
							"indexed": false,
							"internalType": "uint256",
							"name": "holderId",
							"type": "uint256"
						},
						{
							"indexed": false,
							"internalType": "uint256",
							"name": "creditsHeld",
							"type": "uint256"
						},
						{
							"indexed": false,
							"internalType": "uint256",
							"name": "pricepercredit",
							"type": "uint256"
						},
						{
							"indexed": false,
							"internalType": "uint256",
							"name": "creditvalidityperiod",
							"type": "uint256"
						},
						{
							"indexed": false,
							"internalType": "address",
							"name": "_addr",
							"type": "address"
						}
					],
					"name": "newCreditHolder",
					"type": "event"
				},
				{
					"inputs": [
						{
							"internalType": "uint256",
							"name": "",
							"type": "uint256"
						}
					],
					"name": "CreditHolders",
					"outputs": [
						{
							"internalType": "string",
							"name": "name",
							"type": "string"
						},
						{
							"internalType": "uint256",
							"name": "id",
							"type": "uint256"
						},
						{
							"internalType": "uint256",
							"name": "holderId",
							"type": "uint256"
						},
						{
							"internalType": "uint256",
							"name": "creditsHeld",
							"type": "uint256"
						},
						{
							"internalType": "uint256",
							"name": "pricepercredit",
							"type": "uint256"
						},
						{
							"internalType": "uint256",
							"name": "creditvalidityperiod",
							"type": "uint256"
						},
						{
							"internalType": "address",
							"name": "_addr",
							"type": "address"
						}
					],
					"stateMutability": "view",
					"type": "function"
				},
				{
					"inputs": [
						{
							"internalType": "uint256",
							"name": "",
							"type": "uint256"
						}
					],
					"name": "customers",
					"outputs": [
						{
							"internalType": "string",
							"name": "first_name",
							"type": "string"
						},
						{
							"internalType": "string",
							"name": "last_name",
							"type": "string"
						},
						{
							"internalType": "string",
							"name": "email",
							"type": "string"
						},
						{
							"internalType": "uint256",
							"name": "contact",
							"type": "uint256"
						},
						{
							"internalType": "uint256",
							"name": "_id",
							"type": "uint256"
						}
					],
					"stateMutability": "view",
					"type": "function"
				},
				{
					"inputs": [],
					"name": "getAllCustomers",
					"outputs": [
						{
							"components": [
								{
									"internalType": "string",
									"name": "first_name",
									"type": "string"
								},
								{
									"internalType": "string",
									"name": "last_name",
									"type": "string"
								},
								{
									"internalType": "string",
									"name": "email",
									"type": "string"
								},
								{
									"internalType": "uint256",
									"name": "contact",
									"type": "uint256"
								},
								{
									"internalType": "uint256",
									"name": "_id",
									"type": "uint256"
								}
							],
							"internalType": "struct CarbonCredits.customer[]",
							"name": "",
							"type": "tuple[]"
						}
					],
					"stateMutability": "view",
					"type": "function"
				},
				{
					"inputs": [],
					"name": "getCreditHolders",
					"outputs": [
						{
							"components": [
								{
									"internalType": "string",
									"name": "name",
									"type": "string"
								},
								{
									"internalType": "uint256",
									"name": "id",
									"type": "uint256"
								},
								{
									"internalType": "uint256",
									"name": "holderId",
									"type": "uint256"
								},
								{
									"internalType": "uint256",
									"name": "creditsHeld",
									"type": "uint256"
								},
								{
									"internalType": "uint256",
									"name": "pricepercredit",
									"type": "uint256"
								},
								{
									"internalType": "uint256",
									"name": "creditvalidityperiod",
									"type": "uint256"
								},
								{
									"internalType": "address",
									"name": "_addr",
									"type": "address"
								}
							],
							"internalType": "struct CarbonCredits.CarbonCreditHolder[]",
							"name": "",
							"type": "tuple[]"
						}
					],
					"stateMutability": "view",
					"type": "function"
				},
				{
					"inputs": [
						{
							"internalType": "address",
							"name": "_owner",
							"type": "address"
						}
					],
					"name": "getCustomerProfile",
					"outputs": [
						{
							"components": [
								{
									"internalType": "string",
									"name": "first_name",
									"type": "string"
								},
								{
									"internalType": "string",
									"name": "last_name",
									"type": "string"
								},
								{
									"internalType": "string",
									"name": "email",
									"type": "string"
								},
								{
									"internalType": "uint256",
									"name": "contact",
									"type": "uint256"
								},
								{
									"internalType": "uint256",
									"name": "_id",
									"type": "uint256"
								}
							],
							"internalType": "struct CarbonCredits.customer[]",
							"name": "",
							"type": "tuple[]"
						}
					],
					"stateMutability": "view",
					"type": "function"
				},
				{
					"inputs": [],
					"name": "getVerifiers",
					"outputs": [
						{
							"components": [
								{
									"internalType": "string",
									"name": "name",
									"type": "string"
								},
								{
									"internalType": "string",
									"name": "homeCountry",
									"type": "string"
								},
								{
									"internalType": "uint256",
									"name": "reg_no",
									"type": "uint256"
								},
								{
									"internalType": "uint256",
									"name": "license_no",
									"type": "uint256"
								},
								{
									"internalType": "address",
									"name": "addr",
									"type": "address"
								},
								{
									"internalType": "bool",
									"name": "isExist",
									"type": "bool"
								}
							],
							"internalType": "struct CarbonCredits.verifier[]",
							"name": "",
							"type": "tuple[]"
						}
					],
					"stateMutability": "view",
					"type": "function"
				},
				{
					"inputs": [],
					"name": "owner",
					"outputs": [
						{
							"internalType": "address",
							"name": "",
							"type": "address"
						}
					],
					"stateMutability": "view",
					"type": "function"
				},
				{
					"inputs": [
						{
							"internalType": "string",
							"name": "name",
							"type": "string"
						},
						{
							"internalType": "uint256",
							"name": "holderId",
							"type": "uint256"
						},
						{
							"internalType": "uint256",
							"name": "creditsHeld",
							"type": "uint256"
						},
						{
							"internalType": "uint256",
							"name": "pricepercredit",
							"type": "uint256"
						},
						{
							"internalType": "uint256",
							"name": "creditvalidityperiod",
							"type": "uint256"
						}
					],
					"name": "registerCreditHolder",
					"outputs": [],
					"stateMutability": "nonpayable",
					"type": "function"
				},
				{
					"inputs": [
						{
							"internalType": "string",
							"name": "first_name",
							"type": "string"
						},
						{
							"internalType": "string",
							"name": "last_name",
							"type": "string"
						},
						{
							"internalType": "string",
							"name": "email",
							"type": "string"
						},
						{
							"internalType": "uint256",
							"name": "contact",
							"type": "uint256"
						}
					],
					"name": "registerCustomer",
					"outputs": [],
					"stateMutability": "nonpayable",
					"type": "function"
				},
				{
					"inputs": [
						{
							"internalType": "string",
							"name": "name",
							"type": "string"
						},
						{
							"internalType": "string",
							"name": "homeCountry",
							"type": "string"
						},
						{
							"internalType": "uint256",
							"name": "reg_no",
							"type": "uint256"
						},
						{
							"internalType": "uint256",
							"name": "license_no",
							"type": "uint256"
						}
					],
					"name": "registerVerifiers",
					"outputs": [],
					"stateMutability": "nonpayable",
					"type": "function"
				},
				{
					"inputs": [],
					"name": "renounceOwnership",
					"outputs": [],
					"stateMutability": "nonpayable",
					"type": "function"
				},
				{
					"inputs": [
						{
							"internalType": "address",
							"name": "newOwner",
							"type": "address"
						}
					],
					"name": "transferOwnership",
					"outputs": [],
					"stateMutability": "nonpayable",
					"type": "function"
				},
				{
					"inputs": [
						{
							"internalType": "uint256",
							"name": "",
							"type": "uint256"
						}
					],
					"name": "verifiers",
					"outputs": [
						{
							"internalType": "string",
							"name": "name",
							"type": "string"
						},
						{
							"internalType": "string",
							"name": "homeCountry",
							"type": "string"
						},
						{
							"internalType": "uint256",
							"name": "reg_no",
							"type": "uint256"
						},
						{
							"internalType": "uint256",
							"name": "license_no",
							"type": "uint256"
						},
						{
							"internalType": "address",
							"name": "addr",
							"type": "address"
						},
						{
							"internalType": "bool",
							"name": "isExist",
							"type": "bool"
						}
					],
					"stateMutability": "view",
					"type": "function"
				}
			],
			"devdoc": {
				"kind": "dev",
				"methods": {
					"owner()": {
						"details": "Returns the address of the current owner."
					},
					"renounceOwnership()": {
						"details": "Leaves the contract without owner. It will not be possible to call `onlyOwner` functions anymore. Can only be called by the current owner. NOTE: Renouncing ownership will leave the contract without an owner, thereby removing any functionality that is only available to the owner."
					},
					"transferOwnership(address)": {
						"details": "Transfers ownership of the contract to a new account (`newOwner`). Can only be called by the current owner."
					}
				},
				"version": 1
			},
			"evm": {
				"assembly": "    /* \"contracts/carboncredits.sol\":243:3690  contract CarbonCredits is Ownable {... */\n  mstore(0x40, 0x80)\n    /* \"contracts/carboncredits.sol\":307:308  0 */\n  0x00\n    /* \"contracts/carboncredits.sol\":284:308  uint totalRegistered = 0 */\n  0x01\n  sstore\n    /* \"contracts/carboncredits.sol\":335:336  0 */\n  0x00\n    /* \"contracts/carboncredits.sol\":314:336  uint verifiercount = 0 */\n  0x02\n  sstore\n    /* \"contracts/carboncredits.sol\":363:364  0 */\n  0x00\n    /* \"contracts/carboncredits.sol\":342:364  uint customercount = 0 */\n  0x03\n  sstore\n    /* \"contracts/carboncredits.sol\":1238:1370  constructor() Ownable() public {... */\n  callvalue\n  dup1\n  iszero\n  tag_1\n  jumpi\n  0x00\n  dup1\n  revert\ntag_1:\n  pop\n    /* \"https://github.com/OpenZeppelin/openzeppelin-contracts/blob/v3.4.0/contracts/access/Ownable.sol\":884:901  address msgSender */\n  0x00\n    /* \"https://github.com/OpenZeppelin/openzeppelin-contracts/blob/v3.4.0/contracts/access/Ownable.sol\":904:916  _msgSender() */\n  tag_5\n    /* \"https://github.com/OpenZeppelin/openzeppelin-contracts/blob/v3.4.0/contracts/access/Ownable.sol\":904:914  _msgSender */\n  shl(0x20, tag_6)\n    /* \"https://github.com/OpenZeppelin/openzeppelin-contracts/blob/v3.4.0/contracts/access/Ownable.sol\":904:916  _msgSender() */\n  0x20\n  shr\n  jump\t// in\ntag_5:\n    /* \"https://github.com/OpenZeppelin/openzeppelin-contracts/blob/v3.4.0/contracts/access/Ownable.sol\":884:916  address msgSender = _msgSender() */\n  swap1\n  pop\n    /* \"https://github.com/OpenZeppelin/openzeppelin-contracts/blob/v3.4.0/contracts/access/Ownable.sol\":935:944  msgSender */\n  dup1\n    /* \"https://github.com/OpenZeppelin/openzeppelin-contracts/blob/v3.4.0/contracts/access/Ownable.sol\":926:932  _owner */\n  0x00\n  dup1\n    /* \"https://github.com/OpenZeppelin/openzeppelin-contracts/blob/v3.4.0/contracts/access/Ownable.sol\":926:944  _owner = msgSender */\n  0x0100\n  exp\n  dup2\n  sload\n  dup2\n  0xffffffffffffffffffffffffffffffffffffffff\n  mul\n  not\n  and\n  swap1\n  dup4\n  0xffffffffffffffffffffffffffffffffffffffff\n  and\n  mul\n  or\n  swap1\n  sstore\n  pop\n    /* \"https://github.com/OpenZeppelin/openzeppelin-contracts/blob/v3.4.0/contracts/access/Ownable.sol\":992:1001  msgSender */\n  dup1\n    /* \"https://github.com/OpenZeppelin/openzeppelin-contracts/blob/v3.4.0/contracts/access/Ownable.sol\":959:1002  OwnershipTransferred(address(0), msgSender) */\n  0xffffffffffffffffffffffffffffffffffffffff\n  and\n    /* \"https://github.com/OpenZeppelin/openzeppelin-contracts/blob/v3.4.0/contracts/access/Ownable.sol\":988:989  0 */\n  0x00\n    /* \"https://github.com/OpenZeppelin/openzeppelin-contracts/blob/v3.4.0/contracts/access/Ownable.sol\":959:1002  OwnershipTransferred(address(0), msgSender) */\n  0xffffffffffffffffffffffffffffffffffffffff\n  and\n  0x8be0079c531659141344cd1fd0a4f28419497f9722a3daafe3b4186f6b6457e0\n  mload(0x40)\n  mload(0x40)\n  dup1\n  swap2\n  sub\n  swap1\n  log3\n    /* \"https://github.com/OpenZeppelin/openzeppelin-contracts/blob/v3.4.0/contracts/access/Ownable.sol\":850:1009  constructor () internal {... */\n  pop\n    /* \"contracts/carboncredits.sol\":243:3690  contract CarbonCredits is Ownable {... */\n  jump(tag_8)\n    /* \"https://github.com/OpenZeppelin/openzeppelin-contracts/blob/v3.4.0/contracts/utils/Context.sol\":598:702  function _msgSender() internal view virtual returns (address payable) {... */\ntag_6:\n    /* \"https://github.com/OpenZeppelin/openzeppelin-contracts/blob/v3.4.0/contracts/utils/Context.sol\":651:666  address payable */\n  0x00\n    /* \"https://github.com/OpenZeppelin/openzeppelin-contracts/blob/v3.4.0/contracts/utils/Context.sol\":685:695  msg.sender */\n  caller\n    /* \"https://github.com/OpenZeppelin/openzeppelin-contracts/blob/v3.4.0/contracts/utils/Context.sol\":678:695  return msg.sender */\n  swap1\n  pop\n    /* \"https://github.com/OpenZeppelin/openzeppelin-contracts/blob/v3.4.0/contracts/utils/Context.sol\":598:702  function _msgSender() internal view virtual returns (address payable) {... */\n  swap1\n  jump\t// out\n    /* \"contracts/carboncredits.sol\":243:3690  contract CarbonCredits is Ownable {... */\ntag_8:\n  dataSize(sub_0)\n  dup1\n  dataOffset(sub_0)\n  0x00\n  codecopy\n  0x00\n  return\nstop\n\nsub_0: assembly {\n        /* \"contracts/carboncredits.sol\":243:3690  contract CarbonCredits is Ownable {... */\n      mstore(0x40, 0x80)\n      callvalue\n      dup1\n      iszero\n      tag_1\n      jumpi\n      0x00\n      dup1\n      revert\n    tag_1:\n      pop\n      jumpi(tag_2, lt(calldatasize, 0x04))\n      shr(0xe0, calldataload(0x00))\n      dup1\n      0x8da5cb5b\n      gt\n      tag_16\n      jumpi\n      dup1\n      0xac1eff68\n      gt\n      tag_17\n      jumpi\n      dup1\n      0xac1eff68\n      eq\n      tag_12\n      jumpi\n      dup1\n      0xb2df7349\n      eq\n      tag_13\n      jumpi\n      dup1\n      0xc0abda2a\n      eq\n      tag_14\n      jumpi\n      dup1\n      0xf2fde38b\n      eq\n      tag_15\n      jumpi\n      jump(tag_2)\n    tag_17:\n      dup1\n      0x8da5cb5b\n      eq\n      tag_9\n      jumpi\n      dup1\n      0x95246e7f\n      eq\n      tag_10\n      jumpi\n      dup1\n      0xa935e766\n      eq\n      tag_11\n      jumpi\n      jump(tag_2)\n    tag_16:\n      dup1\n      0x3a39af26\n      eq\n      tag_3\n      jumpi\n      dup1\n      0x4ea1352b\n      eq\n      tag_4\n      jumpi\n      dup1\n      0x715018a6\n      eq\n      tag_5\n      jumpi\n      dup1\n      0x75348d8e\n      eq\n      tag_6\n      jumpi\n      dup1\n      0x7d81c437\n      eq\n      tag_7\n      jumpi\n      dup1\n      0x7da67ba8\n      eq\n      tag_8\n      jumpi\n    tag_2:\n      0x00\n      dup1\n      revert\n        /* \"contracts/carboncredits.sol\":1376:1908  function registerCreditHolder(string memory name, uint holderId, uint creditsHeld, uint pricepercredit, uint creditvalidityperiod) public {... */\n    tag_3:\n      tag_18\n      0x04\n      dup1\n      calldatasize\n      sub\n      dup2\n      add\n      swap1\n      tag_19\n      swap2\n      swap1\n      tag_20\n      jump\t// in\n    tag_19:\n      tag_21\n      jump\t// in\n    tag_18:\n      stop\n        /* \"contracts/carboncredits.sol\":3130:3421  function getCustomerProfile(address _owner) public view onlyOwner() returns (customer[] memory) {... */\n    tag_4:\n      tag_22\n      0x04\n      dup1\n      calldatasize\n      sub\n      dup2\n      add\n      swap1\n      tag_23\n      swap2\n      swap1\n      tag_24\n      jump\t// in\n    tag_23:\n      tag_25\n      jump\t// in\n    tag_22:\n      mload(0x40)\n      tag_26\n      swap2\n      swap1\n      tag_27\n      jump\t// in\n    tag_26:\n      mload(0x40)\n      dup1\n      swap2\n      sub\n      swap1\n      return\n        /* \"https://github.com/OpenZeppelin/openzeppelin-contracts/blob/v3.4.0/contracts/access/Ownable.sol\":1717:1862  function renounceOwnership() public virtual onlyOwner {... */\n    tag_5:\n      tag_28\n      tag_29\n      jump\t// in\n    tag_28:\n      stop\n        /* \"contracts/carboncredits.sol\":896:952  mapping(uint => CarbonCreditHolder) public CreditHolders */\n    tag_6:\n      tag_30\n      0x04\n      dup1\n      calldatasize\n      sub\n      dup2\n      add\n      swap1\n      tag_31\n      swap2\n      swap1\n      tag_32\n      jump\t// in\n    tag_31:\n      tag_33\n      jump\t// in\n    tag_30:\n      mload(0x40)\n      tag_34\n      swap8\n      swap7\n      swap6\n      swap5\n      swap4\n      swap3\n      swap2\n      swap1\n      tag_35\n      jump\t// in\n    tag_34:\n      mload(0x40)\n      dup1\n      swap2\n      sub\n      swap1\n      return\n        /* \"contracts/carboncredits.sol\":2250:2570  function registerCustomer(string memory first_name, string memory last_name, string memory email, uint contact) public {... */\n    tag_7:\n      tag_36\n      0x04\n      dup1\n      calldatasize\n      sub\n      dup2\n      add\n      swap1\n      tag_37\n      swap2\n      swap1\n      tag_38\n      jump\t// in\n    tag_37:\n      tag_39\n      jump\t// in\n    tag_36:\n      stop\n        /* \"contracts/carboncredits.sol\":3427:3688  function getAllCustomers() public view returns (customer[] memory) {... */\n    tag_8:\n      tag_40\n      tag_41\n      jump\t// in\n    tag_40:\n      mload(0x40)\n      tag_42\n      swap2\n      swap1\n      tag_27\n      jump\t// in\n    tag_42:\n      mload(0x40)\n      dup1\n      swap2\n      sub\n      swap1\n      return\n        /* \"https://github.com/OpenZeppelin/openzeppelin-contracts/blob/v3.4.0/contracts/access/Ownable.sol\":1085:1170  function owner() public view virtual returns (address) {... */\n    tag_9:\n      tag_43\n      tag_44\n      jump\t// in\n    tag_43:\n      mload(0x40)\n      tag_45\n      swap2\n      swap1\n      tag_46\n      jump\t// in\n    tag_45:\n      mload(0x40)\n      dup1\n      swap2\n      sub\n      swap1\n      return\n        /* \"contracts/carboncredits.sol\":1914:2244  function registerVerifiers(string memory name, string memory homeCountry, uint reg_no, uint license_no) public {... */\n    tag_10:\n      tag_47\n      0x04\n      dup1\n      calldatasize\n      sub\n      dup2\n      add\n      swap1\n      tag_48\n      swap2\n      swap1\n      tag_49\n      jump\t// in\n    tag_48:\n      tag_50\n      jump\t// in\n    tag_47:\n      stop\n        /* \"contracts/carboncredits.sol\":2576:2826  function getVerifiers() public view returns (verifier[] memory) {... */\n    tag_11:\n      tag_51\n      tag_52\n      jump\t// in\n    tag_51:\n      mload(0x40)\n      tag_53\n      swap2\n      swap1\n      tag_54\n      jump\t// in\n    tag_53:\n      mload(0x40)\n      dup1\n      swap2\n      sub\n      swap1\n      return\n        /* \"contracts/carboncredits.sol\":958:1000  mapping(uint => verifier) public verifiers */\n    tag_12:\n      tag_55\n      0x04\n      dup1\n      calldatasize\n      sub\n      dup2\n      add\n      swap1\n      tag_56\n      swap2\n      swap1\n      tag_32\n      jump\t// in\n    tag_56:\n      tag_57\n      jump\t// in\n    tag_55:\n      mload(0x40)\n      tag_58\n      swap7\n      swap6\n      swap5\n      swap4\n      swap3\n      swap2\n      swap1\n      tag_59\n      jump\t// in\n    tag_58:\n      mload(0x40)\n      dup1\n      swap2\n      sub\n      swap1\n      return\n        /* \"contracts/carboncredits.sol\":2832:3124  function getCreditHolders() public view returns (CarbonCreditHolder[] memory) {... */\n    tag_13:\n      tag_60\n      tag_61\n      jump\t// in\n    tag_60:\n      mload(0x40)\n      tag_62\n      swap2\n      swap1\n      tag_63\n      jump\t// in\n    tag_62:\n      mload(0x40)\n      dup1\n      swap2\n      sub\n      swap1\n      return\n        /* \"contracts/carboncredits.sol\":1006:1048  mapping(uint => customer) public customers */\n    tag_14:\n      tag_64\n      0x04\n      dup1\n      calldatasize\n      sub\n      dup2\n      add\n      swap1\n      tag_65\n      swap2\n      swap1\n      tag_32\n      jump\t// in\n    tag_65:\n      tag_66\n      jump\t// in\n    tag_64:\n      mload(0x40)\n      tag_67\n      swap6\n      swap5\n      swap4\n      swap3\n      swap2\n      swap1\n      tag_68\n      jump\t// in\n    tag_67:\n      mload(0x40)\n      dup1\n      swap2\n      sub\n      swap1\n      return\n        /* \"https://github.com/OpenZeppelin/openzeppelin-contracts/blob/v3.4.0/contracts/access/Ownable.sol\":2011:2251  function transferOwnership(address newOwner) public virtual onlyOwner {... */\n    tag_15:\n      tag_69\n      0x04\n      dup1\n      calldatasize\n      sub\n      dup2\n      add\n      swap1\n      tag_70\n      swap2\n      swap1\n      tag_24\n      jump\t// in\n    tag_70:\n      tag_71\n      jump\t// in\n    tag_69:\n      stop\n        /* \"contracts/carboncredits.sol\":1376:1908  function registerCreditHolder(string memory name, uint holderId, uint creditsHeld, uint pricepercredit, uint creditvalidityperiod) public {... */\n    tag_21:\n        /* \"contracts/carboncredits.sol\":1524:1539  totalRegistered */\n      0x01\n      0x00\n        /* \"contracts/carboncredits.sol\":1524:1541  totalRegistered++ */\n      dup2\n      sload\n      dup1\n      swap3\n      swap2\n      swap1\n      0x01\n      add\n      swap2\n      swap1\n      pop\n      sstore\n      pop\n        /* \"contracts/carboncredits.sol\":1584:1792  CarbonCreditHolder(... */\n      mload(0x40)\n      dup1\n      0xe0\n      add\n      0x40\n      mstore\n      dup1\n        /* \"contracts/carboncredits.sol\":1616:1620  name */\n      dup7\n        /* \"contracts/carboncredits.sol\":1584:1792  CarbonCreditHolder(... */\n      dup2\n      mstore\n      0x20\n      add\n        /* \"contracts/carboncredits.sol\":1634:1649  totalRegistered */\n      sload(0x01)\n        /* \"contracts/carboncredits.sol\":1584:1792  CarbonCreditHolder(... */\n      dup2\n      mstore\n      0x20\n      add\n        /* \"contracts/carboncredits.sol\":1663:1671  holderId */\n      dup6\n        /* \"contracts/carboncredits.sol\":1584:1792  CarbonCreditHolder(... */\n      dup2\n      mstore\n      0x20\n      add\n        /* \"contracts/carboncredits.sol\":1685:1696  creditsHeld */\n      dup5\n        /* \"contracts/carboncredits.sol\":1584:1792  CarbonCreditHolder(... */\n      dup2\n      mstore\n      0x20\n      add\n        /* \"contracts/carboncredits.sol\":1710:1724  pricepercredit */\n      dup4\n        /* \"contracts/carboncredits.sol\":1584:1792  CarbonCreditHolder(... */\n      dup2\n      mstore\n      0x20\n      add\n        /* \"contracts/carboncredits.sol\":1738:1758  creditvalidityperiod */\n      dup3\n        /* \"contracts/carboncredits.sol\":1584:1792  CarbonCreditHolder(... */\n      dup2\n      mstore\n      0x20\n      add\n        /* \"contracts/carboncredits.sol\":1772:1782  msg.sender */\n      caller\n        /* \"contracts/carboncredits.sol\":1584:1792  CarbonCreditHolder(... */\n      0xffffffffffffffffffffffffffffffffffffffff\n      and\n      dup2\n      mstore\n      pop\n        /* \"contracts/carboncredits.sol\":1551:1564  CreditHolders */\n      0x04\n        /* \"contracts/carboncredits.sol\":1551:1581  CreditHolders[totalRegistered] */\n      0x00\n        /* \"contracts/carboncredits.sol\":1565:1580  totalRegistered */\n      sload(0x01)\n        /* \"contracts/carboncredits.sol\":1551:1581  CreditHolders[totalRegistered] */\n      dup2\n      mstore\n      0x20\n      add\n      swap1\n      dup2\n      mstore\n      0x20\n      add\n      0x00\n      keccak256\n        /* \"contracts/carboncredits.sol\":1551:1792  CreditHolders[totalRegistered] = CarbonCreditHolder(... */\n      0x00\n      dup3\n      add\n      mload\n      dup2\n      0x00\n      add\n      swap1\n      dup1\n      mload\n      swap1\n      0x20\n      add\n      swap1\n      tag_73\n      swap3\n      swap2\n      swap1\n      tag_74\n      jump\t// in\n    tag_73:\n      pop\n      0x20\n      dup3\n      add\n      mload\n      dup2\n      0x01\n      add\n      sstore\n      0x40\n      dup3\n      add\n      mload\n      dup2\n      0x02\n      add\n      sstore\n      0x60\n      dup3\n      add\n      mload\n      dup2\n      0x03\n      add\n      sstore\n      0x80\n      dup3\n      add\n      mload\n      dup2\n      0x04\n      add\n      sstore\n      0xa0\n      dup3\n      add\n      mload\n      dup2\n      0x05\n      add\n      sstore\n      0xc0\n      dup3\n      add\n      mload\n      dup2\n      0x06\n      add\n      exp(0x0100, 0x00)\n      dup2\n      sload\n      dup2\n      0xffffffffffffffffffffffffffffffffffffffff\n      mul\n      not\n      and\n      swap1\n      dup4\n      0xffffffffffffffffffffffffffffffffffffffff\n      and\n      mul\n      or\n      swap1\n      sstore\n      pop\n      swap1\n      pop\n      pop\n        /* \"contracts/carboncredits.sol\":1807:1901  newCreditHolder(name, holderId, creditsHeld, pricepercredit, creditvalidityperiod, msg.sender) */\n      0x1205bb3261c856d42a9c73ef554781f46cd2ef0647692b11fe20c2f4b89a2210\n        /* \"contracts/carboncredits.sol\":1823:1827  name */\n      dup6\n        /* \"contracts/carboncredits.sol\":1829:1837  holderId */\n      dup6\n        /* \"contracts/carboncredits.sol\":1839:1850  creditsHeld */\n      dup6\n        /* \"contracts/carboncredits.sol\":1852:1866  pricepercredit */\n      dup6\n        /* \"contracts/carboncredits.sol\":1868:1888  creditvalidityperiod */\n      dup6\n        /* \"contracts/carboncredits.sol\":1890:1900  msg.sender */\n      caller\n        /* \"contracts/carboncredits.sol\":1807:1901  newCreditHolder(name, holderId, creditsHeld, pricepercredit, creditvalidityperiod, msg.sender) */\n      mload(0x40)\n      tag_75\n      swap7\n      swap6\n      swap5\n      swap4\n      swap3\n      swap2\n      swap1\n      tag_76\n      jump\t// in\n    tag_75:\n      mload(0x40)\n      dup1\n      swap2\n      sub\n      swap1\n      log1\n        /* \"contracts/carboncredits.sol\":1376:1908  function registerCreditHolder(string memory name, uint holderId, uint creditsHeld, uint pricepercredit, uint creditvalidityperiod) public {... */\n      pop\n      pop\n      pop\n      pop\n      pop\n      jump\t// out\n        /* \"contracts/carboncredits.sol\":3130:3421  function getCustomerProfile(address _owner) public view onlyOwner() returns (customer[] memory) {... */\n    tag_25:\n        /* \"contracts/carboncredits.sol\":3207:3224  customer[] memory */\n      0x60\n        /* \"https://github.com/OpenZeppelin/openzeppelin-contracts/blob/v3.4.0/contracts/access/Ownable.sol\":1308:1320  _msgSender() */\n      tag_78\n        /* \"https://github.com/OpenZeppelin/openzeppelin-contracts/blob/v3.4.0/contracts/access/Ownable.sol\":1308:1318  _msgSender */\n      tag_79\n        /* \"https://github.com/OpenZeppelin/openzeppelin-contracts/blob/v3.4.0/contracts/access/Ownable.sol\":1308:1320  _msgSender() */\n      jump\t// in\n    tag_78:\n        /* \"https://github.com/OpenZeppelin/openzeppelin-contracts/blob/v3.4.0/contracts/access/Ownable.sol\":1297:1320  owner() == _msgSender() */\n      0xffffffffffffffffffffffffffffffffffffffff\n      and\n        /* \"https://github.com/OpenZeppelin/openzeppelin-contracts/blob/v3.4.0/contracts/access/Ownable.sol\":1297:1304  owner() */\n      tag_80\n        /* \"https://github.com/OpenZeppelin/openzeppelin-contracts/blob/v3.4.0/contracts/access/Ownable.sol\":1297:1302  owner */\n      tag_44\n        /* \"https://github.com/OpenZeppelin/openzeppelin-contracts/blob/v3.4.0/contracts/access/Ownable.sol\":1297:1304  owner() */\n      jump\t// in\n    tag_80:\n        /* \"https://github.com/OpenZeppelin/openzeppelin-contracts/blob/v3.4.0/contracts/access/Ownable.sol\":1297:1320  owner() == _msgSender() */\n      0xffffffffffffffffffffffffffffffffffffffff\n      and\n      eq\n        /* \"https://github.com/OpenZeppelin/openzeppelin-contracts/blob/v3.4.0/contracts/access/Ownable.sol\":1289:1357  require(owner() == _msgSender(), \"Ownable: caller is not the owner\") */\n      tag_81\n      jumpi\n      mload(0x40)\n      0x08c379a000000000000000000000000000000000000000000000000000000000\n      dup2\n      mstore\n      0x04\n      add\n      dup1\n      dup1\n      0x20\n      add\n      dup3\n      dup2\n      sub\n      dup3\n      mstore\n      0x20\n      dup2\n      mstore\n      0x20\n      add\n      dup1\n      0x4f776e61626c653a2063616c6c6572206973206e6f7420746865206f776e6572\n      dup2\n      mstore\n      pop\n      0x20\n      add\n      swap2\n      pop\n      pop\n      mload(0x40)\n      dup1\n      swap2\n      sub\n      swap1\n      revert\n    tag_81:\n        /* \"contracts/carboncredits.sol\":3236:3260  customer[] memory result */\n      0x00\n        /* \"contracts/carboncredits.sol\":3278:3291  customercount */\n      sload(0x03)\n        /* \"contracts/carboncredits.sol\":3263:3292  new customer[](customercount) */\n      0xffffffffffffffff\n      dup2\n      gt\n      dup1\n      iszero\n      tag_83\n      jumpi\n      0x00\n      dup1\n      revert\n    tag_83:\n      pop\n      mload(0x40)\n      swap1\n      dup1\n      dup3\n      mstore\n      dup1\n      0x20\n      mul\n      0x20\n      add\n      dup3\n      add\n      0x40\n      mstore\n      dup1\n      iszero\n      tag_84\n      jumpi\n      dup2\n      0x20\n      add\n    tag_85:\n      tag_86\n      tag_87\n      jump\t// in\n    tag_86:\n      dup2\n      mstore\n      0x20\n      add\n      swap1\n      0x01\n      swap1\n      sub\n      swap1\n      dup2\n      tag_85\n      jumpi\n      swap1\n      pop\n    tag_84:\n      pop\n        /* \"contracts/carboncredits.sol\":3236:3292  customer[] memory result = new customer[](customercount) */\n      swap1\n      pop\n        /* \"contracts/carboncredits.sol\":3307:3313  uint i */\n      0x00\n        /* \"contracts/carboncredits.sol\":3302:3392  for (uint i = 0; i < customercount; i++) {... */\n    tag_88:\n        /* \"contracts/carboncredits.sol\":3323:3336  customercount */\n      sload(0x03)\n        /* \"contracts/carboncredits.sol\":3319:3320  i */\n      dup2\n        /* \"contracts/carboncredits.sol\":3319:3336  i < customercount */\n      lt\n        /* \"contracts/carboncredits.sol\":3302:3392  for (uint i = 0; i < customercount; i++) {... */\n      iszero\n      tag_89\n      jumpi\n        /* \"contracts/carboncredits.sol\":3369:3378  customers */\n      0x06\n        /* \"contracts/carboncredits.sol\":3369:3381  customers[i] */\n      0x00\n        /* \"contracts/carboncredits.sol\":3379:3380  i */\n      dup3\n        /* \"contracts/carboncredits.sol\":3369:3381  customers[i] */\n      dup2\n      mstore\n      0x20\n      add\n      swap1\n      dup2\n      mstore\n      0x20\n      add\n      0x00\n      keccak256\n        /* \"contracts/carboncredits.sol\":3357:3381  result[i] = customers[i] */\n      mload(0x40)\n      dup1\n      0xa0\n      add\n      0x40\n      mstore\n      swap1\n      dup2\n      0x00\n      dup3\n      add\n      dup1\n      sload\n      0x01\n      dup2\n      0x01\n      and\n      iszero\n      0x0100\n      mul\n      sub\n      and\n      0x02\n      swap1\n      div\n      dup1\n      0x1f\n      add\n      0x20\n      dup1\n      swap2\n      div\n      mul\n      0x20\n      add\n      mload(0x40)\n      swap1\n      dup2\n      add\n      0x40\n      mstore\n      dup1\n      swap3\n      swap2\n      swap1\n      dup2\n      dup2\n      mstore\n      0x20\n      add\n      dup3\n      dup1\n      sload\n      0x01\n      dup2\n      0x01\n      and\n      iszero\n      0x0100\n      mul\n      sub\n      and\n      0x02\n      swap1\n      div\n      dup1\n      iszero\n      tag_91\n      jumpi\n      dup1\n      0x1f\n      lt\n      tag_92\n      jumpi\n      0x0100\n      dup1\n      dup4\n      sload\n      div\n      mul\n      dup4\n      mstore\n      swap2\n      0x20\n      add\n      swap2\n      jump(tag_91)\n    tag_92:\n      dup3\n      add\n      swap2\n      swap1\n      0x00\n      mstore\n      keccak256(0x00, 0x20)\n      swap1\n    tag_93:\n      dup2\n      sload\n      dup2\n      mstore\n      swap1\n      0x01\n      add\n      swap1\n      0x20\n      add\n      dup1\n      dup4\n      gt\n      tag_93\n      jumpi\n      dup3\n      swap1\n      sub\n      0x1f\n      and\n      dup3\n      add\n      swap2\n    tag_91:\n      pop\n      pop\n      pop\n      pop\n      pop\n      dup2\n      mstore\n      0x20\n      add\n      0x01\n      dup3\n      add\n      dup1\n      sload\n      0x01\n      dup2\n      0x01\n      and\n      iszero\n      0x0100\n      mul\n      sub\n      and\n      0x02\n      swap1\n      div\n      dup1\n      0x1f\n      add\n      0x20\n      dup1\n      swap2\n      div\n      mul\n      0x20\n      add\n      mload(0x40)\n      swap1\n      dup2\n      add\n      0x40\n      mstore\n      dup1\n      swap3\n      swap2\n      swap1\n      dup2\n      dup2\n      mstore\n      0x20\n      add\n      dup3\n      dup1\n      sload\n      0x01\n      dup2\n      0x01\n      and\n      iszero\n      0x0100\n      mul\n      sub\n      and\n      0x02\n      swap1\n      div\n      dup1\n      iszero\n      tag_94\n      jumpi\n      dup1\n      0x1f\n      lt\n      tag_95\n      jumpi\n      0x0100\n      dup1\n      dup4\n      sload\n      div\n      mul\n      dup4\n      mstore\n      swap2\n      0x20\n      add\n      swap2\n      jump(tag_94)\n    tag_95:\n      dup3\n      add\n      swap2\n      swap1\n      0x00\n      mstore\n      keccak256(0x00, 0x20)\n      swap1\n    tag_96:\n      dup2\n      sload\n      dup2\n      mstore\n      swap1\n      0x01\n      add\n      swap1\n      0x20\n      add\n      dup1\n      dup4\n      gt\n      tag_96\n      jumpi\n      dup3\n      swap1\n      sub\n      0x1f\n      and\n      dup3\n      add\n      swap2\n    tag_94:\n      pop\n      pop\n      pop\n      pop\n      pop\n      dup2\n      mstore\n      0x20\n      add\n      0x02\n      dup3\n      add\n      dup1\n      sload\n      0x01\n      dup2\n      0x01\n      and\n      iszero\n      0x0100\n      mul\n      sub\n      and\n      0x02\n      swap1\n      div\n      dup1\n      0x1f\n      add\n      0x20\n      dup1\n      swap2\n      div\n      mul\n      0x20\n      add\n      mload(0x40)\n      swap1\n      dup2\n      add\n      0x40\n      mstore\n      dup1\n      swap3\n      swap2\n      swap1\n      dup2\n      dup2\n      mstore\n      0x20\n      add\n      dup3\n      dup1\n      sload\n      0x01\n      dup2\n      0x01\n      and\n      iszero\n      0x0100\n      mul\n      sub\n      and\n      0x02\n      swap1\n      div\n      dup1\n      iszero\n      tag_97\n      jumpi\n      dup1\n      0x1f\n      lt\n      tag_98\n      jumpi\n      0x0100\n      dup1\n      dup4\n      sload\n      div\n      mul\n      dup4\n      mstore\n      swap2\n      0x20\n      add\n      swap2\n      jump(tag_97)\n    tag_98:\n      dup3\n      add\n      swap2\n      swap1\n      0x00\n      mstore\n      keccak256(0x00, 0x20)\n      swap1\n    tag_99:\n      dup2\n      sload\n      dup2\n      mstore\n      swap1\n      0x01\n      add\n      swap1\n      0x20\n      add\n      dup1\n      dup4\n      gt\n      tag_99\n      jumpi\n      dup3\n      swap1\n      sub\n      0x1f\n      and\n      dup3\n      add\n      swap2\n    tag_97:\n      pop\n      pop\n      pop\n      pop\n      pop\n      dup2\n      mstore\n      0x20\n      add\n      0x03\n      dup3\n      add\n      sload\n      dup2\n      mstore\n      0x20\n      add\n      0x04\n      dup3\n      add\n      sload\n      dup2\n      mstore\n      pop\n      pop\n        /* \"contracts/carboncredits.sol\":3357:3363  result */\n      dup3\n        /* \"contracts/carboncredits.sol\":3364:3365  i */\n      dup3\n        /* \"contracts/carboncredits.sol\":3357:3366  result[i] */\n      dup2\n      mload\n      dup2\n      lt\n      tag_100\n      jumpi\n      invalid\n    tag_100:\n      0x20\n      mul\n      0x20\n      add\n      add\n        /* \"contracts/carboncredits.sol\":3357:3381  result[i] = customers[i] */\n      dup2\n      swap1\n      mstore\n      pop\n        /* \"contracts/carboncredits.sol\":3338:3341  i++ */\n      dup1\n      dup1\n      0x01\n      add\n      swap2\n      pop\n      pop\n        /* \"contracts/carboncredits.sol\":3302:3392  for (uint i = 0; i < customercount; i++) {... */\n      jump(tag_88)\n    tag_89:\n      pop\n        /* \"contracts/carboncredits.sol\":3408:3414  result */\n      dup1\n        /* \"contracts/carboncredits.sol\":3401:3414  return result */\n      swap2\n      pop\n      pop\n        /* \"contracts/carboncredits.sol\":3130:3421  function getCustomerProfile(address _owner) public view onlyOwner() returns (customer[] memory) {... */\n      swap2\n      swap1\n      pop\n      jump\t// out\n        /* \"https://github.com/OpenZeppelin/openzeppelin-contracts/blob/v3.4.0/contracts/access/Ownable.sol\":1717:1862  function renounceOwnership() public virtual onlyOwner {... */\n    tag_29:\n        /* \"https://github.com/OpenZeppelin/openzeppelin-contracts/blob/v3.4.0/contracts/access/Ownable.sol\":1308:1320  _msgSender() */\n      tag_102\n        /* \"https://github.com/OpenZeppelin/openzeppelin-contracts/blob/v3.4.0/contracts/access/Ownable.sol\":1308:1318  _msgSender */\n      tag_79\n        /* \"https://github.com/OpenZeppelin/openzeppelin-contracts/blob/v3.4.0/contracts/access/Ownable.sol\":1308:1320  _msgSender() */\n      jump\t// in\n    tag_102:\n        /* \"https://github.com/OpenZeppelin/openzeppelin-contracts/blob/v3.4.0/contracts/access/Ownable.sol\":1297:1320  owner() == _msgSender() */\n      0xffffffffffffffffffffffffffffffffffffffff\n      and\n        /* \"https://github.com/OpenZeppelin/openzeppelin-contracts/blob/v3.4.0/contracts/access/Ownable.sol\":1297:1304  owner() */\n      tag_103\n        /* \"https://github.com/OpenZeppelin/openzeppelin-contracts/blob/v3.4.0/contracts/access/Ownable.sol\":1297:1302  owner */\n      tag_44\n        /* \"https://github.com/OpenZeppelin/openzeppelin-contracts/blob/v3.4.0/contracts/access/Ownable.sol\":1297:1304  owner() */\n      jump\t// in\n    tag_103:\n        /* \"https://github.com/OpenZeppelin/openzeppelin-contracts/blob/v3.4.0/contracts/access/Ownable.sol\":1297:1320  owner() == _msgSender() */\n      0xffffffffffffffffffffffffffffffffffffffff\n      and\n      eq\n        /* \"https://github.com/OpenZeppelin/openzeppelin-contracts/blob/v3.4.0/contracts/access/Ownable.sol\":1289:1357  require(owner() == _msgSender(), \"Ownable: caller is not the owner\") */\n      tag_104\n      jumpi\n      mload(0x40)\n      0x08c379a000000000000000000000000000000000000000000000000000000000\n      dup2\n      mstore\n      0x04\n      add\n      dup1\n      dup1\n      0x20\n      add\n      dup3\n      dup2\n      sub\n      dup3\n      mstore\n      0x20\n      dup2\n      mstore\n      0x20\n      add\n      dup1\n      0x4f776e61626c653a2063616c6c6572206973206e6f7420746865206f776e6572\n      dup2\n      mstore\n      pop\n      0x20\n      add\n      swap2\n      pop\n      pop\n      mload(0x40)\n      dup1\n      swap2\n      sub\n      swap1\n      revert\n    tag_104:\n        /* \"https://github.com/OpenZeppelin/openzeppelin-contracts/blob/v3.4.0/contracts/access/Ownable.sol\":1823:1824  0 */\n      0x00\n        /* \"https://github.com/OpenZeppelin/openzeppelin-contracts/blob/v3.4.0/contracts/access/Ownable.sol\":1786:1826  OwnershipTransferred(_owner, address(0)) */\n      0xffffffffffffffffffffffffffffffffffffffff\n      and\n        /* \"https://github.com/OpenZeppelin/openzeppelin-contracts/blob/v3.4.0/contracts/access/Ownable.sol\":1807:1813  _owner */\n      0x00\n      dup1\n      sload\n      swap1\n      0x0100\n      exp\n      swap1\n      div\n      0xffffffffffffffffffffffffffffffffffffffff\n      and\n        /* \"https://github.com/OpenZeppelin/openzeppelin-contracts/blob/v3.4.0/contracts/access/Ownable.sol\":1786:1826  OwnershipTransferred(_owner, address(0)) */\n      0xffffffffffffffffffffffffffffffffffffffff\n      and\n      0x8be0079c531659141344cd1fd0a4f28419497f9722a3daafe3b4186f6b6457e0\n      mload(0x40)\n      mload(0x40)\n      dup1\n      swap2\n      sub\n      swap1\n      log3\n        /* \"https://github.com/OpenZeppelin/openzeppelin-contracts/blob/v3.4.0/contracts/access/Ownable.sol\":1853:1854  0 */\n      0x00\n        /* \"https://github.com/OpenZeppelin/openzeppelin-contracts/blob/v3.4.0/contracts/access/Ownable.sol\":1836:1842  _owner */\n      dup1\n      0x00\n        /* \"https://github.com/OpenZeppelin/openzeppelin-contracts/blob/v3.4.0/contracts/access/Ownable.sol\":1836:1855  _owner = address(0) */\n      0x0100\n      exp\n      dup2\n      sload\n      dup2\n      0xffffffffffffffffffffffffffffffffffffffff\n      mul\n      not\n      and\n      swap1\n      dup4\n      0xffffffffffffffffffffffffffffffffffffffff\n      and\n      mul\n      or\n      swap1\n      sstore\n      pop\n        /* \"https://github.com/OpenZeppelin/openzeppelin-contracts/blob/v3.4.0/contracts/access/Ownable.sol\":1717:1862  function renounceOwnership() public virtual onlyOwner {... */\n      jump\t// out\n        /* \"contracts/carboncredits.sol\":896:952  mapping(uint => CarbonCreditHolder) public CreditHolders */\n    tag_33:\n      mstore(0x20, 0x04)\n      dup1\n      0x00\n      mstore\n      keccak256(0x00, 0x40)\n      0x00\n      swap2\n      pop\n      swap1\n      pop\n      dup1\n      0x00\n      add\n      dup1\n      sload\n      0x01\n      dup2\n      0x01\n      and\n      iszero\n      0x0100\n      mul\n      sub\n      and\n      0x02\n      swap1\n      div\n      dup1\n      0x1f\n      add\n      0x20\n      dup1\n      swap2\n      div\n      mul\n      0x20\n      add\n      mload(0x40)\n      swap1\n      dup2\n      add\n      0x40\n      mstore\n      dup1\n      swap3\n      swap2\n      swap1\n      dup2\n      dup2\n      mstore\n      0x20\n      add\n      dup3\n      dup1\n      sload\n      0x01\n      dup2\n      0x01\n      and\n      iszero\n      0x0100\n      mul\n      sub\n      and\n      0x02\n      swap1\n      div\n      dup1\n      iszero\n      tag_106\n      jumpi\n      dup1\n      0x1f\n      lt\n      tag_107\n      jumpi\n      0x0100\n      dup1\n      dup4\n      sload\n      div\n      mul\n      dup4\n      mstore\n      swap2\n      0x20\n      add\n      swap2\n      jump(tag_106)\n    tag_107:\n      dup3\n      add\n      swap2\n      swap1\n      0x00\n      mstore\n      keccak256(0x00, 0x20)\n      swap1\n    tag_108:\n      dup2\n      sload\n      dup2\n      mstore\n      swap1\n      0x01\n      add\n      swap1\n      0x20\n      add\n      dup1\n      dup4\n      gt\n      tag_108\n      jumpi\n      dup3\n      swap1\n      sub\n      0x1f\n      and\n      dup3\n      add\n      swap2\n    tag_106:\n      pop\n      pop\n      pop\n      pop\n      pop\n      swap1\n      dup1\n      0x01\n      add\n      sload\n      swap1\n      dup1\n      0x02\n      add\n      sload\n      swap1\n      dup1\n      0x03\n      add\n      sload\n      swap1\n      dup1\n      0x04\n      add\n      sload\n      swap1\n      dup1\n      0x05\n      add\n      sload\n      swap1\n      dup1\n      0x06\n      add\n      0x00\n      swap1\n      sload\n      swap1\n      0x0100\n      exp\n      swap1\n      div\n      0xffffffffffffffffffffffffffffffffffffffff\n      and\n      swap1\n      pop\n      dup8\n      jump\t// out\n        /* \"contracts/carboncredits.sol\":2250:2570  function registerCustomer(string memory first_name, string memory last_name, string memory email, uint contact) public {... */\n    tag_39:\n        /* \"contracts/carboncredits.sol\":2379:2392  customercount */\n      0x03\n      0x00\n        /* \"contracts/carboncredits.sol\":2379:2394  customercount++ */\n      dup2\n      sload\n      dup1\n      swap3\n      swap2\n      swap1\n      0x01\n      add\n      swap2\n      swap1\n      pop\n      sstore\n      pop\n        /* \"contracts/carboncredits.sol\":2431:2563  customer(... */\n      mload(0x40)\n      dup1\n      0xa0\n      add\n      0x40\n      mstore\n      dup1\n        /* \"contracts/carboncredits.sol\":2453:2463  first_name */\n      dup6\n        /* \"contracts/carboncredits.sol\":2431:2563  customer(... */\n      dup2\n      mstore\n      0x20\n      add\n        /* \"contracts/carboncredits.sol\":2477:2486  last_name */\n      dup5\n        /* \"contracts/carboncredits.sol\":2431:2563  customer(... */\n      dup2\n      mstore\n      0x20\n      add\n        /* \"contracts/carboncredits.sol\":2500:2505  email */\n      dup4\n        /* \"contracts/carboncredits.sol\":2431:2563  customer(... */\n      dup2\n      mstore\n      0x20\n      add\n        /* \"contracts/carboncredits.sol\":2519:2526  contact */\n      dup3\n        /* \"contracts/carboncredits.sol\":2431:2563  customer(... */\n      dup2\n      mstore\n      0x20\n      add\n        /* \"contracts/carboncredits.sol\":2540:2553  customercount */\n      sload(0x03)\n        /* \"contracts/carboncredits.sol\":2431:2563  customer(... */\n      dup2\n      mstore\n      pop\n        /* \"contracts/carboncredits.sol\":2404:2413  customers */\n      0x06\n        /* \"contracts/carboncredits.sol\":2404:2428  customers[customercount] */\n      0x00\n        /* \"contracts/carboncredits.sol\":2414:2427  customercount */\n      sload(0x03)\n        /* \"contracts/carboncredits.sol\":2404:2428  customers[customercount] */\n      dup2\n      mstore\n      0x20\n      add\n      swap1\n      dup2\n      mstore\n      0x20\n      add\n      0x00\n      keccak256\n        /* \"contracts/carboncredits.sol\":2404:2563  customers[customercount] = customer(... */\n      0x00\n      dup3\n      add\n      mload\n      dup2\n      0x00\n      add\n      swap1\n      dup1\n      mload\n      swap1\n      0x20\n      add\n      swap1\n      tag_110\n      swap3\n      swap2\n      swap1\n      tag_74\n      jump\t// in\n    tag_110:\n      pop\n      0x20\n      dup3\n      add\n      mload\n      dup2\n      0x01\n      add\n      swap1\n      dup1\n      mload\n      swap1\n      0x20\n      add\n      swap1\n      tag_111\n      swap3\n      swap2\n      swap1\n      tag_74\n      jump\t// in\n    tag_111:\n      pop\n      0x40\n      dup3\n      add\n      mload\n      dup2\n      0x02\n      add\n      swap1\n      dup1\n      mload\n      swap1\n      0x20\n      add\n      swap1\n      tag_112\n      swap3\n      swap2\n      swap1\n      tag_74\n      jump\t// in\n    tag_112:\n      pop\n      0x60\n      dup3\n      add\n      mload\n      dup2\n      0x03\n      add\n      sstore\n      0x80\n      dup3\n      add\n      mload\n      dup2\n      0x04\n      add\n      sstore\n      swap1\n      pop\n      pop\n        /* \"contracts/carboncredits.sol\":2250:2570  function registerCustomer(string memory first_name, string memory last_name, string memory email, uint contact) public {... */\n      pop\n      pop\n      pop\n      pop\n      jump\t// out\n        /* \"contracts/carboncredits.sol\":3427:3688  function getAllCustomers() public view returns (customer[] memory) {... */\n    tag_41:\n        /* \"contracts/carboncredits.sol\":3475:3492  customer[] memory */\n      0x60\n        /* \"contracts/carboncredits.sol\":3500:3530  customer[] memory allCustomers */\n      0x00\n        /* \"contracts/carboncredits.sol\":3548:3561  customercount */\n      sload(0x03)\n        /* \"contracts/carboncredits.sol\":3533:3562  new customer[](customercount) */\n      0xffffffffffffffff\n      dup2\n      gt\n      dup1\n      iszero\n      tag_114\n      jumpi\n      0x00\n      dup1\n      revert\n    tag_114:\n      pop\n      mload(0x40)\n      swap1\n      dup1\n      dup3\n      mstore\n      dup1\n      0x20\n      mul\n      0x20\n      add\n      dup3\n      add\n      0x40\n      mstore\n      dup1\n      iszero\n      tag_115\n      jumpi\n      dup2\n      0x20\n      add\n    tag_116:\n      tag_117\n      tag_87\n      jump\t// in\n    tag_117:\n      dup2\n      mstore\n      0x20\n      add\n      swap1\n      0x01\n      swap1\n      sub\n      swap1\n      dup2\n      tag_116\n      jumpi\n      swap1\n      pop\n    tag_115:\n      pop\n        /* \"contracts/carboncredits.sol\":3500:3562  customer[] memory allCustomers = new customer[](customercount) */\n      swap1\n      pop\n        /* \"contracts/carboncredits.sol\":3573:3579  uint i */\n      0x00\n        /* \"contracts/carboncredits.sol\":3582:3583  1 */\n      0x01\n        /* \"contracts/carboncredits.sol\":3573:3583  uint i = 1 */\n      swap1\n      pop\n        /* \"contracts/carboncredits.sol\":3568:3661  for (uint i = 1; i <= customercount; i++) {... */\n    tag_118:\n        /* \"contracts/carboncredits.sol\":3590:3603  customercount */\n      sload(0x03)\n        /* \"contracts/carboncredits.sol\":3585:3586  i */\n      dup2\n        /* \"contracts/carboncredits.sol\":3585:3603  i <= customercount */\n      gt\n        /* \"contracts/carboncredits.sol\":3568:3661  for (uint i = 1; i <= customercount; i++) {... */\n      tag_119\n      jumpi\n        /* \"contracts/carboncredits.sol\":3642:3651  customers */\n      0x06\n        /* \"contracts/carboncredits.sol\":3642:3654  customers[i] */\n      0x00\n        /* \"contracts/carboncredits.sol\":3652:3653  i */\n      dup3\n        /* \"contracts/carboncredits.sol\":3642:3654  customers[i] */\n      dup2\n      mstore\n      0x20\n      add\n      swap1\n      dup2\n      mstore\n      0x20\n      add\n      0x00\n      keccak256\n        /* \"contracts/carboncredits.sol\":3620:3654  allCustomers[i - 1] = customers[i] */\n      mload(0x40)\n      dup1\n      0xa0\n      add\n      0x40\n      mstore\n      swap1\n      dup2\n      0x00\n      dup3\n      add\n      dup1\n      sload\n      0x01\n      dup2\n      0x01\n      and\n      iszero\n      0x0100\n      mul\n      sub\n      and\n      0x02\n      swap1\n      div\n      dup1\n      0x1f\n      add\n      0x20\n      dup1\n      swap2\n      div\n      mul\n      0x20\n      add\n      mload(0x40)\n      swap1\n      dup2\n      add\n      0x40\n      mstore\n      dup1\n      swap3\n      swap2\n      swap1\n      dup2\n      dup2\n      mstore\n      0x20\n      add\n      dup3\n      dup1\n      sload\n      0x01\n      dup2\n      0x01\n      and\n      iszero\n      0x0100\n      mul\n      sub\n      and\n      0x02\n      swap1\n      div\n      dup1\n      iszero\n      tag_121\n      jumpi\n      dup1\n      0x1f\n      lt\n      tag_122\n      jumpi\n      0x0100\n      dup1\n      dup4\n      sload\n      div\n      mul\n      dup4\n      mstore\n      swap2\n      0x20\n      add\n      swap2\n      jump(tag_121)\n    tag_122:\n      dup3\n      add\n      swap2\n      swap1\n      0x00\n      mstore\n      keccak256(0x00, 0x20)\n      swap1\n    tag_123:\n      dup2\n      sload\n      dup2\n      mstore\n      swap1\n      0x01\n      add\n      swap1\n      0x20\n      add\n      dup1\n      dup4\n      gt\n      tag_123\n      jumpi\n      dup3\n      swap1\n      sub\n      0x1f\n      and\n      dup3\n      add\n      swap2\n    tag_121:\n      pop\n      pop\n      pop\n      pop\n      pop\n      dup2\n      mstore\n      0x20\n      add\n      0x01\n      dup3\n      add\n      dup1\n      sload\n      0x01\n      dup2\n      0x01\n      and\n      iszero\n      0x0100\n      mul\n      sub\n      and\n      0x02\n      swap1\n      div\n      dup1\n      0x1f\n      add\n      0x20\n      dup1\n      swap2\n      div\n      mul\n      0x20\n      add\n      mload(0x40)\n      swap1\n      dup2\n      add\n      0x40\n      mstore\n      dup1\n      swap3\n      swap2\n      swap1\n      dup2\n      dup2\n      mstore\n      0x20\n      add\n      dup3\n      dup1\n      sload\n      0x01\n      dup2\n      0x01\n      and\n      iszero\n      0x0100\n      mul\n      sub\n      and\n      0x02\n      swap1\n      div\n      dup1\n      iszero\n      tag_124\n      jumpi\n      dup1\n      0x1f\n      lt\n      tag_125\n      jumpi\n      0x0100\n      dup1\n      dup4\n      sload\n      div\n      mul\n      dup4\n      mstore\n      swap2\n      0x20\n      add\n      swap2\n      jump(tag_124)\n    tag_125:\n      dup3\n      add\n      swap2\n      swap1\n      0x00\n      mstore\n      keccak256(0x00, 0x20)\n      swap1\n    tag_126:\n      dup2\n      sload\n      dup2\n      mstore\n      swap1\n      0x01\n      add\n      swap1\n      0x20\n      add\n      dup1\n      dup4\n      gt\n      tag_126\n      jumpi\n      dup3\n      swap1\n      sub\n      0x1f\n      and\n      dup3\n      add\n      swap2\n    tag_124:\n      pop\n      pop\n      pop\n      pop\n      pop\n      dup2\n      mstore\n      0x20\n      add\n      0x02\n      dup3\n      add\n      dup1\n      sload\n      0x01\n      dup2\n      0x01\n      and\n      iszero\n      0x0100\n      mul\n      sub\n      and\n      0x02\n      swap1\n      div\n      dup1\n      0x1f\n      add\n      0x20\n      dup1\n      swap2\n      div\n      mul\n      0x20\n      add\n      mload(0x40)\n      swap1\n      dup2\n      add\n      0x40\n      mstore\n      dup1\n      swap3\n      swap2\n      swap1\n      dup2\n      dup2\n      mstore\n      0x20\n      add\n      dup3\n      dup1\n      sload\n      0x01\n      dup2\n      0x01\n      and\n      iszero\n      0x0100\n      mul\n      sub\n      and\n      0x02\n      swap1\n      div\n      dup1\n      iszero\n      tag_127\n      jumpi\n      dup1\n      0x1f\n      lt\n      tag_128\n      jumpi\n      0x0100\n      dup1\n      dup4\n      sload\n      div\n      mul\n      dup4\n      mstore\n      swap2\n      0x20\n      add\n      swap2\n      jump(tag_127)\n    tag_128:\n      dup3\n      add\n      swap2\n      swap1\n      0x00\n      mstore\n      keccak256(0x00, 0x20)\n      swap1\n    tag_129:\n      dup2\n      sload\n      dup2\n      mstore\n      swap1\n      0x01\n      add\n      swap1\n      0x20\n      add\n      dup1\n      dup4\n      gt\n      tag_129\n      jumpi\n      dup3\n      swap1\n      sub\n      0x1f\n      and\n      dup3\n      add\n      swap2\n    tag_127:\n      pop\n      pop\n      pop\n      pop\n      pop\n      dup2\n      mstore\n      0x20\n      add\n      0x03\n      dup3\n      add\n      sload\n      dup2\n      mstore\n      0x20\n      add\n      0x04\n      dup3\n      add\n      sload\n      dup2\n      mstore\n      pop\n      pop\n        /* \"contracts/carboncredits.sol\":3620:3632  allCustomers */\n      dup3\n        /* \"contracts/carboncredits.sol\":3637:3638  1 */\n      0x01\n        /* \"contracts/carboncredits.sol\":3633:3634  i */\n      dup4\n        /* \"contracts/carboncredits.sol\":3633:3638  i - 1 */\n      sub\n        /* \"contracts/carboncredits.sol\":3620:3639  allCustomers[i - 1] */\n      dup2\n      mload\n      dup2\n      lt\n      tag_130\n      jumpi\n      invalid\n    tag_130:\n      0x20\n      mul\n      0x20\n      add\n      add\n        /* \"contracts/carboncredits.sol\":3620:3654  allCustomers[i - 1] = customers[i] */\n      dup2\n      swap1\n      mstore\n      pop\n        /* \"contracts/carboncredits.sol\":3605:3608  i++ */\n      dup1\n      dup1\n      0x01\n      add\n      swap2\n      pop\n      pop\n        /* \"contracts/carboncredits.sol\":3568:3661  for (uint i = 1; i <= customercount; i++) {... */\n      jump(tag_118)\n    tag_119:\n      pop\n        /* \"contracts/carboncredits.sol\":3673:3685  allCustomers */\n      dup1\n        /* \"contracts/carboncredits.sol\":3666:3685  return allCustomers */\n      swap2\n      pop\n      pop\n        /* \"contracts/carboncredits.sol\":3427:3688  function getAllCustomers() public view returns (customer[] memory) {... */\n      swap1\n      jump\t// out\n        /* \"https://github.com/OpenZeppelin/openzeppelin-contracts/blob/v3.4.0/contracts/access/Ownable.sol\":1085:1170  function owner() public view virtual returns (address) {... */\n    tag_44:\n        /* \"https://github.com/OpenZeppelin/openzeppelin-contracts/blob/v3.4.0/contracts/access/Ownable.sol\":1131:1138  address */\n      0x00\n        /* \"https://github.com/OpenZeppelin/openzeppelin-contracts/blob/v3.4.0/contracts/access/Ownable.sol\":1157:1163  _owner */\n      dup1\n      0x00\n      swap1\n      sload\n      swap1\n      0x0100\n      exp\n      swap1\n      div\n      0xffffffffffffffffffffffffffffffffffffffff\n      and\n        /* \"https://github.com/OpenZeppelin/openzeppelin-contracts/blob/v3.4.0/contracts/access/Ownable.sol\":1150:1163  return _owner */\n      swap1\n      pop\n        /* \"https://github.com/OpenZeppelin/openzeppelin-contracts/blob/v3.4.0/contracts/access/Ownable.sol\":1085:1170  function owner() public view virtual returns (address) {... */\n      swap1\n      jump\t// out\n        /* \"contracts/carboncredits.sol\":1914:2244  function registerVerifiers(string memory name, string memory homeCountry, uint reg_no, uint license_no) public {... */\n    tag_50:\n        /* \"contracts/carboncredits.sol\":2035:2048  verifiercount */\n      0x02\n      0x00\n        /* \"contracts/carboncredits.sol\":2035:2050  verifiercount++ */\n      dup2\n      sload\n      dup1\n      swap3\n      swap2\n      swap1\n      0x01\n      add\n      swap2\n      swap1\n      pop\n      sstore\n      pop\n        /* \"contracts/carboncredits.sol\":2097:2102  false */\n      0x00\n        /* \"contracts/carboncredits.sol\":2068:2102  verifiers[reg_no].isExist == false */\n      iszero\n      iszero\n        /* \"contracts/carboncredits.sol\":2068:2077  verifiers */\n      0x05\n        /* \"contracts/carboncredits.sol\":2068:2085  verifiers[reg_no] */\n      0x00\n        /* \"contracts/carboncredits.sol\":2078:2084  reg_no */\n      dup5\n        /* \"contracts/carboncredits.sol\":2068:2085  verifiers[reg_no] */\n      dup2\n      mstore\n      0x20\n      add\n      swap1\n      dup2\n      mstore\n      0x20\n      add\n      0x00\n      keccak256\n        /* \"contracts/carboncredits.sol\":2068:2093  verifiers[reg_no].isExist */\n      0x04\n      add\n      0x14\n      swap1\n      sload\n      swap1\n      0x0100\n      exp\n      swap1\n      div\n      0xff\n      and\n        /* \"contracts/carboncredits.sol\":2068:2102  verifiers[reg_no].isExist == false */\n      iszero\n      iszero\n      eq\n        /* \"contracts/carboncredits.sol\":2060:2135  require(verifiers[reg_no].isExist == false, \"Validator already registered\") */\n      tag_133\n      jumpi\n      mload(0x40)\n      0x08c379a000000000000000000000000000000000000000000000000000000000\n      dup2\n      mstore\n      0x04\n      add\n      tag_134\n      swap1\n      tag_135\n      jump\t// in\n    tag_134:\n      mload(0x40)\n      dup1\n      swap2\n      sub\n      swap1\n      revert\n    tag_133:\n        /* \"contracts/carboncredits.sol\":2172:2237  verifier(name, homeCountry, reg_no, license_no, msg.sender, true) */\n      mload(0x40)\n      dup1\n      0xc0\n      add\n      0x40\n      mstore\n      dup1\n        /* \"contracts/carboncredits.sol\":2181:2185  name */\n      dup6\n        /* \"contracts/carboncredits.sol\":2172:2237  verifier(name, homeCountry, reg_no, license_no, msg.sender, true) */\n      dup2\n      mstore\n      0x20\n      add\n        /* \"contracts/carboncredits.sol\":2187:2198  homeCountry */\n      dup5\n        /* \"contracts/carboncredits.sol\":2172:2237  verifier(name, homeCountry, reg_no, license_no, msg.sender, true) */\n      dup2\n      mstore\n      0x20\n      add\n        /* \"contracts/carboncredits.sol\":2200:2206  reg_no */\n      dup4\n        /* \"contracts/carboncredits.sol\":2172:2237  verifier(name, homeCountry, reg_no, license_no, msg.sender, true) */\n      dup2\n      mstore\n      0x20\n      add\n        /* \"contracts/carboncredits.sol\":2208:2218  license_no */\n      dup3\n        /* \"contracts/carboncredits.sol\":2172:2237  verifier(name, homeCountry, reg_no, license_no, msg.sender, true) */\n      dup2\n      mstore\n      0x20\n      add\n        /* \"contracts/carboncredits.sol\":2220:2230  msg.sender */\n      caller\n        /* \"contracts/carboncredits.sol\":2172:2237  verifier(name, homeCountry, reg_no, license_no, msg.sender, true) */\n      0xffffffffffffffffffffffffffffffffffffffff\n      and\n      dup2\n      mstore\n      0x20\n      add\n        /* \"contracts/carboncredits.sol\":2232:2236  true */\n      0x01\n        /* \"contracts/carboncredits.sol\":2172:2237  verifier(name, homeCountry, reg_no, license_no, msg.sender, true) */\n      iszero\n      iszero\n      dup2\n      mstore\n      pop\n        /* \"contracts/carboncredits.sol\":2145:2154  verifiers */\n      0x05\n        /* \"contracts/carboncredits.sol\":2145:2169  verifiers[verifiercount] */\n      0x00\n        /* \"contracts/carboncredits.sol\":2155:2168  verifiercount */\n      sload(0x02)\n        /* \"contracts/carboncredits.sol\":2145:2169  verifiers[verifiercount] */\n      dup2\n      mstore\n      0x20\n      add\n      swap1\n      dup2\n      mstore\n      0x20\n      add\n      0x00\n      keccak256\n        /* \"contracts/carboncredits.sol\":2145:2237  verifiers[verifiercount] = verifier(name, homeCountry, reg_no, license_no, msg.sender, true) */\n      0x00\n      dup3\n      add\n      mload\n      dup2\n      0x00\n      add\n      swap1\n      dup1\n      mload\n      swap1\n      0x20\n      add\n      swap1\n      tag_136\n      swap3\n      swap2\n      swap1\n      tag_74\n      jump\t// in\n    tag_136:\n      pop\n      0x20\n      dup3\n      add\n      mload\n      dup2\n      0x01\n      add\n      swap1\n      dup1\n      mload\n      swap1\n      0x20\n      add\n      swap1\n      tag_137\n      swap3\n      swap2\n      swap1\n      tag_74\n      jump\t// in\n    tag_137:\n      pop\n      0x40\n      dup3\n      add\n      mload\n      dup2\n      0x02\n      add\n      sstore\n      0x60\n      dup3\n      add\n      mload\n      dup2\n      0x03\n      add\n      sstore\n      0x80\n      dup3\n      add\n      mload\n      dup2\n      0x04\n      add\n      exp(0x0100, 0x00)\n      dup2\n      sload\n      dup2\n      0xffffffffffffffffffffffffffffffffffffffff\n      mul\n      not\n      and\n      swap1\n      dup4\n      0xffffffffffffffffffffffffffffffffffffffff\n      and\n      mul\n      or\n      swap1\n      sstore\n      pop\n      0xa0\n      dup3\n      add\n      mload\n      dup2\n      0x04\n      add\n      exp(0x0100, 0x14)\n      dup2\n      sload\n      dup2\n      0xff\n      mul\n      not\n      and\n      swap1\n      dup4\n      iszero\n      iszero\n      mul\n      or\n      swap1\n      sstore\n      pop\n      swap1\n      pop\n      pop\n        /* \"contracts/carboncredits.sol\":1914:2244  function registerVerifiers(string memory name, string memory homeCountry, uint reg_no, uint license_no) public {... */\n      pop\n      pop\n      pop\n      pop\n      jump\t// out\n        /* \"contracts/carboncredits.sol\":2576:2826  function getVerifiers() public view returns (verifier[] memory) {... */\n    tag_52:\n        /* \"contracts/carboncredits.sol\":2621:2638  verifier[] memory */\n      0x60\n        /* \"contracts/carboncredits.sol\":2650:2671  verifier[] memory ret */\n      0x00\n        /* \"contracts/carboncredits.sol\":2689:2702  verifiercount */\n      sload(0x02)\n        /* \"contracts/carboncredits.sol\":2674:2703  new verifier[](verifiercount) */\n      0xffffffffffffffff\n      dup2\n      gt\n      dup1\n      iszero\n      tag_139\n      jumpi\n      0x00\n      dup1\n      revert\n    tag_139:\n      pop\n      mload(0x40)\n      swap1\n      dup1\n      dup3\n      mstore\n      dup1\n      0x20\n      mul\n      0x20\n      add\n      dup3\n      add\n      0x40\n      mstore\n      dup1\n      iszero\n      tag_140\n      jumpi\n      dup2\n      0x20\n      add\n    tag_141:\n      tag_142\n      tag_143\n      jump\t// in\n    tag_142:\n      dup2\n      mstore\n      0x20\n      add\n      swap1\n      0x01\n      swap1\n      sub\n      swap1\n      dup2\n      tag_141\n      jumpi\n      swap1\n      pop\n    tag_140:\n      pop\n        /* \"contracts/carboncredits.sol\":2650:2703  verifier[] memory ret = new verifier[](verifiercount) */\n      swap1\n      pop\n        /* \"contracts/carboncredits.sol\":2718:2724  uint i */\n      0x00\n        /* \"contracts/carboncredits.sol\":2713:2800  for (uint i = 0; i < verifiercount; i++) {... */\n    tag_144:\n        /* \"contracts/carboncredits.sol\":2734:2747  verifiercount */\n      sload(0x02)\n        /* \"contracts/carboncredits.sol\":2730:2731  i */\n      dup2\n        /* \"contracts/carboncredits.sol\":2730:2747  i < verifiercount */\n      lt\n        /* \"contracts/carboncredits.sol\":2713:2800  for (uint i = 0; i < verifiercount; i++) {... */\n      iszero\n      tag_145\n      jumpi\n        /* \"contracts/carboncredits.sol\":2777:2786  verifiers */\n      0x05\n        /* \"contracts/carboncredits.sol\":2777:2789  verifiers[i] */\n      0x00\n        /* \"contracts/carboncredits.sol\":2787:2788  i */\n      dup3\n        /* \"contracts/carboncredits.sol\":2777:2789  verifiers[i] */\n      dup2\n      mstore\n      0x20\n      add\n      swap1\n      dup2\n      mstore\n      0x20\n      add\n      0x00\n      keccak256\n        /* \"contracts/carboncredits.sol\":2768:2789  ret[i] = verifiers[i] */\n      mload(0x40)\n      dup1\n      0xc0\n      add\n      0x40\n      mstore\n      swap1\n      dup2\n      0x00\n      dup3\n      add\n      dup1\n      sload\n      0x01\n      dup2\n      0x01\n      and\n      iszero\n      0x0100\n      mul\n      sub\n      and\n      0x02\n      swap1\n      div\n      dup1\n      0x1f\n      add\n      0x20\n      dup1\n      swap2\n      div\n      mul\n      0x20\n      add\n      mload(0x40)\n      swap1\n      dup2\n      add\n      0x40\n      mstore\n      dup1\n      swap3\n      swap2\n      swap1\n      dup2\n      dup2\n      mstore\n      0x20\n      add\n      dup3\n      dup1\n      sload\n      0x01\n      dup2\n      0x01\n      and\n      iszero\n      0x0100\n      mul\n      sub\n      and\n      0x02\n      swap1\n      div\n      dup1\n      iszero\n      tag_147\n      jumpi\n      dup1\n      0x1f\n      lt\n      tag_148\n      jumpi\n      0x0100\n      dup1\n      dup4\n      sload\n      div\n      mul\n      dup4\n      mstore\n      swap2\n      0x20\n      add\n      swap2\n      jump(tag_147)\n    tag_148:\n      dup3\n      add\n      swap2\n      swap1\n      0x00\n      mstore\n      keccak256(0x00, 0x20)\n      swap1\n    tag_149:\n      dup2\n      sload\n      dup2\n      mstore\n      swap1\n      0x01\n      add\n      swap1\n      0x20\n      add\n      dup1\n      dup4\n      gt\n      tag_149\n      jumpi\n      dup3\n      swap1\n      sub\n      0x1f\n      and\n      dup3\n      add\n      swap2\n    tag_147:\n      pop\n      pop\n      pop\n      pop\n      pop\n      dup2\n      mstore\n      0x20\n      add\n      0x01\n      dup3\n      add\n      dup1\n      sload\n      0x01\n      dup2\n      0x01\n      and\n      iszero\n      0x0100\n      mul\n      sub\n      and\n      0x02\n      swap1\n      div\n      dup1\n      0x1f\n      add\n      0x20\n      dup1\n      swap2\n      div\n      mul\n      0x20\n      add\n      mload(0x40)\n      swap1\n      dup2\n      add\n      0x40\n      mstore\n      dup1\n      swap3\n      swap2\n      swap1\n      dup2\n      dup2\n      mstore\n      0x20\n      add\n      dup3\n      dup1\n      sload\n      0x01\n      dup2\n      0x01\n      and\n      iszero\n      0x0100\n      mul\n      sub\n      and\n      0x02\n      swap1\n      div\n      dup1\n      iszero\n      tag_150\n      jumpi\n      dup1\n      0x1f\n      lt\n      tag_151\n      jumpi\n      0x0100\n      dup1\n      dup4\n      sload\n      div\n      mul\n      dup4\n      mstore\n      swap2\n      0x20\n      add\n      swap2\n      jump(tag_150)\n    tag_151:\n      dup3\n      add\n      swap2\n      swap1\n      0x00\n      mstore\n      keccak256(0x00, 0x20)\n      swap1\n    tag_152:\n      dup2\n      sload\n      dup2\n      mstore\n      swap1\n      0x01\n      add\n      swap1\n      0x20\n      add\n      dup1\n      dup4\n      gt\n      tag_152\n      jumpi\n      dup3\n      swap1\n      sub\n      0x1f\n      and\n      dup3\n      add\n      swap2\n    tag_150:\n      pop\n      pop\n      pop\n      pop\n      pop\n      dup2\n      mstore\n      0x20\n      add\n      0x02\n      dup3\n      add\n      sload\n      dup2\n      mstore\n      0x20\n      add\n      0x03\n      dup3\n      add\n      sload\n      dup2\n      mstore\n      0x20\n      add\n      0x04\n      dup3\n      add\n      0x00\n      swap1\n      sload\n      swap1\n      0x0100\n      exp\n      swap1\n      div\n      0xffffffffffffffffffffffffffffffffffffffff\n      and\n      0xffffffffffffffffffffffffffffffffffffffff\n      and\n      0xffffffffffffffffffffffffffffffffffffffff\n      and\n      dup2\n      mstore\n      0x20\n      add\n      0x04\n      dup3\n      add\n      0x14\n      swap1\n      sload\n      swap1\n      0x0100\n      exp\n      swap1\n      div\n      0xff\n      and\n      iszero\n      iszero\n      iszero\n      iszero\n      dup2\n      mstore\n      pop\n      pop\n        /* \"contracts/carboncredits.sol\":2768:2771  ret */\n      dup3\n        /* \"contracts/carboncredits.sol\":2772:2773  i */\n      dup3\n        /* \"contracts/carboncredits.sol\":2768:2774  ret[i] */\n      dup2\n      mload\n      dup2\n      lt\n      tag_153\n      jumpi\n      invalid\n    tag_153:\n      0x20\n      mul\n      0x20\n      add\n      add\n        /* \"contracts/carboncredits.sol\":2768:2789  ret[i] = verifiers[i] */\n      dup2\n      swap1\n      mstore\n      pop\n        /* \"contracts/carboncredits.sol\":2749:2752  i++ */\n      dup1\n      dup1\n      0x01\n      add\n      swap2\n      pop\n      pop\n        /* \"contracts/carboncredits.sol\":2713:2800  for (uint i = 0; i < verifiercount; i++) {... */\n      jump(tag_144)\n    tag_145:\n      pop\n        /* \"contracts/carboncredits.sol\":2816:2819  ret */\n      dup1\n        /* \"contracts/carboncredits.sol\":2809:2819  return ret */\n      swap2\n      pop\n      pop\n        /* \"contracts/carboncredits.sol\":2576:2826  function getVerifiers() public view returns (verifier[] memory) {... */\n      swap1\n      jump\t// out\n        /* \"contracts/carboncredits.sol\":958:1000  mapping(uint => verifier) public verifiers */\n    tag_57:\n      mstore(0x20, 0x05)\n      dup1\n      0x00\n      mstore\n      keccak256(0x00, 0x40)\n      0x00\n      swap2\n      pop\n      swap1\n      pop\n      dup1\n      0x00\n      add\n      dup1\n      sload\n      0x01\n      dup2\n      0x01\n      and\n      iszero\n      0x0100\n      mul\n      sub\n      and\n      0x02\n      swap1\n      div\n      dup1\n      0x1f\n      add\n      0x20\n      dup1\n      swap2\n      div\n      mul\n      0x20\n      add\n      mload(0x40)\n      swap1\n      dup2\n      add\n      0x40\n      mstore\n      dup1\n      swap3\n      swap2\n      swap1\n      dup2\n      dup2\n      mstore\n      0x20\n      add\n      dup3\n      dup1\n      sload\n      0x01\n      dup2\n      0x01\n      and\n      iszero\n      0x0100\n      mul\n      sub\n      and\n      0x02\n      swap1\n      div\n      dup1\n      iszero\n      tag_154\n      jumpi\n      dup1\n      0x1f\n      lt\n      tag_155\n      jumpi\n      0x0100\n      dup1\n      dup4\n      sload\n      div\n      mul\n      dup4\n      mstore\n      swap2\n      0x20\n      add\n      swap2\n      jump(tag_154)\n    tag_155:\n      dup3\n      add\n      swap2\n      swap1\n      0x00\n      mstore\n      keccak256(0x00, 0x20)\n      swap1\n    tag_156:\n      dup2\n      sload\n      dup2\n      mstore\n      swap1\n      0x01\n      add\n      swap1\n      0x20\n      add\n      dup1\n      dup4\n      gt\n      tag_156\n      jumpi\n      dup3\n      swap1\n      sub\n      0x1f\n      and\n      dup3\n      add\n      swap2\n    tag_154:\n      pop\n      pop\n      pop\n      pop\n      pop\n      swap1\n      dup1\n      0x01\n      add\n      dup1\n      sload\n      0x01\n      dup2\n      0x01\n      and\n      iszero\n      0x0100\n      mul\n      sub\n      and\n      0x02\n      swap1\n      div\n      dup1\n      0x1f\n      add\n      0x20\n      dup1\n      swap2\n      div\n      mul\n      0x20\n      add\n      mload(0x40)\n      swap1\n      dup2\n      add\n      0x40\n      mstore\n      dup1\n      swap3\n      swap2\n      swap1\n      dup2\n      dup2\n      mstore\n      0x20\n      add\n      dup3\n      dup1\n      sload\n      0x01\n      dup2\n      0x01\n      and\n      iszero\n      0x0100\n      mul\n      sub\n      and\n      0x02\n      swap1\n      div\n      dup1\n      iszero\n      tag_157\n      jumpi\n      dup1\n      0x1f\n      lt\n      tag_158\n      jumpi\n      0x0100\n      dup1\n      dup4\n      sload\n      div\n      mul\n      dup4\n      mstore\n      swap2\n      0x20\n      add\n      swap2\n      jump(tag_157)\n    tag_158:\n      dup3\n      add\n      swap2\n      swap1\n      0x00\n      mstore\n      keccak256(0x00, 0x20)\n      swap1\n    tag_159:\n      dup2\n      sload\n      dup2\n      mstore\n      swap1\n      0x01\n      add\n      swap1\n      0x20\n      add\n      dup1\n      dup4\n      gt\n      tag_159\n      jumpi\n      dup3\n      swap1\n      sub\n      0x1f\n      and\n      dup3\n      add\n      swap2\n    tag_157:\n      pop\n      pop\n      pop\n      pop\n      pop\n      swap1\n      dup1\n      0x02\n      add\n      sload\n      swap1\n      dup1\n      0x03\n      add\n      sload\n      swap1\n      dup1\n      0x04\n      add\n      0x00\n      swap1\n      sload\n      swap1\n      0x0100\n      exp\n      swap1\n      div\n      0xffffffffffffffffffffffffffffffffffffffff\n      and\n      swap1\n      dup1\n      0x04\n      add\n      0x14\n      swap1\n      sload\n      swap1\n      0x0100\n      exp\n      swap1\n      div\n      0xff\n      and\n      swap1\n      pop\n      dup7\n      jump\t// out\n        /* \"contracts/carboncredits.sol\":2832:3124  function getCreditHolders() public view returns (CarbonCreditHolder[] memory) {... */\n    tag_61:\n        /* \"contracts/carboncredits.sol\":2881:2908  CarbonCreditHolder[] memory */\n      0x60\n        /* \"contracts/carboncredits.sol\":2920:2951  CarbonCreditHolder[] memory ret */\n      0x00\n        /* \"contracts/carboncredits.sol\":2979:2994  totalRegistered */\n      sload(0x01)\n        /* \"contracts/carboncredits.sol\":2954:2995  new CarbonCreditHolder[](totalRegistered) */\n      0xffffffffffffffff\n      dup2\n      gt\n      dup1\n      iszero\n      tag_161\n      jumpi\n      0x00\n      dup1\n      revert\n    tag_161:\n      pop\n      mload(0x40)\n      swap1\n      dup1\n      dup3\n      mstore\n      dup1\n      0x20\n      mul\n      0x20\n      add\n      dup3\n      add\n      0x40\n      mstore\n      dup1\n      iszero\n      tag_162\n      jumpi\n      dup2\n      0x20\n      add\n    tag_163:\n      tag_164\n      tag_165\n      jump\t// in\n    tag_164:\n      dup2\n      mstore\n      0x20\n      add\n      swap1\n      0x01\n      swap1\n      sub\n      swap1\n      dup2\n      tag_163\n      jumpi\n      swap1\n      pop\n    tag_162:\n      pop\n        /* \"contracts/carboncredits.sol\":2920:2995  CarbonCreditHolder[] memory ret = new CarbonCreditHolder[](totalRegistered) */\n      swap1\n      pop\n        /* \"contracts/carboncredits.sol\":3010:3016  uint i */\n      0x00\n        /* \"contracts/carboncredits.sol\":3005:3098  for (uint i = 0; i < totalRegistered; i++) {... */\n    tag_166:\n        /* \"contracts/carboncredits.sol\":3026:3041  totalRegistered */\n      sload(0x01)\n        /* \"contracts/carboncredits.sol\":3022:3023  i */\n      dup2\n        /* \"contracts/carboncredits.sol\":3022:3041  i < totalRegistered */\n      lt\n        /* \"contracts/carboncredits.sol\":3005:3098  for (uint i = 0; i < totalRegistered; i++) {... */\n      iszero\n      tag_167\n      jumpi\n        /* \"contracts/carboncredits.sol\":3071:3084  CreditHolders */\n      0x04\n        /* \"contracts/carboncredits.sol\":3071:3087  CreditHolders[i] */\n      0x00\n        /* \"contracts/carboncredits.sol\":3085:3086  i */\n      dup3\n        /* \"contracts/carboncredits.sol\":3071:3087  CreditHolders[i] */\n      dup2\n      mstore\n      0x20\n      add\n      swap1\n      dup2\n      mstore\n      0x20\n      add\n      0x00\n      keccak256\n        /* \"contracts/carboncredits.sol\":3062:3087  ret[i] = CreditHolders[i] */\n      mload(0x40)\n      dup1\n      0xe0\n      add\n      0x40\n      mstore\n      swap1\n      dup2\n      0x00\n      dup3\n      add\n      dup1\n      sload\n      0x01\n      dup2\n      0x01\n      and\n      iszero\n      0x0100\n      mul\n      sub\n      and\n      0x02\n      swap1\n      div\n      dup1\n      0x1f\n      add\n      0x20\n      dup1\n      swap2\n      div\n      mul\n      0x20\n      add\n      mload(0x40)\n      swap1\n      dup2\n      add\n      0x40\n      mstore\n      dup1\n      swap3\n      swap2\n      swap1\n      dup2\n      dup2\n      mstore\n      0x20\n      add\n      dup3\n      dup1\n      sload\n      0x01\n      dup2\n      0x01\n      and\n      iszero\n      0x0100\n      mul\n      sub\n      and\n      0x02\n      swap1\n      div\n      dup1\n      iszero\n      tag_169\n      jumpi\n      dup1\n      0x1f\n      lt\n      tag_170\n      jumpi\n      0x0100\n      dup1\n      dup4\n      sload\n      div\n      mul\n      dup4\n      mstore\n      swap2\n      0x20\n      add\n      swap2\n      jump(tag_169)\n    tag_170:\n      dup3\n      add\n      swap2\n      swap1\n      0x00\n      mstore\n      keccak256(0x00, 0x20)\n      swap1\n    tag_171:\n      dup2\n      sload\n      dup2\n      mstore\n      swap1\n      0x01\n      add\n      swap1\n      0x20\n      add\n      dup1\n      dup4\n      gt\n      tag_171\n      jumpi\n      dup3\n      swap1\n      sub\n      0x1f\n      and\n      dup3\n      add\n      swap2\n    tag_169:\n      pop\n      pop\n      pop\n      pop\n      pop\n      dup2\n      mstore\n      0x20\n      add\n      0x01\n      dup3\n      add\n      sload\n      dup2\n      mstore\n      0x20\n      add\n      0x02\n      dup3\n      add\n      sload\n      dup2\n      mstore\n      0x20\n      add\n      0x03\n      dup3\n      add\n      sload\n      dup2\n      mstore\n      0x20\n      add\n      0x04\n      dup3\n      add\n      sload\n      dup2\n      mstore\n      0x20\n      add\n      0x05\n      dup3\n      add\n      sload\n      dup2\n      mstore\n      0x20\n      add\n      0x06\n      dup3\n      add\n      0x00\n      swap1\n      sload\n      swap1\n      0x0100\n      exp\n      swap1\n      div\n      0xffffffffffffffffffffffffffffffffffffffff\n      and\n      0xffffffffffffffffffffffffffffffffffffffff\n      and\n      0xffffffffffffffffffffffffffffffffffffffff\n      and\n      dup2\n      mstore\n      pop\n      pop\n        /* \"contracts/carboncredits.sol\":3062:3065  ret */\n      dup3\n        /* \"contracts/carboncredits.sol\":3066:3067  i */\n      dup3\n        /* \"contracts/carboncredits.sol\":3062:3068  ret[i] */\n      dup2\n      mload\n      dup2\n      lt\n      tag_172\n      jumpi\n      invalid\n    tag_172:\n      0x20\n      mul\n      0x20\n      add\n      add\n        /* \"contracts/carboncredits.sol\":3062:3087  ret[i] = CreditHolders[i] */\n      dup2\n      swap1\n      mstore\n      pop\n        /* \"contracts/carboncredits.sol\":3043:3046  i++ */\n      dup1\n      dup1\n      0x01\n      add\n      swap2\n      pop\n      pop\n        /* \"contracts/carboncredits.sol\":3005:3098  for (uint i = 0; i < totalRegistered; i++) {... */\n      jump(tag_166)\n    tag_167:\n      pop\n        /* \"contracts/carboncredits.sol\":3114:3117  ret */\n      dup1\n        /* \"contracts/carboncredits.sol\":3107:3117  return ret */\n      swap2\n      pop\n      pop\n        /* \"contracts/carboncredits.sol\":2832:3124  function getCreditHolders() public view returns (CarbonCreditHolder[] memory) {... */\n      swap1\n      jump\t// out\n        /* \"contracts/carboncredits.sol\":1006:1048  mapping(uint => customer) public customers */\n    tag_66:\n      mstore(0x20, 0x06)\n      dup1\n      0x00\n      mstore\n      keccak256(0x00, 0x40)\n      0x00\n      swap2\n      pop\n      swap1\n      pop\n      dup1\n      0x00\n      add\n      dup1\n      sload\n      0x01\n      dup2\n      0x01\n      and\n      iszero\n      0x0100\n      mul\n      sub\n      and\n      0x02\n      swap1\n      div\n      dup1\n      0x1f\n      add\n      0x20\n      dup1\n      swap2\n      div\n      mul\n      0x20\n      add\n      mload(0x40)\n      swap1\n      dup2\n      add\n      0x40\n      mstore\n      dup1\n      swap3\n      swap2\n      swap1\n      dup2\n      dup2\n      mstore\n      0x20\n      add\n      dup3\n      dup1\n      sload\n      0x01\n      dup2\n      0x01\n      and\n      iszero\n      0x0100\n      mul\n      sub\n      and\n      0x02\n      swap1\n      div\n      dup1\n      iszero\n      tag_173\n      jumpi\n      dup1\n      0x1f\n      lt\n      tag_174\n      jumpi\n      0x0100\n      dup1\n      dup4\n      sload\n      div\n      mul\n      dup4\n      mstore\n      swap2\n      0x20\n      add\n      swap2\n      jump(tag_173)\n    tag_174:\n      dup3\n      add\n      swap2\n      swap1\n      0x00\n      mstore\n      keccak256(0x00, 0x20)\n      swap1\n    tag_175:\n      dup2\n      sload\n      dup2\n      mstore\n      swap1\n      0x01\n      add\n      swap1\n      0x20\n      add\n      dup1\n      dup4\n      gt\n      tag_175\n      jumpi\n      dup3\n      swap1\n      sub\n      0x1f\n      and\n      dup3\n      add\n      swap2\n    tag_173:\n      pop\n      pop\n      pop\n      pop\n      pop\n      swap1\n      dup1\n      0x01\n      add\n      dup1\n      sload\n      0x01\n      dup2\n      0x01\n      and\n      iszero\n      0x0100\n      mul\n      sub\n      and\n      0x02\n      swap1\n      div\n      dup1\n      0x1f\n      add\n      0x20\n      dup1\n      swap2\n      div\n      mul\n      0x20\n      add\n      mload(0x40)\n      swap1\n      dup2\n      add\n      0x40\n      mstore\n      dup1\n      swap3\n      swap2\n      swap1\n      dup2\n      dup2\n      mstore\n      0x20\n      add\n      dup3\n      dup1\n      sload\n      0x01\n      dup2\n      0x01\n      and\n      iszero\n      0x0100\n      mul\n      sub\n      and\n      0x02\n      swap1\n      div\n      dup1\n      iszero\n      tag_176\n      jumpi\n      dup1\n      0x1f\n      lt\n      tag_177\n      jumpi\n      0x0100\n      dup1\n      dup4\n      sload\n      div\n      mul\n      dup4\n      mstore\n      swap2\n      0x20\n      add\n      swap2\n      jump(tag_176)\n    tag_177:\n      dup3\n      add\n      swap2\n      swap1\n      0x00\n      mstore\n      keccak256(0x00, 0x20)\n      swap1\n    tag_178:\n      dup2\n      sload\n      dup2\n      mstore\n      swap1\n      0x01\n      add\n      swap1\n      0x20\n      add\n      dup1\n      dup4\n      gt\n      tag_178\n      jumpi\n      dup3\n      swap1\n      sub\n      0x1f\n      and\n      dup3\n      add\n      swap2\n    tag_176:\n      pop\n      pop\n      pop\n      pop\n      pop\n      swap1\n      dup1\n      0x02\n      add\n      dup1\n      sload\n      0x01\n      dup2\n      0x01\n      and\n      iszero\n      0x0100\n      mul\n      sub\n      and\n      0x02\n      swap1\n      div\n      dup1\n      0x1f\n      add\n      0x20\n      dup1\n      swap2\n      div\n      mul\n      0x20\n      add\n      mload(0x40)\n      swap1\n      dup2\n      add\n      0x40\n      mstore\n      dup1\n      swap3\n      swap2\n      swap1\n      dup2\n      dup2\n      mstore\n      0x20\n      add\n      dup3\n      dup1\n      sload\n      0x01\n      dup2\n      0x01\n      and\n      iszero\n      0x0100\n      mul\n      sub\n      and\n      0x02\n      swap1\n      div\n      dup1\n      iszero\n      tag_179\n      jumpi\n      dup1\n      0x1f\n      lt\n      tag_180\n      jumpi\n      0x0100\n      dup1\n      dup4\n      sload\n      div\n      mul\n      dup4\n      mstore\n      swap2\n      0x20\n      add\n      swap2\n      jump(tag_179)\n    tag_180:\n      dup3\n      add\n      swap2\n      swap1\n      0x00\n      mstore\n      keccak256(0x00, 0x20)\n      swap1\n    tag_181:\n      dup2\n      sload\n      dup2\n      mstore\n      swap1\n      0x01\n      add\n      swap1\n      0x20\n      add\n      dup1\n      dup4\n      gt\n      tag_181\n      jumpi\n      dup3\n      swap1\n      sub\n      0x1f\n      and\n      dup3\n      add\n      swap2\n    tag_179:\n      pop\n      pop\n      pop\n      pop\n      pop\n      swap1\n      dup1\n      0x03\n      add\n      sload\n      swap1\n      dup1\n      0x04\n      add\n      sload\n      swap1\n      pop\n      dup6\n      jump\t// out\n        /* \"https://github.com/OpenZeppelin/openzeppelin-contracts/blob/v3.4.0/contracts/access/Ownable.sol\":2011:2251  function transferOwnership(address newOwner) public virtual onlyOwner {... */\n    tag_71:\n        /* \"https://github.com/OpenZeppelin/openzeppelin-contracts/blob/v3.4.0/contracts/access/Ownable.sol\":1308:1320  _msgSender() */\n      tag_183\n        /* \"https://github.com/OpenZeppelin/openzeppelin-contracts/blob/v3.4.0/contracts/access/Ownable.sol\":1308:1318  _msgSender */\n      tag_79\n        /* \"https://github.com/OpenZeppelin/openzeppelin-contracts/blob/v3.4.0/contracts/access/Ownable.sol\":1308:1320  _msgSender() */\n      jump\t// in\n    tag_183:\n        /* \"https://github.com/OpenZeppelin/openzeppelin-contracts/blob/v3.4.0/contracts/access/Ownable.sol\":1297:1320  owner() == _msgSender() */\n      0xffffffffffffffffffffffffffffffffffffffff\n      and\n        /* \"https://github.com/OpenZeppelin/openzeppelin-contracts/blob/v3.4.0/contracts/access/Ownable.sol\":1297:1304  owner() */\n      tag_184\n        /* \"https://github.com/OpenZeppelin/openzeppelin-contracts/blob/v3.4.0/contracts/access/Ownable.sol\":1297:1302  owner */\n      tag_44\n        /* \"https://github.com/OpenZeppelin/openzeppelin-contracts/blob/v3.4.0/contracts/access/Ownable.sol\":1297:1304  owner() */\n      jump\t// in\n    tag_184:\n        /* \"https://github.com/OpenZeppelin/openzeppelin-contracts/blob/v3.4.0/contracts/access/Ownable.sol\":1297:1320  owner() == _msgSender() */\n      0xffffffffffffffffffffffffffffffffffffffff\n      and\n      eq\n        /* \"https://github.com/OpenZeppelin/openzeppelin-contracts/blob/v3.4.0/contracts/access/Ownable.sol\":1289:1357  require(owner() == _msgSender(), \"Ownable: caller is not the owner\") */\n      tag_185\n      jumpi\n      mload(0x40)\n      0x08c379a000000000000000000000000000000000000000000000000000000000\n      dup2\n      mstore\n      0x04\n      add\n      dup1\n      dup1\n      0x20\n      add\n      dup3\n      dup2\n      sub\n      dup3\n      mstore\n      0x20\n      dup2\n      mstore\n      0x20\n      add\n      dup1\n      0x4f776e61626c653a2063616c6c6572206973206e6f7420746865206f776e6572\n      dup2\n      mstore\n      pop\n      0x20\n      add\n      swap2\n      pop\n      pop\n      mload(0x40)\n      dup1\n      swap2\n      sub\n      swap1\n      revert\n    tag_185:\n        /* \"https://github.com/OpenZeppelin/openzeppelin-contracts/blob/v3.4.0/contracts/access/Ownable.sol\":2119:2120  0 */\n      0x00\n        /* \"https://github.com/OpenZeppelin/openzeppelin-contracts/blob/v3.4.0/contracts/access/Ownable.sol\":2099:2121  newOwner != address(0) */\n      0xffffffffffffffffffffffffffffffffffffffff\n      and\n        /* \"https://github.com/OpenZeppelin/openzeppelin-contracts/blob/v3.4.0/contracts/access/Ownable.sol\":2099:2107  newOwner */\n      dup2\n        /* \"https://github.com/OpenZeppelin/openzeppelin-contracts/blob/v3.4.0/contracts/access/Ownable.sol\":2099:2121  newOwner != address(0) */\n      0xffffffffffffffffffffffffffffffffffffffff\n      and\n      eq\n      iszero\n        /* \"https://github.com/OpenZeppelin/openzeppelin-contracts/blob/v3.4.0/contracts/access/Ownable.sol\":2091:2164  require(newOwner != address(0), \"Ownable: new owner is the zero address\") */\n      tag_187\n      jumpi\n      mload(0x40)\n      0x08c379a000000000000000000000000000000000000000000000000000000000\n      dup2\n      mstore\n      0x04\n      add\n      dup1\n      dup1\n      0x20\n      add\n      dup3\n      dup2\n      sub\n      dup3\n      mstore\n      0x26\n      dup2\n      mstore\n      0x20\n      add\n      dup1\n      data_245f15ff17f551913a7a18385165551503906a406f905ac1c2437281a7cd0cfe\n      0x26\n      swap2\n      codecopy\n      0x40\n      add\n      swap2\n      pop\n      pop\n      mload(0x40)\n      dup1\n      swap2\n      sub\n      swap1\n      revert\n    tag_187:\n        /* \"https://github.com/OpenZeppelin/openzeppelin-contracts/blob/v3.4.0/contracts/access/Ownable.sol\":2208:2216  newOwner */\n      dup1\n        /* \"https://github.com/OpenZeppelin/openzeppelin-contracts/blob/v3.4.0/contracts/access/Ownable.sol\":2179:2217  OwnershipTransferred(_owner, newOwner) */\n      0xffffffffffffffffffffffffffffffffffffffff\n      and\n        /* \"https://github.com/OpenZeppelin/openzeppelin-contracts/blob/v3.4.0/contracts/access/Ownable.sol\":2200:2206  _owner */\n      0x00\n      dup1\n      sload\n      swap1\n      0x0100\n      exp\n      swap1\n      div\n      0xffffffffffffffffffffffffffffffffffffffff\n      and\n        /* \"https://github.com/OpenZeppelin/openzeppelin-contracts/blob/v3.4.0/contracts/access/Ownable.sol\":2179:2217  OwnershipTransferred(_owner, newOwner) */\n      0xffffffffffffffffffffffffffffffffffffffff\n      and\n      0x8be0079c531659141344cd1fd0a4f28419497f9722a3daafe3b4186f6b6457e0\n      mload(0x40)\n      mload(0x40)\n      dup1\n      swap2\n      sub\n      swap1\n      log3\n        /* \"https://github.com/OpenZeppelin/openzeppelin-contracts/blob/v3.4.0/contracts/access/Ownable.sol\":2236:2244  newOwner */\n      dup1\n        /* \"https://github.com/OpenZeppelin/openzeppelin-contracts/blob/v3.4.0/contracts/access/Ownable.sol\":2227:2233  _owner */\n      0x00\n      dup1\n        /* \"https://github.com/OpenZeppelin/openzeppelin-contracts/blob/v3.4.0/contracts/access/Ownable.sol\":2227:2244  _owner = newOwner */\n      0x0100\n      exp\n      dup2\n      sload\n      dup2\n      0xffffffffffffffffffffffffffffffffffffffff\n      mul\n      not\n      and\n      swap1\n      dup4\n      0xffffffffffffffffffffffffffffffffffffffff\n      and\n      mul\n      or\n      swap1\n      sstore\n      pop\n        /* \"https://github.com/OpenZeppelin/openzeppelin-contracts/blob/v3.4.0/contracts/access/Ownable.sol\":2011:2251  function transferOwnership(address newOwner) public virtual onlyOwner {... */\n      pop\n      jump\t// out\n        /* \"https://github.com/OpenZeppelin/openzeppelin-contracts/blob/v3.4.0/contracts/utils/Context.sol\":598:702  function _msgSender() internal view virtual returns (address payable) {... */\n    tag_79:\n        /* \"https://github.com/OpenZeppelin/openzeppelin-contracts/blob/v3.4.0/contracts/utils/Context.sol\":651:666  address payable */\n      0x00\n        /* \"https://github.com/OpenZeppelin/openzeppelin-contracts/blob/v3.4.0/contracts/utils/Context.sol\":685:695  msg.sender */\n      caller\n        /* \"https://github.com/OpenZeppelin/openzeppelin-contracts/blob/v3.4.0/contracts/utils/Context.sol\":678:695  return msg.sender */\n      swap1\n      pop\n        /* \"https://github.com/OpenZeppelin/openzeppelin-contracts/blob/v3.4.0/contracts/utils/Context.sol\":598:702  function _msgSender() internal view virtual returns (address payable) {... */\n      swap1\n      jump\t// out\n    tag_74:\n      dup3\n      dup1\n      sload\n      0x01\n      dup2\n      0x01\n      and\n      iszero\n      0x0100\n      mul\n      sub\n      and\n      0x02\n      swap1\n      div\n      swap1\n      0x00\n      mstore\n      keccak256(0x00, 0x20)\n      swap1\n      0x1f\n      add\n      0x20\n      swap1\n      div\n      dup2\n      add\n      swap3\n      dup3\n      tag_190\n      jumpi\n      0x00\n      dup6\n      sstore\n      jump(tag_189)\n    tag_190:\n      dup3\n      0x1f\n      lt\n      tag_191\n      jumpi\n      dup1\n      mload\n      not(0xff)\n      and\n      dup4\n      dup1\n      add\n      or\n      dup6\n      sstore\n      jump(tag_189)\n    tag_191:\n      dup3\n      dup1\n      add\n      0x01\n      add\n      dup6\n      sstore\n      dup3\n      iszero\n      tag_189\n      jumpi\n      swap2\n      dup3\n      add\n    tag_192:\n      dup3\n      dup2\n      gt\n      iszero\n      tag_193\n      jumpi\n      dup3\n      mload\n      dup3\n      sstore\n      swap2\n      0x20\n      add\n      swap2\n      swap1\n      0x01\n      add\n      swap1\n      jump(tag_192)\n    tag_193:\n    tag_189:\n      pop\n      swap1\n      pop\n      tag_194\n      swap2\n      swap1\n      tag_195\n      jump\t// in\n    tag_194:\n      pop\n      swap1\n      jump\t// out\n    tag_87:\n      mload(0x40)\n      dup1\n      0xa0\n      add\n      0x40\n      mstore\n      dup1\n      0x60\n      dup2\n      mstore\n      0x20\n      add\n      0x60\n      dup2\n      mstore\n      0x20\n      add\n      0x60\n      dup2\n      mstore\n      0x20\n      add\n      0x00\n      dup2\n      mstore\n      0x20\n      add\n      0x00\n      dup2\n      mstore\n      pop\n      swap1\n      jump\t// out\n    tag_143:\n      mload(0x40)\n      dup1\n      0xc0\n      add\n      0x40\n      mstore\n      dup1\n      0x60\n      dup2\n      mstore\n      0x20\n      add\n      0x60\n      dup2\n      mstore\n      0x20\n      add\n      0x00\n      dup2\n      mstore\n      0x20\n      add\n      0x00\n      dup2\n      mstore\n      0x20\n      add\n      and(0xffffffffffffffffffffffffffffffffffffffff, 0x00)\n      dup2\n      mstore\n      0x20\n      add\n      iszero(iszero(0x00))\n      dup2\n      mstore\n      pop\n      swap1\n      jump\t// out\n    tag_165:\n      mload(0x40)\n      dup1\n      0xe0\n      add\n      0x40\n      mstore\n      dup1\n      0x60\n      dup2\n      mstore\n      0x20\n      add\n      0x00\n      dup2\n      mstore\n      0x20\n      add\n      0x00\n      dup2\n      mstore\n      0x20\n      add\n      0x00\n      dup2\n      mstore\n      0x20\n      add\n      0x00\n      dup2\n      mstore\n      0x20\n      add\n      0x00\n      dup2\n      mstore\n      0x20\n      add\n      and(0xffffffffffffffffffffffffffffffffffffffff, 0x00)\n      dup2\n      mstore\n      pop\n      swap1\n      jump\t// out\n    tag_195:\n    tag_196:\n      dup1\n      dup3\n      gt\n      iszero\n      tag_197\n      jumpi\n      0x00\n      dup2\n      0x00\n      swap1\n      sstore\n      pop\n      0x01\n      add\n      jump(tag_196)\n    tag_197:\n      pop\n      swap1\n      jump\t// out\n        /* \"#utility.yul\":7:351   */\n    tag_199:\n      0x00\n        /* \"#utility.yul\":110:175   */\n      tag_201\n        /* \"#utility.yul\":125:174   */\n      tag_202\n        /* \"#utility.yul\":167:173   */\n      dup5\n        /* \"#utility.yul\":125:174   */\n      tag_203\n      jump\t// in\n    tag_202:\n        /* \"#utility.yul\":110:175   */\n      tag_204\n      jump\t// in\n    tag_201:\n        /* \"#utility.yul\":101:175   */\n      swap1\n      pop\n        /* \"#utility.yul\":198:204   */\n      dup3\n        /* \"#utility.yul\":191:196   */\n      dup2\n        /* \"#utility.yul\":184:205   */\n      mstore\n        /* \"#utility.yul\":236:240   */\n      0x20\n        /* \"#utility.yul\":229:234   */\n      dup2\n        /* \"#utility.yul\":225:241   */\n      add\n        /* \"#utility.yul\":274:277   */\n      dup5\n        /* \"#utility.yul\":265:271   */\n      dup5\n        /* \"#utility.yul\":260:263   */\n      dup5\n        /* \"#utility.yul\":256:272   */\n      add\n        /* \"#utility.yul\":253:278   */\n      gt\n        /* \"#utility.yul\":250:252   */\n      iszero\n      tag_205\n      jumpi\n        /* \"#utility.yul\":291:292   */\n      0x00\n        /* \"#utility.yul\":288:289   */\n      dup1\n        /* \"#utility.yul\":281:293   */\n      revert\n        /* \"#utility.yul\":250:252   */\n    tag_205:\n        /* \"#utility.yul\":304:345   */\n      tag_206\n        /* \"#utility.yul\":338:344   */\n      dup5\n        /* \"#utility.yul\":333:336   */\n      dup3\n        /* \"#utility.yul\":328:331   */\n      dup6\n        /* \"#utility.yul\":304:345   */\n      tag_207\n      jump\t// in\n    tag_206:\n        /* \"#utility.yul\":91:351   */\n      pop\n      swap4\n      swap3\n      pop\n      pop\n      pop\n      jump\t// out\n        /* \"#utility.yul\":357:496   */\n    tag_208:\n      0x00\n        /* \"#utility.yul\":441:447   */\n      dup2\n        /* \"#utility.yul\":428:448   */\n      calldataload\n        /* \"#utility.yul\":419:448   */\n      swap1\n      pop\n        /* \"#utility.yul\":457:490   */\n      tag_210\n        /* \"#utility.yul\":484:489   */\n      dup2\n        /* \"#utility.yul\":457:490   */\n      tag_211\n      jump\t// in\n    tag_210:\n        /* \"#utility.yul\":409:496   */\n      swap3\n      swap2\n      pop\n      pop\n      jump\t// out\n        /* \"#utility.yul\":516:789   */\n    tag_212:\n      0x00\n        /* \"#utility.yul\":621:624   */\n      dup3\n        /* \"#utility.yul\":614:618   */\n      0x1f\n        /* \"#utility.yul\":606:612   */\n      dup4\n        /* \"#utility.yul\":602:619   */\n      add\n        /* \"#utility.yul\":598:625   */\n      slt\n        /* \"#utility.yul\":588:590   */\n      tag_214\n      jumpi\n        /* \"#utility.yul\":639:640   */\n      0x00\n        /* \"#utility.yul\":636:637   */\n      dup1\n        /* \"#utility.yul\":629:641   */\n      revert\n        /* \"#utility.yul\":588:590   */\n    tag_214:\n        /* \"#utility.yul\":679:685   */\n      dup2\n        /* \"#utility.yul\":666:686   */\n      calldataload\n        /* \"#utility.yul\":704:783   */\n      tag_215\n        /* \"#utility.yul\":779:782   */\n      dup5\n        /* \"#utility.yul\":771:777   */\n      dup3\n        /* \"#utility.yul\":764:768   */\n      0x20\n        /* \"#utility.yul\":756:762   */\n      dup7\n        /* \"#utility.yul\":752:769   */\n      add\n        /* \"#utility.yul\":704:783   */\n      tag_199\n      jump\t// in\n    tag_215:\n        /* \"#utility.yul\":695:783   */\n      swap2\n      pop\n        /* \"#utility.yul\":578:789   */\n      pop\n      swap3\n      swap2\n      pop\n      pop\n      jump\t// out\n        /* \"#utility.yul\":795:934   */\n    tag_216:\n      0x00\n        /* \"#utility.yul\":879:885   */\n      dup2\n        /* \"#utility.yul\":866:886   */\n      calldataload\n        /* \"#utility.yul\":857:886   */\n      swap1\n      pop\n        /* \"#utility.yul\":895:928   */\n      tag_218\n        /* \"#utility.yul\":922:927   */\n      dup2\n        /* \"#utility.yul\":895:928   */\n      tag_219\n      jump\t// in\n    tag_218:\n        /* \"#utility.yul\":847:934   */\n      swap3\n      swap2\n      pop\n      pop\n      jump\t// out\n        /* \"#utility.yul\":940:1202   */\n    tag_24:\n      0x00\n        /* \"#utility.yul\":1048:1050   */\n      0x20\n        /* \"#utility.yul\":1036:1045   */\n      dup3\n        /* \"#utility.yul\":1027:1034   */\n      dup5\n        /* \"#utility.yul\":1023:1046   */\n      sub\n        /* \"#utility.yul\":1019:1051   */\n      slt\n        /* \"#utility.yul\":1016:1018   */\n      iszero\n      tag_221\n      jumpi\n        /* \"#utility.yul\":1064:1065   */\n      0x00\n        /* \"#utility.yul\":1061:1062   */\n      dup1\n        /* \"#utility.yul\":1054:1066   */\n      revert\n        /* \"#utility.yul\":1016:1018   */\n    tag_221:\n        /* \"#utility.yul\":1107:1108   */\n      0x00\n        /* \"#utility.yul\":1132:1185   */\n      tag_222\n        /* \"#utility.yul\":1177:1184   */\n      dup5\n        /* \"#utility.yul\":1168:1174   */\n      dup3\n        /* \"#utility.yul\":1157:1166   */\n      dup6\n        /* \"#utility.yul\":1153:1175   */\n      add\n        /* \"#utility.yul\":1132:1185   */\n      tag_208\n      jump\t// in\n    tag_222:\n        /* \"#utility.yul\":1122:1185   */\n      swap2\n      pop\n        /* \"#utility.yul\":1078:1195   */\n      pop\n        /* \"#utility.yul\":1006:1202   */\n      swap3\n      swap2\n      pop\n      pop\n      jump\t// out\n        /* \"#utility.yul\":1208:2245   */\n    tag_38:\n      0x00\n      dup1\n      0x00\n      dup1\n        /* \"#utility.yul\":1397:1400   */\n      0x80\n        /* \"#utility.yul\":1385:1394   */\n      dup6\n        /* \"#utility.yul\":1376:1383   */\n      dup8\n        /* \"#utility.yul\":1372:1395   */\n      sub\n        /* \"#utility.yul\":1368:1401   */\n      slt\n        /* \"#utility.yul\":1365:1367   */\n      iszero\n      tag_224\n      jumpi\n        /* \"#utility.yul\":1414:1415   */\n      0x00\n        /* \"#utility.yul\":1411:1412   */\n      dup1\n        /* \"#utility.yul\":1404:1416   */\n      revert\n        /* \"#utility.yul\":1365:1367   */\n    tag_224:\n        /* \"#utility.yul\":1485:1486   */\n      0x00\n        /* \"#utility.yul\":1474:1483   */\n      dup6\n        /* \"#utility.yul\":1470:1487   */\n      add\n        /* \"#utility.yul\":1457:1488   */\n      calldataload\n        /* \"#utility.yul\":1515:1533   */\n      0xffffffffffffffff\n        /* \"#utility.yul\":1507:1513   */\n      dup2\n        /* \"#utility.yul\":1504:1534   */\n      gt\n        /* \"#utility.yul\":1501:1503   */\n      iszero\n      tag_225\n      jumpi\n        /* \"#utility.yul\":1547:1548   */\n      0x00\n        /* \"#utility.yul\":1544:1545   */\n      dup1\n        /* \"#utility.yul\":1537:1549   */\n      revert\n        /* \"#utility.yul\":1501:1503   */\n    tag_225:\n        /* \"#utility.yul\":1575:1638   */\n      tag_226\n        /* \"#utility.yul\":1630:1637   */\n      dup8\n        /* \"#utility.yul\":1621:1627   */\n      dup3\n        /* \"#utility.yul\":1610:1619   */\n      dup9\n        /* \"#utility.yul\":1606:1628   */\n      add\n        /* \"#utility.yul\":1575:1638   */\n      tag_212\n      jump\t// in\n    tag_226:\n        /* \"#utility.yul\":1565:1638   */\n      swap5\n      pop\n        /* \"#utility.yul\":1428:1648   */\n      pop\n        /* \"#utility.yul\":1715:1717   */\n      0x20\n        /* \"#utility.yul\":1704:1713   */\n      dup6\n        /* \"#utility.yul\":1700:1718   */\n      add\n        /* \"#utility.yul\":1687:1719   */\n      calldataload\n        /* \"#utility.yul\":1746:1764   */\n      0xffffffffffffffff\n        /* \"#utility.yul\":1738:1744   */\n      dup2\n        /* \"#utility.yul\":1735:1765   */\n      gt\n        /* \"#utility.yul\":1732:1734   */\n      iszero\n      tag_227\n      jumpi\n        /* \"#utility.yul\":1778:1779   */\n      0x00\n        /* \"#utility.yul\":1775:1776   */\n      dup1\n        /* \"#utility.yul\":1768:1780   */\n      revert\n        /* \"#utility.yul\":1732:1734   */\n    tag_227:\n        /* \"#utility.yul\":1806:1869   */\n      tag_228\n        /* \"#utility.yul\":1861:1868   */\n      dup8\n        /* \"#utility.yul\":1852:1858   */\n      dup3\n        /* \"#utility.yul\":1841:1850   */\n      dup9\n        /* \"#utility.yul\":1837:1859   */\n      add\n        /* \"#utility.yul\":1806:1869   */\n      tag_212\n      jump\t// in\n    tag_228:\n        /* \"#utility.yul\":1796:1869   */\n      swap4\n      pop\n        /* \"#utility.yul\":1658:1879   */\n      pop\n        /* \"#utility.yul\":1946:1948   */\n      0x40\n        /* \"#utility.yul\":1935:1944   */\n      dup6\n        /* \"#utility.yul\":1931:1949   */\n      add\n        /* \"#utility.yul\":1918:1950   */\n      calldataload\n        /* \"#utility.yul\":1977:1995   */\n      0xffffffffffffffff\n        /* \"#utility.yul\":1969:1975   */\n      dup2\n        /* \"#utility.yul\":1966:1996   */\n      gt\n        /* \"#utility.yul\":1963:1965   */\n      iszero\n      tag_229\n      jumpi\n        /* \"#utility.yul\":2009:2010   */\n      0x00\n        /* \"#utility.yul\":2006:2007   */\n      dup1\n        /* \"#utility.yul\":1999:2011   */\n      revert\n        /* \"#utility.yul\":1963:1965   */\n    tag_229:\n        /* \"#utility.yul\":2037:2100   */\n      tag_230\n        /* \"#utility.yul\":2092:2099   */\n      dup8\n        /* \"#utility.yul\":2083:2089   */\n      dup3\n        /* \"#utility.yul\":2072:2081   */\n      dup9\n        /* \"#utility.yul\":2068:2090   */\n      add\n        /* \"#utility.yul\":2037:2100   */\n      tag_212\n      jump\t// in\n    tag_230:\n        /* \"#utility.yul\":2027:2100   */\n      swap3\n      pop\n        /* \"#utility.yul\":1889:2110   */\n      pop\n        /* \"#utility.yul\":2149:2151   */\n      0x60\n        /* \"#utility.yul\":2175:2228   */\n      tag_231\n        /* \"#utility.yul\":2220:2227   */\n      dup8\n        /* \"#utility.yul\":2211:2217   */\n      dup3\n        /* \"#utility.yul\":2200:2209   */\n      dup9\n        /* \"#utility.yul\":2196:2218   */\n      add\n        /* \"#utility.yul\":2175:2228   */\n      tag_216\n      jump\t// in\n    tag_231:\n        /* \"#utility.yul\":2165:2228   */\n      swap2\n      pop\n        /* \"#utility.yul\":2120:2238   */\n      pop\n        /* \"#utility.yul\":1355:2245   */\n      swap3\n      swap6\n      swap2\n      swap5\n      pop\n      swap3\n      pop\n      jump\t// out\n        /* \"#utility.yul\":2251:3175   */\n    tag_49:\n      0x00\n      dup1\n      0x00\n      dup1\n        /* \"#utility.yul\":2430:2433   */\n      0x80\n        /* \"#utility.yul\":2418:2427   */\n      dup6\n        /* \"#utility.yul\":2409:2416   */\n      dup8\n        /* \"#utility.yul\":2405:2428   */\n      sub\n        /* \"#utility.yul\":2401:2434   */\n      slt\n        /* \"#utility.yul\":2398:2400   */\n      iszero\n      tag_233\n      jumpi\n        /* \"#utility.yul\":2447:2448   */\n      0x00\n        /* \"#utility.yul\":2444:2445   */\n      dup1\n        /* \"#utility.yul\":2437:2449   */\n      revert\n        /* \"#utility.yul\":2398:2400   */\n    tag_233:\n        /* \"#utility.yul\":2518:2519   */\n      0x00\n        /* \"#utility.yul\":2507:2516   */\n      dup6\n        /* \"#utility.yul\":2503:2520   */\n      add\n        /* \"#utility.yul\":2490:2521   */\n      calldataload\n        /* \"#utility.yul\":2548:2566   */\n      0xffffffffffffffff\n        /* \"#utility.yul\":2540:2546   */\n      dup2\n        /* \"#utility.yul\":2537:2567   */\n      gt\n        /* \"#utility.yul\":2534:2536   */\n      iszero\n      tag_234\n      jumpi\n        /* \"#utility.yul\":2580:2581   */\n      0x00\n        /* \"#utility.yul\":2577:2578   */\n      dup1\n        /* \"#utility.yul\":2570:2582   */\n      revert\n        /* \"#utility.yul\":2534:2536   */\n    tag_234:\n        /* \"#utility.yul\":2608:2671   */\n      tag_235\n        /* \"#utility.yul\":2663:2670   */\n      dup8\n        /* \"#utility.yul\":2654:2660   */\n      dup3\n        /* \"#utility.yul\":2643:2652   */\n      dup9\n        /* \"#utility.yul\":2639:2661   */\n      add\n        /* \"#utility.yul\":2608:2671   */\n      tag_212\n      jump\t// in\n    tag_235:\n        /* \"#utility.yul\":2598:2671   */\n      swap5\n      pop\n        /* \"#utility.yul\":2461:2681   */\n      pop\n        /* \"#utility.yul\":2748:2750   */\n      0x20\n        /* \"#utility.yul\":2737:2746   */\n      dup6\n        /* \"#utility.yul\":2733:2751   */\n      add\n        /* \"#utility.yul\":2720:2752   */\n      calldataload\n        /* \"#utility.yul\":2779:2797   */\n      0xffffffffffffffff\n        /* \"#utility.yul\":2771:2777   */\n      dup2\n        /* \"#utility.yul\":2768:2798   */\n      gt\n        /* \"#utility.yul\":2765:2767   */\n      iszero\n      tag_236\n      jumpi\n        /* \"#utility.yul\":2811:2812   */\n      0x00\n        /* \"#utility.yul\":2808:2809   */\n      dup1\n        /* \"#utility.yul\":2801:2813   */\n      revert\n        /* \"#utility.yul\":2765:2767   */\n    tag_236:\n        /* \"#utility.yul\":2839:2902   */\n      tag_237\n        /* \"#utility.yul\":2894:2901   */\n      dup8\n        /* \"#utility.yul\":2885:2891   */\n      dup3\n        /* \"#utility.yul\":2874:2883   */\n      dup9\n        /* \"#utility.yul\":2870:2892   */\n      add\n        /* \"#utility.yul\":2839:2902   */\n      tag_212\n      jump\t// in\n    tag_237:\n        /* \"#utility.yul\":2829:2902   */\n      swap4\n      pop\n        /* \"#utility.yul\":2691:2912   */\n      pop\n        /* \"#utility.yul\":2951:2953   */\n      0x40\n        /* \"#utility.yul\":2977:3030   */\n      tag_238\n        /* \"#utility.yul\":3022:3029   */\n      dup8\n        /* \"#utility.yul\":3013:3019   */\n      dup3\n        /* \"#utility.yul\":3002:3011   */\n      dup9\n        /* \"#utility.yul\":2998:3020   */\n      add\n        /* \"#utility.yul\":2977:3030   */\n      tag_216\n      jump\t// in\n    tag_238:\n        /* \"#utility.yul\":2967:3030   */\n      swap3\n      pop\n        /* \"#utility.yul\":2922:3040   */\n      pop\n        /* \"#utility.yul\":3079:3081   */\n      0x60\n        /* \"#utility.yul\":3105:3158   */\n      tag_239\n        /* \"#utility.yul\":3150:3157   */\n      dup8\n        /* \"#utility.yul\":3141:3147   */\n      dup3\n        /* \"#utility.yul\":3130:3139   */\n      dup9\n        /* \"#utility.yul\":3126:3148   */\n      add\n        /* \"#utility.yul\":3105:3158   */\n      tag_216\n      jump\t// in\n    tag_239:\n        /* \"#utility.yul\":3095:3158   */\n      swap2\n      pop\n        /* \"#utility.yul\":3050:3168   */\n      pop\n        /* \"#utility.yul\":2388:3175   */\n      swap3\n      swap6\n      swap2\n      swap5\n      pop\n      swap3\n      pop\n      jump\t// out\n        /* \"#utility.yul\":3181:4138   */\n    tag_20:\n      0x00\n      dup1\n      0x00\n      dup1\n      0x00\n        /* \"#utility.yul\":3367:3370   */\n      0xa0\n        /* \"#utility.yul\":3355:3364   */\n      dup7\n        /* \"#utility.yul\":3346:3353   */\n      dup9\n        /* \"#utility.yul\":3342:3365   */\n      sub\n        /* \"#utility.yul\":3338:3371   */\n      slt\n        /* \"#utility.yul\":3335:3337   */\n      iszero\n      tag_241\n      jumpi\n        /* \"#utility.yul\":3384:3385   */\n      0x00\n        /* \"#utility.yul\":3381:3382   */\n      dup1\n        /* \"#utility.yul\":3374:3386   */\n      revert\n        /* \"#utility.yul\":3335:3337   */\n    tag_241:\n        /* \"#utility.yul\":3455:3456   */\n      0x00\n        /* \"#utility.yul\":3444:3453   */\n      dup7\n        /* \"#utility.yul\":3440:3457   */\n      add\n        /* \"#utility.yul\":3427:3458   */\n      calldataload\n        /* \"#utility.yul\":3485:3503   */\n      0xffffffffffffffff\n        /* \"#utility.yul\":3477:3483   */\n      dup2\n        /* \"#utility.yul\":3474:3504   */\n      gt\n        /* \"#utility.yul\":3471:3473   */\n      iszero\n      tag_242\n      jumpi\n        /* \"#utility.yul\":3517:3518   */\n      0x00\n        /* \"#utility.yul\":3514:3515   */\n      dup1\n        /* \"#utility.yul\":3507:3519   */\n      revert\n        /* \"#utility.yul\":3471:3473   */\n    tag_242:\n        /* \"#utility.yul\":3545:3608   */\n      tag_243\n        /* \"#utility.yul\":3600:3607   */\n      dup9\n        /* \"#utility.yul\":3591:3597   */\n      dup3\n        /* \"#utility.yul\":3580:3589   */\n      dup10\n        /* \"#utility.yul\":3576:3598   */\n      add\n        /* \"#utility.yul\":3545:3608   */\n      tag_212\n      jump\t// in\n    tag_243:\n        /* \"#utility.yul\":3535:3608   */\n      swap6\n      pop\n        /* \"#utility.yul\":3398:3618   */\n      pop\n        /* \"#utility.yul\":3657:3659   */\n      0x20\n        /* \"#utility.yul\":3683:3736   */\n      tag_244\n        /* \"#utility.yul\":3728:3735   */\n      dup9\n        /* \"#utility.yul\":3719:3725   */\n      dup3\n        /* \"#utility.yul\":3708:3717   */\n      dup10\n        /* \"#utility.yul\":3704:3726   */\n      add\n        /* \"#utility.yul\":3683:3736   */\n      tag_216\n      jump\t// in\n    tag_244:\n        /* \"#utility.yul\":3673:3736   */\n      swap5\n      pop\n        /* \"#utility.yul\":3628:3746   */\n      pop\n        /* \"#utility.yul\":3785:3787   */\n      0x40\n        /* \"#utility.yul\":3811:3864   */\n      tag_245\n        /* \"#utility.yul\":3856:3863   */\n      dup9\n        /* \"#utility.yul\":3847:3853   */\n      dup3\n        /* \"#utility.yul\":3836:3845   */\n      dup10\n        /* \"#utility.yul\":3832:3854   */\n      add\n        /* \"#utility.yul\":3811:3864   */\n      tag_216\n      jump\t// in\n    tag_245:\n        /* \"#utility.yul\":3801:3864   */\n      swap4\n      pop\n        /* \"#utility.yul\":3756:3874   */\n      pop\n        /* \"#utility.yul\":3913:3915   */\n      0x60\n        /* \"#utility.yul\":3939:3992   */\n      tag_246\n        /* \"#utility.yul\":3984:3991   */\n      dup9\n        /* \"#utility.yul\":3975:3981   */\n      dup3\n        /* \"#utility.yul\":3964:3973   */\n      dup10\n        /* \"#utility.yul\":3960:3982   */\n      add\n        /* \"#utility.yul\":3939:3992   */\n      tag_216\n      jump\t// in\n    tag_246:\n        /* \"#utility.yul\":3929:3992   */\n      swap3\n      pop\n        /* \"#utility.yul\":3884:4002   */\n      pop\n        /* \"#utility.yul\":4041:4044   */\n      0x80\n        /* \"#utility.yul\":4068:4121   */\n      tag_247\n        /* \"#utility.yul\":4113:4120   */\n      dup9\n        /* \"#utility.yul\":4104:4110   */\n      dup3\n        /* \"#utility.yul\":4093:4102   */\n      dup10\n        /* \"#utility.yul\":4089:4111   */\n      add\n        /* \"#utility.yul\":4068:4121   */\n      tag_216\n      jump\t// in\n    tag_247:\n        /* \"#utility.yul\":4058:4121   */\n      swap2\n      pop\n        /* \"#utility.yul\":4012:4131   */\n      pop\n        /* \"#utility.yul\":3325:4138   */\n      swap3\n      swap6\n      pop\n      swap3\n      swap6\n      swap1\n      swap4\n      pop\n      jump\t// out\n        /* \"#utility.yul\":4144:4406   */\n    tag_32:\n      0x00\n        /* \"#utility.yul\":4252:4254   */\n      0x20\n        /* \"#utility.yul\":4240:4249   */\n      dup3\n        /* \"#utility.yul\":4231:4238   */\n      dup5\n        /* \"#utility.yul\":4227:4250   */\n      sub\n        /* \"#utility.yul\":4223:4255   */\n      slt\n        /* \"#utility.yul\":4220:4222   */\n      iszero\n      tag_249\n      jumpi\n        /* \"#utility.yul\":4268:4269   */\n      0x00\n        /* \"#utility.yul\":4265:4266   */\n      dup1\n        /* \"#utility.yul\":4258:4270   */\n      revert\n        /* \"#utility.yul\":4220:4222   */\n    tag_249:\n        /* \"#utility.yul\":4311:4312   */\n      0x00\n        /* \"#utility.yul\":4336:4389   */\n      tag_250\n        /* \"#utility.yul\":4381:4388   */\n      dup5\n        /* \"#utility.yul\":4372:4378   */\n      dup3\n        /* \"#utility.yul\":4361:4370   */\n      dup6\n        /* \"#utility.yul\":4357:4379   */\n      add\n        /* \"#utility.yul\":4336:4389   */\n      tag_216\n      jump\t// in\n    tag_250:\n        /* \"#utility.yul\":4326:4389   */\n      swap2\n      pop\n        /* \"#utility.yul\":4282:4399   */\n      pop\n        /* \"#utility.yul\":4210:4406   */\n      swap3\n      swap2\n      pop\n      pop\n      jump\t// out\n        /* \"#utility.yul\":4412:4704   */\n    tag_251:\n      0x00\n        /* \"#utility.yul\":4584:4698   */\n      tag_253\n        /* \"#utility.yul\":4694:4697   */\n      dup4\n        /* \"#utility.yul\":4686:4692   */\n      dup4\n        /* \"#utility.yul\":4584:4698   */\n      tag_254\n      jump\t// in\n    tag_253:\n        /* \"#utility.yul\":4570:4698   */\n      swap1\n      pop\n        /* \"#utility.yul\":4560:4704   */\n      swap3\n      swap2\n      pop\n      pop\n      jump\t// out\n        /* \"#utility.yul\":4710:4962   */\n    tag_255:\n      0x00\n        /* \"#utility.yul\":4862:4956   */\n      tag_257\n        /* \"#utility.yul\":4952:4955   */\n      dup4\n        /* \"#utility.yul\":4944:4950   */\n      dup4\n        /* \"#utility.yul\":4862:4956   */\n      tag_258\n      jump\t// in\n    tag_257:\n        /* \"#utility.yul\":4848:4956   */\n      swap1\n      pop\n        /* \"#utility.yul\":4838:4962   */\n      swap3\n      swap2\n      pop\n      pop\n      jump\t// out\n        /* \"#utility.yul\":4968:5220   */\n    tag_259:\n      0x00\n        /* \"#utility.yul\":5120:5214   */\n      tag_261\n        /* \"#utility.yul\":5210:5213   */\n      dup4\n        /* \"#utility.yul\":5202:5208   */\n      dup4\n        /* \"#utility.yul\":5120:5214   */\n      tag_262\n      jump\t// in\n    tag_261:\n        /* \"#utility.yul\":5106:5214   */\n      swap1\n      pop\n        /* \"#utility.yul\":5096:5220   */\n      swap3\n      swap2\n      pop\n      pop\n      jump\t// out\n        /* \"#utility.yul\":5226:5373   */\n    tag_263:\n        /* \"#utility.yul\":5321:5366   */\n      tag_265\n        /* \"#utility.yul\":5360:5365   */\n      dup2\n        /* \"#utility.yul\":5321:5366   */\n      tag_266\n      jump\t// in\n    tag_265:\n        /* \"#utility.yul\":5316:5319   */\n      dup3\n        /* \"#utility.yul\":5309:5367   */\n      mstore\n        /* \"#utility.yul\":5299:5373   */\n      pop\n      pop\n      jump\t// out\n        /* \"#utility.yul\":5379:5487   */\n    tag_267:\n        /* \"#utility.yul\":5456:5480   */\n      tag_269\n        /* \"#utility.yul\":5474:5479   */\n      dup2\n        /* \"#utility.yul\":5456:5480   */\n      tag_270\n      jump\t// in\n    tag_269:\n        /* \"#utility.yul\":5451:5454   */\n      dup3\n        /* \"#utility.yul\":5444:5481   */\n      mstore\n        /* \"#utility.yul\":5434:5487   */\n      pop\n      pop\n      jump\t// out\n        /* \"#utility.yul\":5493:5611   */\n    tag_271:\n        /* \"#utility.yul\":5580:5604   */\n      tag_273\n        /* \"#utility.yul\":5598:5603   */\n      dup2\n        /* \"#utility.yul\":5580:5604   */\n      tag_270\n      jump\t// in\n    tag_273:\n        /* \"#utility.yul\":5575:5578   */\n      dup3\n        /* \"#utility.yul\":5568:5605   */\n      mstore\n        /* \"#utility.yul\":5558:5611   */\n      pop\n      pop\n      jump\t// out\n        /* \"#utility.yul\":5711:6894   */\n    tag_274:\n      0x00\n        /* \"#utility.yul\":5927:6015   */\n      tag_276\n        /* \"#utility.yul\":6009:6014   */\n      dup3\n        /* \"#utility.yul\":5927:6015   */\n      tag_277\n      jump\t// in\n    tag_276:\n        /* \"#utility.yul\":6031:6151   */\n      tag_278\n        /* \"#utility.yul\":6144:6150   */\n      dup2\n        /* \"#utility.yul\":6139:6142   */\n      dup6\n        /* \"#utility.yul\":6031:6151   */\n      tag_279\n      jump\t// in\n    tag_278:\n        /* \"#utility.yul\":6024:6151   */\n      swap4\n      pop\n        /* \"#utility.yul\":6177:6180   */\n      dup4\n        /* \"#utility.yul\":6222:6226   */\n      0x20\n        /* \"#utility.yul\":6214:6220   */\n      dup3\n        /* \"#utility.yul\":6210:6227   */\n      mul\n        /* \"#utility.yul\":6205:6208   */\n      dup6\n        /* \"#utility.yul\":6201:6228   */\n      add\n        /* \"#utility.yul\":6252:6342   */\n      tag_280\n        /* \"#utility.yul\":6336:6341   */\n      dup6\n        /* \"#utility.yul\":6252:6342   */\n      tag_281\n      jump\t// in\n    tag_280:\n        /* \"#utility.yul\":6365:6372   */\n      dup1\n        /* \"#utility.yul\":6396:6397   */\n      0x00\n        /* \"#utility.yul\":6381:6849   */\n    tag_282:\n        /* \"#utility.yul\":6406:6412   */\n      dup6\n        /* \"#utility.yul\":6403:6404   */\n      dup2\n        /* \"#utility.yul\":6400:6413   */\n      lt\n        /* \"#utility.yul\":6381:6849   */\n      iszero\n      tag_284\n      jumpi\n        /* \"#utility.yul\":6477:6486   */\n      dup5\n        /* \"#utility.yul\":6471:6475   */\n      dup5\n        /* \"#utility.yul\":6467:6487   */\n      sub\n        /* \"#utility.yul\":6462:6465   */\n      dup10\n        /* \"#utility.yul\":6455:6488   */\n      mstore\n        /* \"#utility.yul\":6528:6534   */\n      dup2\n        /* \"#utility.yul\":6522:6535   */\n      mload\n        /* \"#utility.yul\":6556:6688   */\n      tag_285\n        /* \"#utility.yul\":6683:6687   */\n      dup6\n        /* \"#utility.yul\":6668:6681   */\n      dup3\n        /* \"#utility.yul\":6556:6688   */\n      tag_251\n      jump\t// in\n    tag_285:\n        /* \"#utility.yul\":6548:6688   */\n      swap5\n      pop\n        /* \"#utility.yul\":6711:6805   */\n      tag_286\n        /* \"#utility.yul\":6798:6804   */\n      dup4\n        /* \"#utility.yul\":6711:6805   */\n      tag_287\n      jump\t// in\n    tag_286:\n        /* \"#utility.yul\":6701:6805   */\n      swap3\n      pop\n        /* \"#utility.yul\":6834:6838   */\n      0x20\n        /* \"#utility.yul\":6829:6832   */\n      dup11\n        /* \"#utility.yul\":6825:6839   */\n      add\n        /* \"#utility.yul\":6818:6839   */\n      swap10\n      pop\n        /* \"#utility.yul\":6441:6849   */\n      pop\n        /* \"#utility.yul\":6428:6429   */\n      0x01\n        /* \"#utility.yul\":6425:6426   */\n      dup2\n        /* \"#utility.yul\":6421:6430   */\n      add\n        /* \"#utility.yul\":6416:6430   */\n      swap1\n      pop\n        /* \"#utility.yul\":6381:6849   */\n      jump(tag_282)\n    tag_284:\n        /* \"#utility.yul\":6385:6399   */\n      pop\n        /* \"#utility.yul\":6865:6869   */\n      dup3\n        /* \"#utility.yul\":6858:6869   */\n      swap8\n      pop\n        /* \"#utility.yul\":6885:6888   */\n      dup8\n        /* \"#utility.yul\":6878:6888   */\n      swap6\n      pop\n        /* \"#utility.yul\":5903:6894   */\n      pop\n      pop\n      pop\n      pop\n      pop\n      swap3\n      swap2\n      pop\n      pop\n      jump\t// out\n        /* \"#utility.yul\":6974:8077   */\n    tag_288:\n      0x00\n        /* \"#utility.yul\":7170:7248   */\n      tag_290\n        /* \"#utility.yul\":7242:7247   */\n      dup3\n        /* \"#utility.yul\":7170:7248   */\n      tag_291\n      jump\t// in\n    tag_290:\n        /* \"#utility.yul\":7264:7374   */\n      tag_292\n        /* \"#utility.yul\":7367:7373   */\n      dup2\n        /* \"#utility.yul\":7362:7365   */\n      dup6\n        /* \"#utility.yul\":7264:7374   */\n      tag_293\n      jump\t// in\n    tag_292:\n        /* \"#utility.yul\":7257:7374   */\n      swap4\n      pop\n        /* \"#utility.yul\":7400:7403   */\n      dup4\n        /* \"#utility.yul\":7445:7449   */\n      0x20\n        /* \"#utility.yul\":7437:7443   */\n      dup3\n        /* \"#utility.yul\":7433:7450   */\n      mul\n        /* \"#utility.yul\":7428:7431   */\n      dup6\n        /* \"#utility.yul\":7424:7451   */\n      add\n        /* \"#utility.yul\":7475:7555   */\n      tag_294\n        /* \"#utility.yul\":7549:7554   */\n      dup6\n        /* \"#utility.yul\":7475:7555   */\n      tag_295\n      jump\t// in\n    tag_294:\n        /* \"#utility.yul\":7578:7585   */\n      dup1\n        /* \"#utility.yul\":7609:7610   */\n      0x00\n        /* \"#utility.yul\":7594:8032   */\n    tag_296:\n        /* \"#utility.yul\":7619:7625   */\n      dup6\n        /* \"#utility.yul\":7616:7617   */\n      dup2\n        /* \"#utility.yul\":7613:7626   */\n      lt\n        /* \"#utility.yul\":7594:8032   */\n      iszero\n      tag_298\n      jumpi\n        /* \"#utility.yul\":7690:7699   */\n      dup5\n        /* \"#utility.yul\":7684:7688   */\n      dup5\n        /* \"#utility.yul\":7680:7700   */\n      sub\n        /* \"#utility.yul\":7675:7678   */\n      dup10\n        /* \"#utility.yul\":7668:7701   */\n      mstore\n        /* \"#utility.yul\":7741:7747   */\n      dup2\n        /* \"#utility.yul\":7735:7748   */\n      mload\n        /* \"#utility.yul\":7769:7881   */\n      tag_299\n        /* \"#utility.yul\":7876:7880   */\n      dup6\n        /* \"#utility.yul\":7861:7874   */\n      dup3\n        /* \"#utility.yul\":7769:7881   */\n      tag_255\n      jump\t// in\n    tag_299:\n        /* \"#utility.yul\":7761:7881   */\n      swap5\n      pop\n        /* \"#utility.yul\":7904:7988   */\n      tag_300\n        /* \"#utility.yul\":7981:7987   */\n      dup4\n        /* \"#utility.yul\":7904:7988   */\n      tag_301\n      jump\t// in\n    tag_300:\n        /* \"#utility.yul\":7894:7988   */\n      swap3\n      pop\n        /* \"#utility.yul\":8017:8021   */\n      0x20\n        /* \"#utility.yul\":8012:8015   */\n      dup11\n        /* \"#utility.yul\":8008:8022   */\n      add\n        /* \"#utility.yul\":8001:8022   */\n      swap10\n      pop\n        /* \"#utility.yul\":7654:8032   */\n      pop\n        /* \"#utility.yul\":7641:7642   */\n      0x01\n        /* \"#utility.yul\":7638:7639   */\n      dup2\n        /* \"#utility.yul\":7634:7643   */\n      add\n        /* \"#utility.yul\":7629:7643   */\n      swap1\n      pop\n        /* \"#utility.yul\":7594:8032   */\n      jump(tag_296)\n    tag_298:\n        /* \"#utility.yul\":7598:7612   */\n      pop\n        /* \"#utility.yul\":8048:8052   */\n      dup3\n        /* \"#utility.yul\":8041:8052   */\n      swap8\n      pop\n        /* \"#utility.yul\":8068:8071   */\n      dup8\n        /* \"#utility.yul\":8061:8071   */\n      swap6\n      pop\n        /* \"#utility.yul\":7146:8077   */\n      pop\n      pop\n      pop\n      pop\n      pop\n      swap3\n      swap2\n      pop\n      pop\n      jump\t// out\n        /* \"#utility.yul\":8157:9260   */\n    tag_302:\n      0x00\n        /* \"#utility.yul\":8353:8431   */\n      tag_304\n        /* \"#utility.yul\":8425:8430   */\n      dup3\n        /* \"#utility.yul\":8353:8431   */\n      tag_305\n      jump\t// in\n    tag_304:\n        /* \"#utility.yul\":8447:8557   */\n      tag_306\n        /* \"#utility.yul\":8550:8556   */\n      dup2\n        /* \"#utility.yul\":8545:8548   */\n      dup6\n        /* \"#utility.yul\":8447:8557   */\n      tag_307\n      jump\t// in\n    tag_306:\n        /* \"#utility.yul\":8440:8557   */\n      swap4\n      pop\n        /* \"#utility.yul\":8583:8586   */\n      dup4\n        /* \"#utility.yul\":8628:8632   */\n      0x20\n        /* \"#utility.yul\":8620:8626   */\n      dup3\n        /* \"#utility.yul\":8616:8633   */\n      mul\n        /* \"#utility.yul\":8611:8614   */\n      dup6\n        /* \"#utility.yul\":8607:8634   */\n      add\n        /* \"#utility.yul\":8658:8738   */\n      tag_308\n        /* \"#utility.yul\":8732:8737   */\n      dup6\n        /* \"#utility.yul\":8658:8738   */\n      tag_309\n      jump\t// in\n    tag_308:\n        /* \"#utility.yul\":8761:8768   */\n      dup1\n        /* \"#utility.yul\":8792:8793   */\n      0x00\n        /* \"#utility.yul\":8777:9215   */\n    tag_310:\n        /* \"#utility.yul\":8802:8808   */\n      dup6\n        /* \"#utility.yul\":8799:8800   */\n      dup2\n        /* \"#utility.yul\":8796:8809   */\n      lt\n        /* \"#utility.yul\":8777:9215   */\n      iszero\n      tag_312\n      jumpi\n        /* \"#utility.yul\":8873:8882   */\n      dup5\n        /* \"#utility.yul\":8867:8871   */\n      dup5\n        /* \"#utility.yul\":8863:8883   */\n      sub\n        /* \"#utility.yul\":8858:8861   */\n      dup10\n        /* \"#utility.yul\":8851:8884   */\n      mstore\n        /* \"#utility.yul\":8924:8930   */\n      dup2\n        /* \"#utility.yul\":8918:8931   */\n      mload\n        /* \"#utility.yul\":8952:9064   */\n      tag_313\n        /* \"#utility.yul\":9059:9063   */\n      dup6\n        /* \"#utility.yul\":9044:9057   */\n      dup3\n        /* \"#utility.yul\":8952:9064   */\n      tag_259\n      jump\t// in\n    tag_313:\n        /* \"#utility.yul\":8944:9064   */\n      swap5\n      pop\n        /* \"#utility.yul\":9087:9171   */\n      tag_314\n        /* \"#utility.yul\":9164:9170   */\n      dup4\n        /* \"#utility.yul\":9087:9171   */\n      tag_315\n      jump\t// in\n    tag_314:\n        /* \"#utility.yul\":9077:9171   */\n      swap3\n      pop\n        /* \"#utility.yul\":9200:9204   */\n      0x20\n        /* \"#utility.yul\":9195:9198   */\n      dup11\n        /* \"#utility.yul\":9191:9205   */\n      add\n        /* \"#utility.yul\":9184:9205   */\n      swap10\n      pop\n        /* \"#utility.yul\":8837:9215   */\n      pop\n        /* \"#utility.yul\":8824:8825   */\n      0x01\n        /* \"#utility.yul\":8821:8822   */\n      dup2\n        /* \"#utility.yul\":8817:8826   */\n      add\n        /* \"#utility.yul\":8812:8826   */\n      swap1\n      pop\n        /* \"#utility.yul\":8777:9215   */\n      jump(tag_310)\n    tag_312:\n        /* \"#utility.yul\":8781:8795   */\n      pop\n        /* \"#utility.yul\":9231:9235   */\n      dup3\n        /* \"#utility.yul\":9224:9235   */\n      swap8\n      pop\n        /* \"#utility.yul\":9251:9254   */\n      dup8\n        /* \"#utility.yul\":9244:9254   */\n      swap6\n      pop\n        /* \"#utility.yul\":8329:9260   */\n      pop\n      pop\n      pop\n      pop\n      pop\n      swap3\n      swap2\n      pop\n      pop\n      jump\t// out\n        /* \"#utility.yul\":9266:9365   */\n    tag_316:\n        /* \"#utility.yul\":9337:9358   */\n      tag_318\n        /* \"#utility.yul\":9352:9357   */\n      dup2\n        /* \"#utility.yul\":9337:9358   */\n      tag_319\n      jump\t// in\n    tag_318:\n        /* \"#utility.yul\":9332:9335   */\n      dup3\n        /* \"#utility.yul\":9325:9359   */\n      mstore\n        /* \"#utility.yul\":9315:9365   */\n      pop\n      pop\n      jump\t// out\n        /* \"#utility.yul\":9371:9480   */\n    tag_320:\n        /* \"#utility.yul\":9452:9473   */\n      tag_322\n        /* \"#utility.yul\":9467:9472   */\n      dup2\n        /* \"#utility.yul\":9452:9473   */\n      tag_319\n      jump\t// in\n    tag_322:\n        /* \"#utility.yul\":9447:9450   */\n      dup3\n        /* \"#utility.yul\":9440:9474   */\n      mstore\n        /* \"#utility.yul\":9430:9480   */\n      pop\n      pop\n      jump\t// out\n        /* \"#utility.yul\":9486:9830   */\n    tag_323:\n      0x00\n        /* \"#utility.yul\":9592:9631   */\n      tag_325\n        /* \"#utility.yul\":9625:9630   */\n      dup3\n        /* \"#utility.yul\":9592:9631   */\n      tag_326\n      jump\t// in\n    tag_325:\n        /* \"#utility.yul\":9647:9708   */\n      tag_327\n        /* \"#utility.yul\":9701:9707   */\n      dup2\n        /* \"#utility.yul\":9696:9699   */\n      dup6\n        /* \"#utility.yul\":9647:9708   */\n      tag_328\n      jump\t// in\n    tag_327:\n        /* \"#utility.yul\":9640:9708   */\n      swap4\n      pop\n        /* \"#utility.yul\":9717:9769   */\n      tag_329\n        /* \"#utility.yul\":9762:9768   */\n      dup2\n        /* \"#utility.yul\":9757:9760   */\n      dup6\n        /* \"#utility.yul\":9750:9754   */\n      0x20\n        /* \"#utility.yul\":9743:9748   */\n      dup7\n        /* \"#utility.yul\":9739:9755   */\n      add\n        /* \"#utility.yul\":9717:9769   */\n      tag_330\n      jump\t// in\n    tag_329:\n        /* \"#utility.yul\":9794:9823   */\n      tag_331\n        /* \"#utility.yul\":9816:9822   */\n      dup2\n        /* \"#utility.yul\":9794:9823   */\n      tag_332\n      jump\t// in\n    tag_331:\n        /* \"#utility.yul\":9789:9792   */\n      dup5\n        /* \"#utility.yul\":9785:9824   */\n      add\n        /* \"#utility.yul\":9778:9824   */\n      swap2\n      pop\n        /* \"#utility.yul\":9568:9830   */\n      pop\n      swap3\n      swap2\n      pop\n      pop\n      jump\t// out\n        /* \"#utility.yul\":9836:10200   */\n    tag_333:\n      0x00\n        /* \"#utility.yul\":9952:9991   */\n      tag_335\n        /* \"#utility.yul\":9985:9990   */\n      dup3\n        /* \"#utility.yul\":9952:9991   */\n      tag_326\n      jump\t// in\n    tag_335:\n        /* \"#utility.yul\":10007:10078   */\n      tag_336\n        /* \"#utility.yul\":10071:10077   */\n      dup2\n        /* \"#utility.yul\":10066:10069   */\n      dup6\n        /* \"#utility.yul\":10007:10078   */\n      tag_337\n      jump\t// in\n    tag_336:\n        /* \"#utility.yul\":10000:10078   */\n      swap4\n      pop\n        /* \"#utility.yul\":10087:10139   */\n      tag_338\n        /* \"#utility.yul\":10132:10138   */\n      dup2\n        /* \"#utility.yul\":10127:10130   */\n      dup6\n        /* \"#utility.yul\":10120:10124   */\n      0x20\n        /* \"#utility.yul\":10113:10118   */\n      dup7\n        /* \"#utility.yul\":10109:10125   */\n      add\n        /* \"#utility.yul\":10087:10139   */\n      tag_330\n      jump\t// in\n    tag_338:\n        /* \"#utility.yul\":10164:10193   */\n      tag_339\n        /* \"#utility.yul\":10186:10192   */\n      dup2\n        /* \"#utility.yul\":10164:10193   */\n      tag_332\n      jump\t// in\n    tag_339:\n        /* \"#utility.yul\":10159:10162   */\n      dup5\n        /* \"#utility.yul\":10155:10194   */\n      add\n        /* \"#utility.yul\":10148:10194   */\n      swap2\n      pop\n        /* \"#utility.yul\":9928:10200   */\n      pop\n      swap3\n      swap2\n      pop\n      pop\n      jump\t// out\n        /* \"#utility.yul\":10206:10532   */\n    tag_340:\n      0x00\n        /* \"#utility.yul\":10369:10436   */\n      tag_342\n        /* \"#utility.yul\":10433:10435   */\n      0x1c\n        /* \"#utility.yul\":10428:10431   */\n      dup4\n        /* \"#utility.yul\":10369:10436   */\n      tag_337\n      jump\t// in\n    tag_342:\n        /* \"#utility.yul\":10362:10436   */\n      swap2\n      pop\n        /* \"#utility.yul\":10466:10496   */\n      0x56616c696461746f7220616c7265616479207265676973746572656400000000\n        /* \"#utility.yul\":10462:10463   */\n      0x00\n        /* \"#utility.yul\":10457:10460   */\n      dup4\n        /* \"#utility.yul\":10453:10464   */\n      add\n        /* \"#utility.yul\":10446:10497   */\n      mstore\n        /* \"#utility.yul\":10523:10525   */\n      0x20\n        /* \"#utility.yul\":10518:10521   */\n      dup3\n        /* \"#utility.yul\":10514:10526   */\n      add\n        /* \"#utility.yul\":10507:10526   */\n      swap1\n      pop\n        /* \"#utility.yul\":10352:10532   */\n      swap2\n      swap1\n      pop\n      jump\t// out\n        /* \"#utility.yul\":10628:12148   */\n    tag_254:\n      0x00\n        /* \"#utility.yul\":10791:10795   */\n      0xe0\n        /* \"#utility.yul\":10786:10789   */\n      dup4\n        /* \"#utility.yul\":10782:10796   */\n      add\n        /* \"#utility.yul\":10878:10882   */\n      0x00\n        /* \"#utility.yul\":10871:10876   */\n      dup4\n        /* \"#utility.yul\":10867:10883   */\n      add\n        /* \"#utility.yul\":10861:10884   */\n      mload\n        /* \"#utility.yul\":10931:10934   */\n      dup5\n        /* \"#utility.yul\":10925:10929   */\n      dup3\n        /* \"#utility.yul\":10921:10935   */\n      sub\n        /* \"#utility.yul\":10914:10918   */\n      0x00\n        /* \"#utility.yul\":10909:10912   */\n      dup7\n        /* \"#utility.yul\":10905:10919   */\n      add\n        /* \"#utility.yul\":10898:10936   */\n      mstore\n        /* \"#utility.yul\":10957:11030   */\n      tag_344\n        /* \"#utility.yul\":11025:11029   */\n      dup3\n        /* \"#utility.yul\":11011:11023   */\n      dup3\n        /* \"#utility.yul\":10957:11030   */\n      tag_323\n      jump\t// in\n    tag_344:\n        /* \"#utility.yul\":10949:11030   */\n      swap2\n      pop\n        /* \"#utility.yul\":10806:11041   */\n      pop\n        /* \"#utility.yul\":11121:11125   */\n      0x20\n        /* \"#utility.yul\":11114:11119   */\n      dup4\n        /* \"#utility.yul\":11110:11126   */\n      add\n        /* \"#utility.yul\":11104:11127   */\n      mload\n        /* \"#utility.yul\":11140:11203   */\n      tag_345\n        /* \"#utility.yul\":11197:11201   */\n      0x20\n        /* \"#utility.yul\":11192:11195   */\n      dup7\n        /* \"#utility.yul\":11188:11202   */\n      add\n        /* \"#utility.yul\":11174:11186   */\n      dup3\n        /* \"#utility.yul\":11140:11203   */\n      tag_346\n      jump\t// in\n    tag_345:\n        /* \"#utility.yul\":11051:11213   */\n      pop\n        /* \"#utility.yul\":11299:11303   */\n      0x40\n        /* \"#utility.yul\":11292:11297   */\n      dup4\n        /* \"#utility.yul\":11288:11304   */\n      add\n        /* \"#utility.yul\":11282:11305   */\n      mload\n        /* \"#utility.yul\":11318:11381   */\n      tag_347\n        /* \"#utility.yul\":11375:11379   */\n      0x40\n        /* \"#utility.yul\":11370:11373   */\n      dup7\n        /* \"#utility.yul\":11366:11380   */\n      add\n        /* \"#utility.yul\":11352:11364   */\n      dup3\n        /* \"#utility.yul\":11318:11381   */\n      tag_346\n      jump\t// in\n    tag_347:\n        /* \"#utility.yul\":11223:11391   */\n      pop\n        /* \"#utility.yul\":11480:11484   */\n      0x60\n        /* \"#utility.yul\":11473:11478   */\n      dup4\n        /* \"#utility.yul\":11469:11485   */\n      add\n        /* \"#utility.yul\":11463:11486   */\n      mload\n        /* \"#utility.yul\":11499:11562   */\n      tag_348\n        /* \"#utility.yul\":11556:11560   */\n      0x60\n        /* \"#utility.yul\":11551:11554   */\n      dup7\n        /* \"#utility.yul\":11547:11561   */\n      add\n        /* \"#utility.yul\":11533:11545   */\n      dup3\n        /* \"#utility.yul\":11499:11562   */\n      tag_346\n      jump\t// in\n    tag_348:\n        /* \"#utility.yul\":11401:11572   */\n      pop\n        /* \"#utility.yul\":11664:11668   */\n      0x80\n        /* \"#utility.yul\":11657:11662   */\n      dup4\n        /* \"#utility.yul\":11653:11669   */\n      add\n        /* \"#utility.yul\":11647:11670   */\n      mload\n        /* \"#utility.yul\":11683:11746   */\n      tag_349\n        /* \"#utility.yul\":11740:11744   */\n      0x80\n        /* \"#utility.yul\":11735:11738   */\n      dup7\n        /* \"#utility.yul\":11731:11745   */\n      add\n        /* \"#utility.yul\":11717:11729   */\n      dup3\n        /* \"#utility.yul\":11683:11746   */\n      tag_346\n      jump\t// in\n    tag_349:\n        /* \"#utility.yul\":11582:11756   */\n      pop\n        /* \"#utility.yul\":11854:11858   */\n      0xa0\n        /* \"#utility.yul\":11847:11852   */\n      dup4\n        /* \"#utility.yul\":11843:11859   */\n      add\n        /* \"#utility.yul\":11837:11860   */\n      mload\n        /* \"#utility.yul\":11873:11936   */\n      tag_350\n        /* \"#utility.yul\":11930:11934   */\n      0xa0\n        /* \"#utility.yul\":11925:11928   */\n      dup7\n        /* \"#utility.yul\":11921:11935   */\n      add\n        /* \"#utility.yul\":11907:11919   */\n      dup3\n        /* \"#utility.yul\":11873:11936   */\n      tag_346\n      jump\t// in\n    tag_350:\n        /* \"#utility.yul\":11766:11946   */\n      pop\n        /* \"#utility.yul\":12029:12033   */\n      0xc0\n        /* \"#utility.yul\":12022:12027   */\n      dup4\n        /* \"#utility.yul\":12018:12034   */\n      add\n        /* \"#utility.yul\":12012:12035   */\n      mload\n        /* \"#utility.yul\":12048:12111   */\n      tag_351\n        /* \"#utility.yul\":12105:12109   */\n      0xc0\n        /* \"#utility.yul\":12100:12103   */\n      dup7\n        /* \"#utility.yul\":12096:12110   */\n      add\n        /* \"#utility.yul\":12082:12094   */\n      dup3\n        /* \"#utility.yul\":12048:12111   */\n      tag_267\n      jump\t// in\n    tag_351:\n        /* \"#utility.yul\":11956:12121   */\n      pop\n        /* \"#utility.yul\":12138:12142   */\n      dup1\n        /* \"#utility.yul\":12131:12142   */\n      swap2\n      pop\n        /* \"#utility.yul\":10760:12148   */\n      pop\n      swap3\n      swap2\n      pop\n      pop\n      jump\t// out\n        /* \"#utility.yul\":12224:13496   */\n    tag_258:\n      0x00\n        /* \"#utility.yul\":12367:12371   */\n      0xa0\n        /* \"#utility.yul\":12362:12365   */\n      dup4\n        /* \"#utility.yul\":12358:12372   */\n      add\n        /* \"#utility.yul\":12460:12464   */\n      0x00\n        /* \"#utility.yul\":12453:12458   */\n      dup4\n        /* \"#utility.yul\":12449:12465   */\n      add\n        /* \"#utility.yul\":12443:12466   */\n      mload\n        /* \"#utility.yul\":12513:12516   */\n      dup5\n        /* \"#utility.yul\":12507:12511   */\n      dup3\n        /* \"#utility.yul\":12503:12517   */\n      sub\n        /* \"#utility.yul\":12496:12500   */\n      0x00\n        /* \"#utility.yul\":12491:12494   */\n      dup7\n        /* \"#utility.yul\":12487:12501   */\n      add\n        /* \"#utility.yul\":12480:12518   */\n      mstore\n        /* \"#utility.yul\":12539:12612   */\n      tag_353\n        /* \"#utility.yul\":12607:12611   */\n      dup3\n        /* \"#utility.yul\":12593:12605   */\n      dup3\n        /* \"#utility.yul\":12539:12612   */\n      tag_323\n      jump\t// in\n    tag_353:\n        /* \"#utility.yul\":12531:12612   */\n      swap2\n      pop\n        /* \"#utility.yul\":12382:12623   */\n      pop\n        /* \"#utility.yul\":12710:12714   */\n      0x20\n        /* \"#utility.yul\":12703:12708   */\n      dup4\n        /* \"#utility.yul\":12699:12715   */\n      add\n        /* \"#utility.yul\":12693:12716   */\n      mload\n        /* \"#utility.yul\":12763:12766   */\n      dup5\n        /* \"#utility.yul\":12757:12761   */\n      dup3\n        /* \"#utility.yul\":12753:12767   */\n      sub\n        /* \"#utility.yul\":12746:12750   */\n      0x20\n        /* \"#utility.yul\":12741:12744   */\n      dup7\n        /* \"#utility.yul\":12737:12751   */\n      add\n        /* \"#utility.yul\":12730:12768   */\n      mstore\n        /* \"#utility.yul\":12789:12862   */\n      tag_354\n        /* \"#utility.yul\":12857:12861   */\n      dup3\n        /* \"#utility.yul\":12843:12855   */\n      dup3\n        /* \"#utility.yul\":12789:12862   */\n      tag_323\n      jump\t// in\n    tag_354:\n        /* \"#utility.yul\":12781:12862   */\n      swap2\n      pop\n        /* \"#utility.yul\":12633:12873   */\n      pop\n        /* \"#utility.yul\":12956:12960   */\n      0x40\n        /* \"#utility.yul\":12949:12954   */\n      dup4\n        /* \"#utility.yul\":12945:12961   */\n      add\n        /* \"#utility.yul\":12939:12962   */\n      mload\n        /* \"#utility.yul\":13009:13012   */\n      dup5\n        /* \"#utility.yul\":13003:13007   */\n      dup3\n        /* \"#utility.yul\":12999:13013   */\n      sub\n        /* \"#utility.yul\":12992:12996   */\n      0x40\n        /* \"#utility.yul\":12987:12990   */\n      dup7\n        /* \"#utility.yul\":12983:12997   */\n      add\n        /* \"#utility.yul\":12976:13014   */\n      mstore\n        /* \"#utility.yul\":13035:13108   */\n      tag_355\n        /* \"#utility.yul\":13103:13107   */\n      dup3\n        /* \"#utility.yul\":13089:13101   */\n      dup3\n        /* \"#utility.yul\":13035:13108   */\n      tag_323\n      jump\t// in\n    tag_355:\n        /* \"#utility.yul\":13027:13108   */\n      swap2\n      pop\n        /* \"#utility.yul\":12883:13119   */\n      pop\n        /* \"#utility.yul\":13204:13208   */\n      0x60\n        /* \"#utility.yul\":13197:13202   */\n      dup4\n        /* \"#utility.yul\":13193:13209   */\n      add\n        /* \"#utility.yul\":13187:13210   */\n      mload\n        /* \"#utility.yul\":13223:13286   */\n      tag_356\n        /* \"#utility.yul\":13280:13284   */\n      0x60\n        /* \"#utility.yul\":13275:13278   */\n      dup7\n        /* \"#utility.yul\":13271:13285   */\n      add\n        /* \"#utility.yul\":13257:13269   */\n      dup3\n        /* \"#utility.yul\":13223:13286   */\n      tag_346\n      jump\t// in\n    tag_356:\n        /* \"#utility.yul\":13129:13296   */\n      pop\n        /* \"#utility.yul\":13377:13381   */\n      0x80\n        /* \"#utility.yul\":13370:13375   */\n      dup4\n        /* \"#utility.yul\":13366:13382   */\n      add\n        /* \"#utility.yul\":13360:13383   */\n      mload\n        /* \"#utility.yul\":13396:13459   */\n      tag_357\n        /* \"#utility.yul\":13453:13457   */\n      0x80\n        /* \"#utility.yul\":13448:13451   */\n      dup7\n        /* \"#utility.yul\":13444:13458   */\n      add\n        /* \"#utility.yul\":13430:13442   */\n      dup3\n        /* \"#utility.yul\":13396:13459   */\n      tag_346\n      jump\t// in\n    tag_357:\n        /* \"#utility.yul\":13306:13469   */\n      pop\n        /* \"#utility.yul\":13486:13490   */\n      dup1\n        /* \"#utility.yul\":13479:13490   */\n      swap2\n      pop\n        /* \"#utility.yul\":12336:13496   */\n      pop\n      swap3\n      swap2\n      pop\n      pop\n      jump\t// out\n        /* \"#utility.yul\":13572:14945   */\n    tag_262:\n      0x00\n        /* \"#utility.yul\":13715:13719   */\n      0xc0\n        /* \"#utility.yul\":13710:13713   */\n      dup4\n        /* \"#utility.yul\":13706:13720   */\n      add\n        /* \"#utility.yul\":13802:13806   */\n      0x00\n        /* \"#utility.yul\":13795:13800   */\n      dup4\n        /* \"#utility.yul\":13791:13807   */\n      add\n        /* \"#utility.yul\":13785:13808   */\n      mload\n        /* \"#utility.yul\":13855:13858   */\n      dup5\n        /* \"#utility.yul\":13849:13853   */\n      dup3\n        /* \"#utility.yul\":13845:13859   */\n      sub\n        /* \"#utility.yul\":13838:13842   */\n      0x00\n        /* \"#utility.yul\":13833:13836   */\n      dup7\n        /* \"#utility.yul\":13829:13843   */\n      add\n        /* \"#utility.yul\":13822:13860   */\n      mstore\n        /* \"#utility.yul\":13881:13954   */\n      tag_359\n        /* \"#utility.yul\":13949:13953   */\n      dup3\n        /* \"#utility.yul\":13935:13947   */\n      dup3\n        /* \"#utility.yul\":13881:13954   */\n      tag_323\n      jump\t// in\n    tag_359:\n        /* \"#utility.yul\":13873:13954   */\n      swap2\n      pop\n        /* \"#utility.yul\":13730:13965   */\n      pop\n        /* \"#utility.yul\":14054:14058   */\n      0x20\n        /* \"#utility.yul\":14047:14052   */\n      dup4\n        /* \"#utility.yul\":14043:14059   */\n      add\n        /* \"#utility.yul\":14037:14060   */\n      mload\n        /* \"#utility.yul\":14107:14110   */\n      dup5\n        /* \"#utility.yul\":14101:14105   */\n      dup3\n        /* \"#utility.yul\":14097:14111   */\n      sub\n        /* \"#utility.yul\":14090:14094   */\n      0x20\n        /* \"#utility.yul\":14085:14088   */\n      dup7\n        /* \"#utility.yul\":14081:14095   */\n      add\n        /* \"#utility.yul\":14074:14112   */\n      mstore\n        /* \"#utility.yul\":14133:14206   */\n      tag_360\n        /* \"#utility.yul\":14201:14205   */\n      dup3\n        /* \"#utility.yul\":14187:14199   */\n      dup3\n        /* \"#utility.yul\":14133:14206   */\n      tag_323\n      jump\t// in\n    tag_360:\n        /* \"#utility.yul\":14125:14206   */\n      swap2\n      pop\n        /* \"#utility.yul\":13975:14217   */\n      pop\n        /* \"#utility.yul\":14301:14305   */\n      0x40\n        /* \"#utility.yul\":14294:14299   */\n      dup4\n        /* \"#utility.yul\":14290:14306   */\n      add\n        /* \"#utility.yul\":14284:14307   */\n      mload\n        /* \"#utility.yul\":14320:14383   */\n      tag_361\n        /* \"#utility.yul\":14377:14381   */\n      0x40\n        /* \"#utility.yul\":14372:14375   */\n      dup7\n        /* \"#utility.yul\":14368:14382   */\n      add\n        /* \"#utility.yul\":14354:14366   */\n      dup3\n        /* \"#utility.yul\":14320:14383   */\n      tag_346\n      jump\t// in\n    tag_361:\n        /* \"#utility.yul\":14227:14393   */\n      pop\n        /* \"#utility.yul\":14481:14485   */\n      0x60\n        /* \"#utility.yul\":14474:14479   */\n      dup4\n        /* \"#utility.yul\":14470:14486   */\n      add\n        /* \"#utility.yul\":14464:14487   */\n      mload\n        /* \"#utility.yul\":14500:14563   */\n      tag_362\n        /* \"#utility.yul\":14557:14561   */\n      0x60\n        /* \"#utility.yul\":14552:14555   */\n      dup7\n        /* \"#utility.yul\":14548:14562   */\n      add\n        /* \"#utility.yul\":14534:14546   */\n      dup3\n        /* \"#utility.yul\":14500:14563   */\n      tag_346\n      jump\t// in\n    tag_362:\n        /* \"#utility.yul\":14403:14573   */\n      pop\n        /* \"#utility.yul\":14655:14659   */\n      0x80\n        /* \"#utility.yul\":14648:14653   */\n      dup4\n        /* \"#utility.yul\":14644:14660   */\n      add\n        /* \"#utility.yul\":14638:14661   */\n      mload\n        /* \"#utility.yul\":14674:14737   */\n      tag_363\n        /* \"#utility.yul\":14731:14735   */\n      0x80\n        /* \"#utility.yul\":14726:14729   */\n      dup7\n        /* \"#utility.yul\":14722:14736   */\n      add\n        /* \"#utility.yul\":14708:14720   */\n      dup3\n        /* \"#utility.yul\":14674:14737   */\n      tag_267\n      jump\t// in\n    tag_363:\n        /* \"#utility.yul\":14583:14747   */\n      pop\n        /* \"#utility.yul\":14832:14836   */\n      0xa0\n        /* \"#utility.yul\":14825:14830   */\n      dup4\n        /* \"#utility.yul\":14821:14837   */\n      add\n        /* \"#utility.yul\":14815:14838   */\n      mload\n        /* \"#utility.yul\":14851:14908   */\n      tag_364\n        /* \"#utility.yul\":14902:14906   */\n      0xa0\n        /* \"#utility.yul\":14897:14900   */\n      dup7\n        /* \"#utility.yul\":14893:14907   */\n      add\n        /* \"#utility.yul\":14879:14891   */\n      dup3\n        /* \"#utility.yul\":14851:14908   */\n      tag_316\n      jump\t// in\n    tag_364:\n        /* \"#utility.yul\":14757:14918   */\n      pop\n        /* \"#utility.yul\":14935:14939   */\n      dup1\n        /* \"#utility.yul\":14928:14939   */\n      swap2\n      pop\n        /* \"#utility.yul\":13684:14945   */\n      pop\n      swap3\n      swap2\n      pop\n      pop\n      jump\t// out\n        /* \"#utility.yul\":14951:15059   */\n    tag_346:\n        /* \"#utility.yul\":15028:15052   */\n      tag_366\n        /* \"#utility.yul\":15046:15051   */\n      dup2\n        /* \"#utility.yul\":15028:15052   */\n      tag_367\n      jump\t// in\n    tag_366:\n        /* \"#utility.yul\":15023:15026   */\n      dup3\n        /* \"#utility.yul\":15016:15053   */\n      mstore\n        /* \"#utility.yul\":15006:15059   */\n      pop\n      pop\n      jump\t// out\n        /* \"#utility.yul\":15065:15183   */\n    tag_368:\n        /* \"#utility.yul\":15152:15176   */\n      tag_370\n        /* \"#utility.yul\":15170:15175   */\n      dup2\n        /* \"#utility.yul\":15152:15176   */\n      tag_367\n      jump\t// in\n    tag_370:\n        /* \"#utility.yul\":15147:15150   */\n      dup3\n        /* \"#utility.yul\":15140:15177   */\n      mstore\n        /* \"#utility.yul\":15130:15183   */\n      pop\n      pop\n      jump\t// out\n        /* \"#utility.yul\":15189:15411   */\n    tag_46:\n      0x00\n        /* \"#utility.yul\":15320:15322   */\n      0x20\n        /* \"#utility.yul\":15309:15318   */\n      dup3\n        /* \"#utility.yul\":15305:15323   */\n      add\n        /* \"#utility.yul\":15297:15323   */\n      swap1\n      pop\n        /* \"#utility.yul\":15333:15404   */\n      tag_372\n        /* \"#utility.yul\":15401:15402   */\n      0x00\n        /* \"#utility.yul\":15390:15399   */\n      dup4\n        /* \"#utility.yul\":15386:15403   */\n      add\n        /* \"#utility.yul\":15377:15383   */\n      dup5\n        /* \"#utility.yul\":15333:15404   */\n      tag_271\n      jump\t// in\n    tag_372:\n        /* \"#utility.yul\":15287:15411   */\n      swap3\n      swap2\n      pop\n      pop\n      jump\t// out\n        /* \"#utility.yul\":15417:15926   */\n    tag_63:\n      0x00\n        /* \"#utility.yul\":15666:15668   */\n      0x20\n        /* \"#utility.yul\":15655:15664   */\n      dup3\n        /* \"#utility.yul\":15651:15669   */\n      add\n        /* \"#utility.yul\":15643:15669   */\n      swap1\n      pop\n        /* \"#utility.yul\":15715:15724   */\n      dup2\n        /* \"#utility.yul\":15709:15713   */\n      dup2\n        /* \"#utility.yul\":15705:15725   */\n      sub\n        /* \"#utility.yul\":15701:15702   */\n      0x00\n        /* \"#utility.yul\":15690:15699   */\n      dup4\n        /* \"#utility.yul\":15686:15703   */\n      add\n        /* \"#utility.yul\":15679:15726   */\n      mstore\n        /* \"#utility.yul\":15743:15919   */\n      tag_374\n        /* \"#utility.yul\":15914:15918   */\n      dup2\n        /* \"#utility.yul\":15905:15911   */\n      dup5\n        /* \"#utility.yul\":15743:15919   */\n      tag_274\n      jump\t// in\n    tag_374:\n        /* \"#utility.yul\":15735:15919   */\n      swap1\n      pop\n        /* \"#utility.yul\":15633:15926   */\n      swap3\n      swap2\n      pop\n      pop\n      jump\t// out\n        /* \"#utility.yul\":15932:16401   */\n    tag_27:\n      0x00\n        /* \"#utility.yul\":16161:16163   */\n      0x20\n        /* \"#utility.yul\":16150:16159   */\n      dup3\n        /* \"#utility.yul\":16146:16164   */\n      add\n        /* \"#utility.yul\":16138:16164   */\n      swap1\n      pop\n        /* \"#utility.yul\":16210:16219   */\n      dup2\n        /* \"#utility.yul\":16204:16208   */\n      dup2\n        /* \"#utility.yul\":16200:16220   */\n      sub\n        /* \"#utility.yul\":16196:16197   */\n      0x00\n        /* \"#utility.yul\":16185:16194   */\n      dup4\n        /* \"#utility.yul\":16181:16198   */\n      add\n        /* \"#utility.yul\":16174:16221   */\n      mstore\n        /* \"#utility.yul\":16238:16394   */\n      tag_376\n        /* \"#utility.yul\":16389:16393   */\n      dup2\n        /* \"#utility.yul\":16380:16386   */\n      dup5\n        /* \"#utility.yul\":16238:16394   */\n      tag_288\n      jump\t// in\n    tag_376:\n        /* \"#utility.yul\":16230:16394   */\n      swap1\n      pop\n        /* \"#utility.yul\":16128:16401   */\n      swap3\n      swap2\n      pop\n      pop\n      jump\t// out\n        /* \"#utility.yul\":16407:16876   */\n    tag_54:\n      0x00\n        /* \"#utility.yul\":16636:16638   */\n      0x20\n        /* \"#utility.yul\":16625:16634   */\n      dup3\n        /* \"#utility.yul\":16621:16639   */\n      add\n        /* \"#utility.yul\":16613:16639   */\n      swap1\n      pop\n        /* \"#utility.yul\":16685:16694   */\n      dup2\n        /* \"#utility.yul\":16679:16683   */\n      dup2\n        /* \"#utility.yul\":16675:16695   */\n      sub\n        /* \"#utility.yul\":16671:16672   */\n      0x00\n        /* \"#utility.yul\":16660:16669   */\n      dup4\n        /* \"#utility.yul\":16656:16673   */\n      add\n        /* \"#utility.yul\":16649:16696   */\n      mstore\n        /* \"#utility.yul\":16713:16869   */\n      tag_378\n        /* \"#utility.yul\":16864:16868   */\n      dup2\n        /* \"#utility.yul\":16855:16861   */\n      dup5\n        /* \"#utility.yul\":16713:16869   */\n      tag_302\n      jump\t// in\n    tag_378:\n        /* \"#utility.yul\":16705:16869   */\n      swap1\n      pop\n        /* \"#utility.yul\":16603:16876   */\n      swap3\n      swap2\n      pop\n      pop\n      jump\t// out\n        /* \"#utility.yul\":16882:17819   */\n    tag_68:\n      0x00\n        /* \"#utility.yul\":17185:17188   */\n      0xa0\n        /* \"#utility.yul\":17174:17183   */\n      dup3\n        /* \"#utility.yul\":17170:17189   */\n      add\n        /* \"#utility.yul\":17162:17189   */\n      swap1\n      pop\n        /* \"#utility.yul\":17235:17244   */\n      dup2\n        /* \"#utility.yul\":17229:17233   */\n      dup2\n        /* \"#utility.yul\":17225:17245   */\n      sub\n        /* \"#utility.yul\":17221:17222   */\n      0x00\n        /* \"#utility.yul\":17210:17219   */\n      dup4\n        /* \"#utility.yul\":17206:17223   */\n      add\n        /* \"#utility.yul\":17199:17246   */\n      mstore\n        /* \"#utility.yul\":17263:17341   */\n      tag_380\n        /* \"#utility.yul\":17336:17340   */\n      dup2\n        /* \"#utility.yul\":17327:17333   */\n      dup9\n        /* \"#utility.yul\":17263:17341   */\n      tag_333\n      jump\t// in\n    tag_380:\n        /* \"#utility.yul\":17255:17341   */\n      swap1\n      pop\n        /* \"#utility.yul\":17388:17397   */\n      dup2\n        /* \"#utility.yul\":17382:17386   */\n      dup2\n        /* \"#utility.yul\":17378:17398   */\n      sub\n        /* \"#utility.yul\":17373:17375   */\n      0x20\n        /* \"#utility.yul\":17362:17371   */\n      dup4\n        /* \"#utility.yul\":17358:17376   */\n      add\n        /* \"#utility.yul\":17351:17399   */\n      mstore\n        /* \"#utility.yul\":17416:17494   */\n      tag_381\n        /* \"#utility.yul\":17489:17493   */\n      dup2\n        /* \"#utility.yul\":17480:17486   */\n      dup8\n        /* \"#utility.yul\":17416:17494   */\n      tag_333\n      jump\t// in\n    tag_381:\n        /* \"#utility.yul\":17408:17494   */\n      swap1\n      pop\n        /* \"#utility.yul\":17541:17550   */\n      dup2\n        /* \"#utility.yul\":17535:17539   */\n      dup2\n        /* \"#utility.yul\":17531:17551   */\n      sub\n        /* \"#utility.yul\":17526:17528   */\n      0x40\n        /* \"#utility.yul\":17515:17524   */\n      dup4\n        /* \"#utility.yul\":17511:17529   */\n      add\n        /* \"#utility.yul\":17504:17552   */\n      mstore\n        /* \"#utility.yul\":17569:17647   */\n      tag_382\n        /* \"#utility.yul\":17642:17646   */\n      dup2\n        /* \"#utility.yul\":17633:17639   */\n      dup7\n        /* \"#utility.yul\":17569:17647   */\n      tag_333\n      jump\t// in\n    tag_382:\n        /* \"#utility.yul\":17561:17647   */\n      swap1\n      pop\n        /* \"#utility.yul\":17657:17729   */\n      tag_383\n        /* \"#utility.yul\":17725:17727   */\n      0x60\n        /* \"#utility.yul\":17714:17723   */\n      dup4\n        /* \"#utility.yul\":17710:17728   */\n      add\n        /* \"#utility.yul\":17701:17707   */\n      dup6\n        /* \"#utility.yul\":17657:17729   */\n      tag_368\n      jump\t// in\n    tag_383:\n        /* \"#utility.yul\":17739:17812   */\n      tag_384\n        /* \"#utility.yul\":17807:17810   */\n      0x80\n        /* \"#utility.yul\":17796:17805   */\n      dup4\n        /* \"#utility.yul\":17792:17811   */\n      add\n        /* \"#utility.yul\":17783:17789   */\n      dup5\n        /* \"#utility.yul\":17739:17812   */\n      tag_368\n      jump\t// in\n    tag_384:\n        /* \"#utility.yul\":17152:17819   */\n      swap7\n      swap6\n      pop\n      pop\n      pop\n      pop\n      pop\n      pop\n      jump\t// out\n        /* \"#utility.yul\":17825:18770   */\n    tag_59:\n      0x00\n        /* \"#utility.yul\":18130:18133   */\n      0xc0\n        /* \"#utility.yul\":18119:18128   */\n      dup3\n        /* \"#utility.yul\":18115:18134   */\n      add\n        /* \"#utility.yul\":18107:18134   */\n      swap1\n      pop\n        /* \"#utility.yul\":18180:18189   */\n      dup2\n        /* \"#utility.yul\":18174:18178   */\n      dup2\n        /* \"#utility.yul\":18170:18190   */\n      sub\n        /* \"#utility.yul\":18166:18167   */\n      0x00\n        /* \"#utility.yul\":18155:18164   */\n      dup4\n        /* \"#utility.yul\":18151:18168   */\n      add\n        /* \"#utility.yul\":18144:18191   */\n      mstore\n        /* \"#utility.yul\":18208:18286   */\n      tag_386\n        /* \"#utility.yul\":18281:18285   */\n      dup2\n        /* \"#utility.yul\":18272:18278   */\n      dup10\n        /* \"#utility.yul\":18208:18286   */\n      tag_333\n      jump\t// in\n    tag_386:\n        /* \"#utility.yul\":18200:18286   */\n      swap1\n      pop\n        /* \"#utility.yul\":18333:18342   */\n      dup2\n        /* \"#utility.yul\":18327:18331   */\n      dup2\n        /* \"#utility.yul\":18323:18343   */\n      sub\n        /* \"#utility.yul\":18318:18320   */\n      0x20\n        /* \"#utility.yul\":18307:18316   */\n      dup4\n        /* \"#utility.yul\":18303:18321   */\n      add\n        /* \"#utility.yul\":18296:18344   */\n      mstore\n        /* \"#utility.yul\":18361:18439   */\n      tag_387\n        /* \"#utility.yul\":18434:18438   */\n      dup2\n        /* \"#utility.yul\":18425:18431   */\n      dup9\n        /* \"#utility.yul\":18361:18439   */\n      tag_333\n      jump\t// in\n    tag_387:\n        /* \"#utility.yul\":18353:18439   */\n      swap1\n      pop\n        /* \"#utility.yul\":18449:18521   */\n      tag_388\n        /* \"#utility.yul\":18517:18519   */\n      0x40\n        /* \"#utility.yul\":18506:18515   */\n      dup4\n        /* \"#utility.yul\":18502:18520   */\n      add\n        /* \"#utility.yul\":18493:18499   */\n      dup8\n        /* \"#utility.yul\":18449:18521   */\n      tag_368\n      jump\t// in\n    tag_388:\n        /* \"#utility.yul\":18531:18603   */\n      tag_389\n        /* \"#utility.yul\":18599:18601   */\n      0x60\n        /* \"#utility.yul\":18588:18597   */\n      dup4\n        /* \"#utility.yul\":18584:18602   */\n      add\n        /* \"#utility.yul\":18575:18581   */\n      dup7\n        /* \"#utility.yul\":18531:18603   */\n      tag_368\n      jump\t// in\n    tag_389:\n        /* \"#utility.yul\":18613:18686   */\n      tag_390\n        /* \"#utility.yul\":18681:18684   */\n      0x80\n        /* \"#utility.yul\":18670:18679   */\n      dup4\n        /* \"#utility.yul\":18666:18685   */\n      add\n        /* \"#utility.yul\":18657:18663   */\n      dup6\n        /* \"#utility.yul\":18613:18686   */\n      tag_271\n      jump\t// in\n    tag_390:\n        /* \"#utility.yul\":18696:18763   */\n      tag_391\n        /* \"#utility.yul\":18758:18761   */\n      0xa0\n        /* \"#utility.yul\":18747:18756   */\n      dup4\n        /* \"#utility.yul\":18743:18762   */\n      add\n        /* \"#utility.yul\":18734:18740   */\n      dup5\n        /* \"#utility.yul\":18696:18763   */\n      tag_320\n      jump\t// in\n    tag_391:\n        /* \"#utility.yul\":18097:18770   */\n      swap8\n      swap7\n      pop\n      pop\n      pop\n      pop\n      pop\n      pop\n      pop\n      jump\t// out\n        /* \"#utility.yul\":18776:19658   */\n    tag_76:\n      0x00\n        /* \"#utility.yul\":19075:19078   */\n      0xc0\n        /* \"#utility.yul\":19064:19073   */\n      dup3\n        /* \"#utility.yul\":19060:19079   */\n      add\n        /* \"#utility.yul\":19052:19079   */\n      swap1\n      pop\n        /* \"#utility.yul\":19125:19134   */\n      dup2\n        /* \"#utility.yul\":19119:19123   */\n      dup2\n        /* \"#utility.yul\":19115:19135   */\n      sub\n        /* \"#utility.yul\":19111:19112   */\n      0x00\n        /* \"#utility.yul\":19100:19109   */\n      dup4\n        /* \"#utility.yul\":19096:19113   */\n      add\n        /* \"#utility.yul\":19089:19136   */\n      mstore\n        /* \"#utility.yul\":19153:19231   */\n      tag_393\n        /* \"#utility.yul\":19226:19230   */\n      dup2\n        /* \"#utility.yul\":19217:19223   */\n      dup10\n        /* \"#utility.yul\":19153:19231   */\n      tag_333\n      jump\t// in\n    tag_393:\n        /* \"#utility.yul\":19145:19231   */\n      swap1\n      pop\n        /* \"#utility.yul\":19241:19313   */\n      tag_394\n        /* \"#utility.yul\":19309:19311   */\n      0x20\n        /* \"#utility.yul\":19298:19307   */\n      dup4\n        /* \"#utility.yul\":19294:19312   */\n      add\n        /* \"#utility.yul\":19285:19291   */\n      dup9\n        /* \"#utility.yul\":19241:19313   */\n      tag_368\n      jump\t// in\n    tag_394:\n        /* \"#utility.yul\":19323:19395   */\n      tag_395\n        /* \"#utility.yul\":19391:19393   */\n      0x40\n        /* \"#utility.yul\":19380:19389   */\n      dup4\n        /* \"#utility.yul\":19376:19394   */\n      add\n        /* \"#utility.yul\":19367:19373   */\n      dup8\n        /* \"#utility.yul\":19323:19395   */\n      tag_368\n      jump\t// in\n    tag_395:\n        /* \"#utility.yul\":19405:19477   */\n      tag_396\n        /* \"#utility.yul\":19473:19475   */\n      0x60\n        /* \"#utility.yul\":19462:19471   */\n      dup4\n        /* \"#utility.yul\":19458:19476   */\n      add\n        /* \"#utility.yul\":19449:19455   */\n      dup7\n        /* \"#utility.yul\":19405:19477   */\n      tag_368\n      jump\t// in\n    tag_396:\n        /* \"#utility.yul\":19487:19560   */\n      tag_397\n        /* \"#utility.yul\":19555:19558   */\n      0x80\n        /* \"#utility.yul\":19544:19553   */\n      dup4\n        /* \"#utility.yul\":19540:19559   */\n      add\n        /* \"#utility.yul\":19531:19537   */\n      dup6\n        /* \"#utility.yul\":19487:19560   */\n      tag_368\n      jump\t// in\n    tag_397:\n        /* \"#utility.yul\":19570:19651   */\n      tag_398\n        /* \"#utility.yul\":19646:19649   */\n      0xa0\n        /* \"#utility.yul\":19635:19644   */\n      dup4\n        /* \"#utility.yul\":19631:19650   */\n      add\n        /* \"#utility.yul\":19622:19628   */\n      dup5\n        /* \"#utility.yul\":19570:19651   */\n      tag_263\n      jump\t// in\n    tag_398:\n        /* \"#utility.yul\":19042:19658   */\n      swap8\n      swap7\n      pop\n      pop\n      pop\n      pop\n      pop\n      pop\n      pop\n      jump\t// out\n        /* \"#utility.yul\":19664:20641   */\n    tag_35:\n      0x00\n        /* \"#utility.yul\":19983:19986   */\n      0xe0\n        /* \"#utility.yul\":19972:19981   */\n      dup3\n        /* \"#utility.yul\":19968:19987   */\n      add\n        /* \"#utility.yul\":19960:19987   */\n      swap1\n      pop\n        /* \"#utility.yul\":20033:20042   */\n      dup2\n        /* \"#utility.yul\":20027:20031   */\n      dup2\n        /* \"#utility.yul\":20023:20043   */\n      sub\n        /* \"#utility.yul\":20019:20020   */\n      0x00\n        /* \"#utility.yul\":20008:20017   */\n      dup4\n        /* \"#utility.yul\":20004:20021   */\n      add\n        /* \"#utility.yul\":19997:20044   */\n      mstore\n        /* \"#utility.yul\":20061:20139   */\n      tag_400\n        /* \"#utility.yul\":20134:20138   */\n      dup2\n        /* \"#utility.yul\":20125:20131   */\n      dup11\n        /* \"#utility.yul\":20061:20139   */\n      tag_333\n      jump\t// in\n    tag_400:\n        /* \"#utility.yul\":20053:20139   */\n      swap1\n      pop\n        /* \"#utility.yul\":20149:20221   */\n      tag_401\n        /* \"#utility.yul\":20217:20219   */\n      0x20\n        /* \"#utility.yul\":20206:20215   */\n      dup4\n        /* \"#utility.yul\":20202:20220   */\n      add\n        /* \"#utility.yul\":20193:20199   */\n      dup10\n        /* \"#utility.yul\":20149:20221   */\n      tag_368\n      jump\t// in\n    tag_401:\n        /* \"#utility.yul\":20231:20303   */\n      tag_402\n        /* \"#utility.yul\":20299:20301   */\n      0x40\n        /* \"#utility.yul\":20288:20297   */\n      dup4\n        /* \"#utility.yul\":20284:20302   */\n      add\n        /* \"#utility.yul\":20275:20281   */\n      dup9\n        /* \"#utility.yul\":20231:20303   */\n      tag_368\n      jump\t// in\n    tag_402:\n        /* \"#utility.yul\":20313:20385   */\n      tag_403\n        /* \"#utility.yul\":20381:20383   */\n      0x60\n        /* \"#utility.yul\":20370:20379   */\n      dup4\n        /* \"#utility.yul\":20366:20384   */\n      add\n        /* \"#utility.yul\":20357:20363   */\n      dup8\n        /* \"#utility.yul\":20313:20385   */\n      tag_368\n      jump\t// in\n    tag_403:\n        /* \"#utility.yul\":20395:20468   */\n      tag_404\n        /* \"#utility.yul\":20463:20466   */\n      0x80\n        /* \"#utility.yul\":20452:20461   */\n      dup4\n        /* \"#utility.yul\":20448:20467   */\n      add\n        /* \"#utility.yul\":20439:20445   */\n      dup7\n        /* \"#utility.yul\":20395:20468   */\n      tag_368\n      jump\t// in\n    tag_404:\n        /* \"#utility.yul\":20478:20551   */\n      tag_405\n        /* \"#utility.yul\":20546:20549   */\n      0xa0\n        /* \"#utility.yul\":20535:20544   */\n      dup4\n        /* \"#utility.yul\":20531:20550   */\n      add\n        /* \"#utility.yul\":20522:20528   */\n      dup6\n        /* \"#utility.yul\":20478:20551   */\n      tag_368\n      jump\t// in\n    tag_405:\n        /* \"#utility.yul\":20561:20634   */\n      tag_406\n        /* \"#utility.yul\":20629:20632   */\n      0xc0\n        /* \"#utility.yul\":20618:20627   */\n      dup4\n        /* \"#utility.yul\":20614:20633   */\n      add\n        /* \"#utility.yul\":20605:20611   */\n      dup5\n        /* \"#utility.yul\":20561:20634   */\n      tag_271\n      jump\t// in\n    tag_406:\n        /* \"#utility.yul\":19950:20641   */\n      swap9\n      swap8\n      pop\n      pop\n      pop\n      pop\n      pop\n      pop\n      pop\n      pop\n      jump\t// out\n        /* \"#utility.yul\":20647:21066   */\n    tag_135:\n      0x00\n        /* \"#utility.yul\":20851:20853   */\n      0x20\n        /* \"#utility.yul\":20840:20849   */\n      dup3\n        /* \"#utility.yul\":20836:20854   */\n      add\n        /* \"#utility.yul\":20828:20854   */\n      swap1\n      pop\n        /* \"#utility.yul\":20900:20909   */\n      dup2\n        /* \"#utility.yul\":20894:20898   */\n      dup2\n        /* \"#utility.yul\":20890:20910   */\n      sub\n        /* \"#utility.yul\":20886:20887   */\n      0x00\n        /* \"#utility.yul\":20875:20884   */\n      dup4\n        /* \"#utility.yul\":20871:20888   */\n      add\n        /* \"#utility.yul\":20864:20911   */\n      mstore\n        /* \"#utility.yul\":20928:21059   */\n      tag_408\n        /* \"#utility.yul\":21054:21058   */\n      dup2\n        /* \"#utility.yul\":20928:21059   */\n      tag_340\n      jump\t// in\n    tag_408:\n        /* \"#utility.yul\":20920:21059   */\n      swap1\n      pop\n        /* \"#utility.yul\":20818:21066   */\n      swap2\n      swap1\n      pop\n      jump\t// out\n        /* \"#utility.yul\":21072:21350   */\n    tag_204:\n      0x00\n        /* \"#utility.yul\":21138:21140   */\n      0x40\n        /* \"#utility.yul\":21132:21141   */\n      mload\n        /* \"#utility.yul\":21122:21141   */\n      swap1\n      pop\n        /* \"#utility.yul\":21180:21184   */\n      dup2\n        /* \"#utility.yul\":21172:21178   */\n      dup2\n        /* \"#utility.yul\":21168:21185   */\n      add\n        /* \"#utility.yul\":21287:21293   */\n      dup2\n        /* \"#utility.yul\":21275:21285   */\n      dup2\n        /* \"#utility.yul\":21272:21294   */\n      lt\n        /* \"#utility.yul\":21251:21269   */\n      0xffffffffffffffff\n        /* \"#utility.yul\":21239:21249   */\n      dup3\n        /* \"#utility.yul\":21236:21270   */\n      gt\n        /* \"#utility.yul\":21233:21295   */\n      or\n        /* \"#utility.yul\":21230:21232   */\n      iszero\n      tag_410\n      jumpi\n        /* \"#utility.yul\":21298:21311   */\n      tag_411\n      tag_412\n      jump\t// in\n    tag_411:\n        /* \"#utility.yul\":21230:21232   */\n    tag_410:\n        /* \"#utility.yul\":21333:21343   */\n      dup1\n        /* \"#utility.yul\":21329:21331   */\n      0x40\n        /* \"#utility.yul\":21322:21344   */\n      mstore\n        /* \"#utility.yul\":21112:21350   */\n      pop\n      swap2\n      swap1\n      pop\n      jump\t// out\n        /* \"#utility.yul\":21356:21683   */\n    tag_203:\n      0x00\n        /* \"#utility.yul\":21508:21526   */\n      0xffffffffffffffff\n        /* \"#utility.yul\":21500:21506   */\n      dup3\n        /* \"#utility.yul\":21497:21527   */\n      gt\n        /* \"#utility.yul\":21494:21496   */\n      iszero\n      tag_414\n      jumpi\n        /* \"#utility.yul\":21530:21543   */\n      tag_415\n      tag_412\n      jump\t// in\n    tag_415:\n        /* \"#utility.yul\":21494:21496   */\n    tag_414:\n        /* \"#utility.yul\":21610:21614   */\n      0x1f\n        /* \"#utility.yul\":21606:21615   */\n      not\n        /* \"#utility.yul\":21599:21603   */\n      0x1f\n        /* \"#utility.yul\":21591:21597   */\n      dup4\n        /* \"#utility.yul\":21587:21604   */\n      add\n        /* \"#utility.yul\":21583:21616   */\n      and\n        /* \"#utility.yul\":21575:21616   */\n      swap1\n      pop\n        /* \"#utility.yul\":21671:21675   */\n      0x20\n        /* \"#utility.yul\":21665:21669   */\n      dup2\n        /* \"#utility.yul\":21661:21676   */\n      add\n        /* \"#utility.yul\":21653:21676   */\n      swap1\n      pop\n        /* \"#utility.yul\":21423:21683   */\n      swap2\n      swap1\n      pop\n      jump\t// out\n        /* \"#utility.yul\":21689:21855   */\n    tag_281:\n      0x00\n        /* \"#utility.yul\":21813:21816   */\n      dup2\n        /* \"#utility.yul\":21805:21816   */\n      swap1\n      pop\n        /* \"#utility.yul\":21843:21847   */\n      0x20\n        /* \"#utility.yul\":21838:21841   */\n      dup3\n        /* \"#utility.yul\":21834:21848   */\n      add\n        /* \"#utility.yul\":21826:21848   */\n      swap1\n      pop\n        /* \"#utility.yul\":21795:21855   */\n      swap2\n      swap1\n      pop\n      jump\t// out\n        /* \"#utility.yul\":21861:22017   */\n    tag_295:\n      0x00\n        /* \"#utility.yul\":21975:21978   */\n      dup2\n        /* \"#utility.yul\":21967:21978   */\n      swap1\n      pop\n        /* \"#utility.yul\":22005:22009   */\n      0x20\n        /* \"#utility.yul\":22000:22003   */\n      dup3\n        /* \"#utility.yul\":21996:22010   */\n      add\n        /* \"#utility.yul\":21988:22010   */\n      swap1\n      pop\n        /* \"#utility.yul\":21957:22017   */\n      swap2\n      swap1\n      pop\n      jump\t// out\n        /* \"#utility.yul\":22023:22179   */\n    tag_309:\n      0x00\n        /* \"#utility.yul\":22137:22140   */\n      dup2\n        /* \"#utility.yul\":22129:22140   */\n      swap1\n      pop\n        /* \"#utility.yul\":22167:22171   */\n      0x20\n        /* \"#utility.yul\":22162:22165   */\n      dup3\n        /* \"#utility.yul\":22158:22172   */\n      add\n        /* \"#utility.yul\":22150:22172   */\n      swap1\n      pop\n        /* \"#utility.yul\":22119:22179   */\n      swap2\n      swap1\n      pop\n      jump\t// out\n        /* \"#utility.yul\":22185:22333   */\n    tag_277:\n      0x00\n        /* \"#utility.yul\":22320:22325   */\n      dup2\n        /* \"#utility.yul\":22314:22326   */\n      mload\n        /* \"#utility.yul\":22304:22326   */\n      swap1\n      pop\n        /* \"#utility.yul\":22293:22333   */\n      swap2\n      swap1\n      pop\n      jump\t// out\n        /* \"#utility.yul\":22339:22477   */\n    tag_291:\n      0x00\n        /* \"#utility.yul\":22464:22469   */\n      dup2\n        /* \"#utility.yul\":22458:22470   */\n      mload\n        /* \"#utility.yul\":22448:22470   */\n      swap1\n      pop\n        /* \"#utility.yul\":22437:22477   */\n      swap2\n      swap1\n      pop\n      jump\t// out\n        /* \"#utility.yul\":22483:22621   */\n    tag_305:\n      0x00\n        /* \"#utility.yul\":22608:22613   */\n      dup2\n        /* \"#utility.yul\":22602:22614   */\n      mload\n        /* \"#utility.yul\":22592:22614   */\n      swap1\n      pop\n        /* \"#utility.yul\":22581:22621   */\n      swap2\n      swap1\n      pop\n      jump\t// out\n        /* \"#utility.yul\":22627:22726   */\n    tag_326:\n      0x00\n        /* \"#utility.yul\":22713:22718   */\n      dup2\n        /* \"#utility.yul\":22707:22719   */\n      mload\n        /* \"#utility.yul\":22697:22719   */\n      swap1\n      pop\n        /* \"#utility.yul\":22686:22726   */\n      swap2\n      swap1\n      pop\n      jump\t// out\n        /* \"#utility.yul\":22732:22879   */\n    tag_287:\n      0x00\n        /* \"#utility.yul\":22868:22872   */\n      0x20\n        /* \"#utility.yul\":22863:22866   */\n      dup3\n        /* \"#utility.yul\":22859:22873   */\n      add\n        /* \"#utility.yul\":22851:22873   */\n      swap1\n      pop\n        /* \"#utility.yul\":22841:22879   */\n      swap2\n      swap1\n      pop\n      jump\t// out\n        /* \"#utility.yul\":22885:23022   */\n    tag_301:\n      0x00\n        /* \"#utility.yul\":23011:23015   */\n      0x20\n        /* \"#utility.yul\":23006:23009   */\n      dup3\n        /* \"#utility.yul\":23002:23016   */\n      add\n        /* \"#utility.yul\":22994:23016   */\n      swap1\n      pop\n        /* \"#utility.yul\":22984:23022   */\n      swap2\n      swap1\n      pop\n      jump\t// out\n        /* \"#utility.yul\":23028:23165   */\n    tag_315:\n      0x00\n        /* \"#utility.yul\":23154:23158   */\n      0x20\n        /* \"#utility.yul\":23149:23152   */\n      dup3\n        /* \"#utility.yul\":23145:23159   */\n      add\n        /* \"#utility.yul\":23137:23159   */\n      swap1\n      pop\n        /* \"#utility.yul\":23127:23165   */\n      swap2\n      swap1\n      pop\n      jump\t// out\n        /* \"#utility.yul\":23171:23389   */\n    tag_279:\n      0x00\n        /* \"#utility.yul\":23338:23344   */\n      dup3\n        /* \"#utility.yul\":23333:23336   */\n      dup3\n        /* \"#utility.yul\":23326:23345   */\n      mstore\n        /* \"#utility.yul\":23378:23382   */\n      0x20\n        /* \"#utility.yul\":23373:23376   */\n      dup3\n        /* \"#utility.yul\":23369:23383   */\n      add\n        /* \"#utility.yul\":23354:23383   */\n      swap1\n      pop\n        /* \"#utility.yul\":23316:23389   */\n      swap3\n      swap2\n      pop\n      pop\n      jump\t// out\n        /* \"#utility.yul\":23395:23603   */\n    tag_293:\n      0x00\n        /* \"#utility.yul\":23552:23558   */\n      dup3\n        /* \"#utility.yul\":23547:23550   */\n      dup3\n        /* \"#utility.yul\":23540:23559   */\n      mstore\n        /* \"#utility.yul\":23592:23596   */\n      0x20\n        /* \"#utility.yul\":23587:23590   */\n      dup3\n        /* \"#utility.yul\":23583:23597   */\n      add\n        /* \"#utility.yul\":23568:23597   */\n      swap1\n      pop\n        /* \"#utility.yul\":23530:23603   */\n      swap3\n      swap2\n      pop\n      pop\n      jump\t// out\n        /* \"#utility.yul\":23609:23817   */\n    tag_307:\n      0x00\n        /* \"#utility.yul\":23766:23772   */\n      dup3\n        /* \"#utility.yul\":23761:23764   */\n      dup3\n        /* \"#utility.yul\":23754:23773   */\n      mstore\n        /* \"#utility.yul\":23806:23810   */\n      0x20\n        /* \"#utility.yul\":23801:23804   */\n      dup3\n        /* \"#utility.yul\":23797:23811   */\n      add\n        /* \"#utility.yul\":23782:23811   */\n      swap1\n      pop\n        /* \"#utility.yul\":23744:23817   */\n      swap3\n      swap2\n      pop\n      pop\n      jump\t// out\n        /* \"#utility.yul\":23823:23982   */\n    tag_328:\n      0x00\n        /* \"#utility.yul\":23931:23937   */\n      dup3\n        /* \"#utility.yul\":23926:23929   */\n      dup3\n        /* \"#utility.yul\":23919:23938   */\n      mstore\n        /* \"#utility.yul\":23971:23975   */\n      0x20\n        /* \"#utility.yul\":23966:23969   */\n      dup3\n        /* \"#utility.yul\":23962:23976   */\n      add\n        /* \"#utility.yul\":23947:23976   */\n      swap1\n      pop\n        /* \"#utility.yul\":23909:23982   */\n      swap3\n      swap2\n      pop\n      pop\n      jump\t// out\n        /* \"#utility.yul\":23988:24157   */\n    tag_337:\n      0x00\n        /* \"#utility.yul\":24106:24112   */\n      dup3\n        /* \"#utility.yul\":24101:24104   */\n      dup3\n        /* \"#utility.yul\":24094:24113   */\n      mstore\n        /* \"#utility.yul\":24146:24150   */\n      0x20\n        /* \"#utility.yul\":24141:24144   */\n      dup3\n        /* \"#utility.yul\":24137:24151   */\n      add\n        /* \"#utility.yul\":24122:24151   */\n      swap1\n      pop\n        /* \"#utility.yul\":24084:24157   */\n      swap3\n      swap2\n      pop\n      pop\n      jump\t// out\n        /* \"#utility.yul\":24163:24259   */\n    tag_270:\n      0x00\n        /* \"#utility.yul\":24229:24253   */\n      tag_432\n        /* \"#utility.yul\":24247:24252   */\n      dup3\n        /* \"#utility.yul\":24229:24253   */\n      tag_433\n      jump\t// in\n    tag_432:\n        /* \"#utility.yul\":24218:24253   */\n      swap1\n      pop\n        /* \"#utility.yul\":24208:24259   */\n      swap2\n      swap1\n      pop\n      jump\t// out\n        /* \"#utility.yul\":24265:24355   */\n    tag_319:\n      0x00\n        /* \"#utility.yul\":24342:24347   */\n      dup2\n        /* \"#utility.yul\":24335:24348   */\n      iszero\n        /* \"#utility.yul\":24328:24349   */\n      iszero\n        /* \"#utility.yul\":24317:24349   */\n      swap1\n      pop\n        /* \"#utility.yul\":24307:24355   */\n      swap2\n      swap1\n      pop\n      jump\t// out\n        /* \"#utility.yul\":24361:24487   */\n    tag_433:\n      0x00\n        /* \"#utility.yul\":24438:24480   */\n      0xffffffffffffffffffffffffffffffffffffffff\n        /* \"#utility.yul\":24431:24436   */\n      dup3\n        /* \"#utility.yul\":24427:24481   */\n      and\n        /* \"#utility.yul\":24416:24481   */\n      swap1\n      pop\n        /* \"#utility.yul\":24406:24487   */\n      swap2\n      swap1\n      pop\n      jump\t// out\n        /* \"#utility.yul\":24493:24570   */\n    tag_367:\n      0x00\n        /* \"#utility.yul\":24559:24564   */\n      dup2\n        /* \"#utility.yul\":24548:24564   */\n      swap1\n      pop\n        /* \"#utility.yul\":24538:24570   */\n      swap2\n      swap1\n      pop\n      jump\t// out\n        /* \"#utility.yul\":24576:24710   */\n    tag_266:\n      0x00\n        /* \"#utility.yul\":24667:24704   */\n      tag_438\n        /* \"#utility.yul\":24698:24703   */\n      dup3\n        /* \"#utility.yul\":24667:24704   */\n      tag_439\n      jump\t// in\n    tag_438:\n        /* \"#utility.yul\":24654:24704   */\n      swap1\n      pop\n        /* \"#utility.yul\":24644:24710   */\n      swap2\n      swap1\n      pop\n      jump\t// out\n        /* \"#utility.yul\":24716:24842   */\n    tag_439:\n      0x00\n        /* \"#utility.yul\":24799:24836   */\n      tag_441\n        /* \"#utility.yul\":24830:24835   */\n      dup3\n        /* \"#utility.yul\":24799:24836   */\n      tag_442\n      jump\t// in\n    tag_441:\n        /* \"#utility.yul\":24786:24836   */\n      swap1\n      pop\n        /* \"#utility.yul\":24776:24842   */\n      swap2\n      swap1\n      pop\n      jump\t// out\n        /* \"#utility.yul\":24848:24961   */\n    tag_442:\n      0x00\n        /* \"#utility.yul\":24931:24955   */\n      tag_444\n        /* \"#utility.yul\":24949:24954   */\n      dup3\n        /* \"#utility.yul\":24931:24955   */\n      tag_433\n      jump\t// in\n    tag_444:\n        /* \"#utility.yul\":24918:24955   */\n      swap1\n      pop\n        /* \"#utility.yul\":24908:24961   */\n      swap2\n      swap1\n      pop\n      jump\t// out\n        /* \"#utility.yul\":24967:25121   */\n    tag_207:\n        /* \"#utility.yul\":25051:25057   */\n      dup3\n        /* \"#utility.yul\":25046:25049   */\n      dup2\n        /* \"#utility.yul\":25041:25044   */\n      dup4\n        /* \"#utility.yul\":25028:25058   */\n      calldatacopy\n        /* \"#utility.yul\":25113:25114   */\n      0x00\n        /* \"#utility.yul\":25104:25110   */\n      dup4\n        /* \"#utility.yul\":25099:25102   */\n      dup4\n        /* \"#utility.yul\":25095:25111   */\n      add\n        /* \"#utility.yul\":25088:25115   */\n      mstore\n        /* \"#utility.yul\":25018:25121   */\n      pop\n      pop\n      pop\n      jump\t// out\n        /* \"#utility.yul\":25127:25434   */\n    tag_330:\n        /* \"#utility.yul\":25195:25196   */\n      0x00\n        /* \"#utility.yul\":25205:25318   */\n    tag_447:\n        /* \"#utility.yul\":25219:25225   */\n      dup4\n        /* \"#utility.yul\":25216:25217   */\n      dup2\n        /* \"#utility.yul\":25213:25226   */\n      lt\n        /* \"#utility.yul\":25205:25318   */\n      iszero\n      tag_449\n      jumpi\n        /* \"#utility.yul\":25304:25305   */\n      dup1\n        /* \"#utility.yul\":25299:25302   */\n      dup3\n        /* \"#utility.yul\":25295:25306   */\n      add\n        /* \"#utility.yul\":25289:25307   */\n      mload\n        /* \"#utility.yul\":25285:25286   */\n      dup2\n        /* \"#utility.yul\":25280:25283   */\n      dup5\n        /* \"#utility.yul\":25276:25287   */\n      add\n        /* \"#utility.yul\":25269:25308   */\n      mstore\n        /* \"#utility.yul\":25241:25243   */\n      0x20\n        /* \"#utility.yul\":25238:25239   */\n      dup2\n        /* \"#utility.yul\":25234:25244   */\n      add\n        /* \"#utility.yul\":25229:25244   */\n      swap1\n      pop\n        /* \"#utility.yul\":25205:25318   */\n      jump(tag_447)\n    tag_449:\n        /* \"#utility.yul\":25336:25342   */\n      dup4\n        /* \"#utility.yul\":25333:25334   */\n      dup2\n        /* \"#utility.yul\":25330:25343   */\n      gt\n        /* \"#utility.yul\":25327:25329   */\n      iszero\n      tag_450\n      jumpi\n        /* \"#utility.yul\":25416:25417   */\n      0x00\n        /* \"#utility.yul\":25407:25413   */\n      dup5\n        /* \"#utility.yul\":25402:25405   */\n      dup5\n        /* \"#utility.yul\":25398:25414   */\n      add\n        /* \"#utility.yul\":25391:25418   */\n      mstore\n        /* \"#utility.yul\":25327:25329   */\n    tag_450:\n        /* \"#utility.yul\":25176:25434   */\n      pop\n      pop\n      pop\n      pop\n      jump\t// out\n        /* \"#utility.yul\":25440:25488   */\n    tag_412:\n        /* \"#utility.yul\":25473:25482   */\n      invalid\n        /* \"#utility.yul\":25494:25596   */\n    tag_332:\n      0x00\n        /* \"#utility.yul\":25586:25588   */\n      0x1f\n        /* \"#utility.yul\":25582:25589   */\n      not\n        /* \"#utility.yul\":25577:25579   */\n      0x1f\n        /* \"#utility.yul\":25570:25575   */\n      dup4\n        /* \"#utility.yul\":25566:25580   */\n      add\n        /* \"#utility.yul\":25562:25590   */\n      and\n        /* \"#utility.yul\":25552:25590   */\n      swap1\n      pop\n        /* \"#utility.yul\":25542:25596   */\n      swap2\n      swap1\n      pop\n      jump\t// out\n        /* \"#utility.yul\":25602:25724   */\n    tag_211:\n        /* \"#utility.yul\":25675:25699   */\n      tag_454\n        /* \"#utility.yul\":25693:25698   */\n      dup2\n        /* \"#utility.yul\":25675:25699   */\n      tag_270\n      jump\t// in\n    tag_454:\n        /* \"#utility.yul\":25668:25673   */\n      dup2\n        /* \"#utility.yul\":25665:25700   */\n      eq\n        /* \"#utility.yul\":25655:25657   */\n      tag_455\n      jumpi\n        /* \"#utility.yul\":25714:25715   */\n      0x00\n        /* \"#utility.yul\":25711:25712   */\n      dup1\n        /* \"#utility.yul\":25704:25716   */\n      revert\n        /* \"#utility.yul\":25655:25657   */\n    tag_455:\n        /* \"#utility.yul\":25645:25724   */\n      pop\n      jump\t// out\n        /* \"#utility.yul\":25730:25852   */\n    tag_219:\n        /* \"#utility.yul\":25803:25827   */\n      tag_457\n        /* \"#utility.yul\":25821:25826   */\n      dup2\n        /* \"#utility.yul\":25803:25827   */\n      tag_367\n      jump\t// in\n    tag_457:\n        /* \"#utility.yul\":25796:25801   */\n      dup2\n        /* \"#utility.yul\":25793:25828   */\n      eq\n        /* \"#utility.yul\":25783:25785   */\n      tag_458\n      jumpi\n        /* \"#utility.yul\":25842:25843   */\n      0x00\n        /* \"#utility.yul\":25839:25840   */\n      dup1\n        /* \"#utility.yul\":25832:25844   */\n      revert\n        /* \"#utility.yul\":25783:25785   */\n    tag_458:\n        /* \"#utility.yul\":25773:25852   */\n      pop\n      jump\t// out\n    stop\n    data_245f15ff17f551913a7a18385165551503906a406f905ac1c2437281a7cd0cfe 4f776e61626c653a206e6577206f776e657220697320746865207a65726f2061646472657373\n\n    auxdata: 0xa2646970667358221220b6a1fba3da2acbcbaddbf564468f09711c1ca48a0d896717c339356c8eda91cd64736f6c63430007060033\n}\n",
				"bytecode": {
					"linkReferences": {},
					"object": "608060405260006001556000600255600060035534801561001f57600080fd5b5060006100306100d360201b60201c565b9050806000806101000a81548173ffffffffffffffffffffffffffffffffffffffff021916908373ffffffffffffffffffffffffffffffffffffffff1602179055508073ffffffffffffffffffffffffffffffffffffffff16600073ffffffffffffffffffffffffffffffffffffffff167f8be0079c531659141344cd1fd0a4f28419497f9722a3daafe3b4186f6b6457e060405160405180910390a3506100db565b600033905090565b612642806100ea6000396000f3fe608060405234801561001057600080fd5b50600436106100cf5760003560e01c80638da5cb5b1161008c578063ac1eff6811610066578063ac1eff68146101f2578063b2df734914610227578063c0abda2a14610245578063f2fde38b14610279576100cf565b80638da5cb5b1461019a57806395246e7f146101b8578063a935e766146101d4576100cf565b80633a39af26146100d45780634ea1352b146100f0578063715018a61461012057806375348d8e1461012a5780637d81c437146101605780637da67ba81461017c575b600080fd5b6100ee60048036038101906100e99190611c38565b610295565b005b61010a60048036038101906101059190611ad1565b6103e8565b6040516101179190612193565b60405180910390f35b610128610744565b005b610144600480360381019061013f9190611cc7565b6108b1565b6040516101579796959493929190612316565b60405180910390f35b61017a60048036038101906101759190611afa565b6109ab565b005b610184610a6f565b6040516101919190612193565b60405180910390f35b6101a2610d20565b6040516101af9190612156565b60405180910390f35b6101d260048036038101906101cd9190611ba5565b610d49565b005b6101dc610ede565b6040516101e991906121b5565b60405180910390f35b61020c60048036038101906102079190611cc7565b611158565b60405161021e9695949392919061223f565b60405180910390f35b61022f6112f1565b60405161023c9190612171565b60405180910390f35b61025f600480360381019061025a9190611cc7565b6114cc565b6040516102709594939291906121d7565b60405180910390f35b610293600480360381019061028e9190611ad1565b6116ca565b005b6001600081548092919060010191905055506040518060e0016040528086815260200160015481526020018581526020018481526020018381526020018281526020013373ffffffffffffffffffffffffffffffffffffffff1681525060046000600154815260200190815260200160002060008201518160000190805190602001906103239291906118c4565b506020820151816001015560408201518160020155606082015181600301556080820151816004015560a0820151816005015560c08201518160060160006101000a81548173ffffffffffffffffffffffffffffffffffffffff021916908373ffffffffffffffffffffffffffffffffffffffff1602179055509050507f1205bb3261c856d42a9c73ef554781f46cd2ef0647692b11fe20c2f4b89a22108585858585336040516103d9969594939291906122ae565b60405180910390a15050505050565b60606103f26118bc565b73ffffffffffffffffffffffffffffffffffffffff16610410610d20565b73ffffffffffffffffffffffffffffffffffffffff1614610499576040517f08c379a00000000000000000000000000000000000000000000000000000000081526004018080602001828103825260208152602001807f4f776e61626c653a2063616c6c6572206973206e6f7420746865206f776e657281525060200191505060405180910390fd5b600060035467ffffffffffffffff811180156104b457600080fd5b506040519080825280602002602001820160405280156104ee57816020015b6104db611952565b8152602001906001900390816104d35790505b50905060005b60035481101561073a57600660008281526020019081526020016000206040518060a0016040529081600082018054600181600116156101000203166002900480601f0160208091040260200160405190810160405280929190818152602001828054600181600116156101000203166002900480156105b55780601f1061058a576101008083540402835291602001916105b5565b820191906000526020600020905b81548152906001019060200180831161059857829003601f168201915b50505050508152602001600182018054600181600116156101000203166002900480601f0160208091040260200160405190810160405280929190818152602001828054600181600116156101000203166002900480156106575780601f1061062c57610100808354040283529160200191610657565b820191906000526020600020905b81548152906001019060200180831161063a57829003601f168201915b50505050508152602001600282018054600181600116156101000203166002900480601f0160208091040260200160405190810160405280929190818152602001828054600181600116156101000203166002900480156106f95780601f106106ce576101008083540402835291602001916106f9565b820191906000526020600020905b8154815290600101906020018083116106dc57829003601f168201915b505050505081526020016003820154815260200160048201548152505082828151811061072257fe5b602002602001018190525080806001019150506104f4565b5080915050919050565b61074c6118bc565b73ffffffffffffffffffffffffffffffffffffffff1661076a610d20565b73ffffffffffffffffffffffffffffffffffffffff16146107f3576040517f08c379a00000000000000000000000000000000000000000000000000000000081526004018080602001828103825260208152602001807f4f776e61626c653a2063616c6c6572206973206e6f7420746865206f776e657281525060200191505060405180910390fd5b600073ffffffffffffffffffffffffffffffffffffffff1660008054906101000a900473ffffffffffffffffffffffffffffffffffffffff1673ffffffffffffffffffffffffffffffffffffffff167f8be0079c531659141344cd1fd0a4f28419497f9722a3daafe3b4186f6b6457e060405160405180910390a360008060006101000a81548173ffffffffffffffffffffffffffffffffffffffff021916908373ffffffffffffffffffffffffffffffffffffffff160217905550565b6004602052806000526040600020600091509050806000018054600181600116156101000203166002900480601f01602080910402602001604051908101604052809291908181526020018280546001816001161561010002031660029004801561095d5780601f106109325761010080835404028352916020019161095d565b820191906000526020600020905b81548152906001019060200180831161094057829003601f168201915b5050505050908060010154908060020154908060030154908060040154908060050154908060060160009054906101000a900473ffffffffffffffffffffffffffffffffffffffff16905087565b6003600081548092919060010191905055506040518060a001604052808581526020018481526020018381526020018281526020016003548152506006600060035481526020019081526020016000206000820151816000019080519060200190610a179291906118c4565b506020820151816001019080519060200190610a349291906118c4565b506040820151816002019080519060200190610a519291906118c4565b50606082015181600301556080820151816004015590505050505050565b6060600060035467ffffffffffffffff81118015610a8c57600080fd5b50604051908082528060200260200182016040528015610ac657816020015b610ab3611952565b815260200190600190039081610aab5790505b5090506000600190505b6003548111610d1857600660008281526020019081526020016000206040518060a0016040529081600082018054600181600116156101000203166002900480601f016020809104026020016040519081016040528092919081815260200182805460018160011615610100020316600290048015610b905780601f10610b6557610100808354040283529160200191610b90565b820191906000526020600020905b815481529060010190602001808311610b7357829003601f168201915b50505050508152602001600182018054600181600116156101000203166002900480601f016020809104026020016040519081016040528092919081815260200182805460018160011615610100020316600290048015610c325780601f10610c0757610100808354040283529160200191610c32565b820191906000526020600020905b815481529060010190602001808311610c1557829003601f168201915b50505050508152602001600282018054600181600116156101000203166002900480601f016020809104026020016040519081016040528092919081815260200182805460018160011615610100020316600290048015610cd45780601f10610ca957610100808354040283529160200191610cd4565b820191906000526020600020905b815481529060010190602001808311610cb757829003601f168201915b5050505050815260200160038201548152602001600482015481525050826001830381518110610d0057fe5b60200260200101819052508080600101915050610ad0565b508091505090565b60008060009054906101000a900473ffffffffffffffffffffffffffffffffffffffff16905090565b600260008154809291906001019190505550600015156005600084815260200190815260200160002060040160149054906101000a900460ff16151514610dc5576040517f08c379a0000000000000000000000000000000000000000000000000000000008152600401610dbc9061238c565b60405180910390fd5b6040518060c001604052808581526020018481526020018381526020018281526020013373ffffffffffffffffffffffffffffffffffffffff168152602001600115158152506005600060025481526020019081526020016000206000820151816000019080519060200190610e3c9291906118c4565b506020820151816001019080519060200190610e599291906118c4565b50604082015181600201556060820151816003015560808201518160040160006101000a81548173ffffffffffffffffffffffffffffffffffffffff021916908373ffffffffffffffffffffffffffffffffffffffff16021790555060a08201518160040160146101000a81548160ff02191690831515021790555090505050505050565b6060600060025467ffffffffffffffff81118015610efb57600080fd5b50604051908082528060200260200182016040528015610f3557816020015b610f22611981565b815260200190600190039081610f1a5790505b50905060005b60025481101561115057600560008281526020019081526020016000206040518060c0016040529081600082018054600181600116156101000203166002900480601f016020809104026020016040519081016040528092919081815260200182805460018160011615610100020316600290048015610ffc5780601f10610fd157610100808354040283529160200191610ffc565b820191906000526020600020905b815481529060010190602001808311610fdf57829003601f168201915b50505050508152602001600182018054600181600116156101000203166002900480601f01602080910402602001604051908101604052809291908181526020018280546001816001161561010002031660029004801561109e5780601f106110735761010080835404028352916020019161109e565b820191906000526020600020905b81548152906001019060200180831161108157829003601f168201915b5050505050815260200160028201548152602001600382015481526020016004820160009054906101000a900473ffffffffffffffffffffffffffffffffffffffff1673ffffffffffffffffffffffffffffffffffffffff1673ffffffffffffffffffffffffffffffffffffffff1681526020016004820160149054906101000a900460ff16151515158152505082828151811061113857fe5b60200260200101819052508080600101915050610f3b565b508091505090565b6005602052806000526040600020600091509050806000018054600181600116156101000203166002900480601f0160208091040260200160405190810160405280929190818152602001828054600181600116156101000203166002900480156112045780601f106111d957610100808354040283529160200191611204565b820191906000526020600020905b8154815290600101906020018083116111e757829003601f168201915b505050505090806001018054600181600116156101000203166002900480601f0160208091040260200160405190810160405280929190818152602001828054600181600116156101000203166002900480156112a25780601f10611277576101008083540402835291602001916112a2565b820191906000526020600020905b81548152906001019060200180831161128557829003601f168201915b5050505050908060020154908060030154908060040160009054906101000a900473ffffffffffffffffffffffffffffffffffffffff16908060040160149054906101000a900460ff16905086565b6060600060015467ffffffffffffffff8111801561130e57600080fd5b5060405190808252806020026020018201604052801561134857816020015b6113356119cf565b81526020019060019003908161132d5790505b50905060005b6001548110156114c457600460008281526020019081526020016000206040518060e0016040529081600082018054600181600116156101000203166002900480601f01602080910402602001604051908101604052809291908181526020018280546001816001161561010002031660029004801561140f5780601f106113e45761010080835404028352916020019161140f565b820191906000526020600020905b8154815290600101906020018083116113f257829003601f168201915b5050505050815260200160018201548152602001600282015481526020016003820154815260200160048201548152602001600582015481526020016006820160009054906101000a900473ffffffffffffffffffffffffffffffffffffffff1673ffffffffffffffffffffffffffffffffffffffff1673ffffffffffffffffffffffffffffffffffffffff16815250508282815181106114ac57fe5b6020026020010181905250808060010191505061134e565b508091505090565b6006602052806000526040600020600091509050806000018054600181600116156101000203166002900480601f0160208091040260200160405190810160405280929190818152602001828054600181600116156101000203166002900480156115785780601f1061154d57610100808354040283529160200191611578565b820191906000526020600020905b81548152906001019060200180831161155b57829003601f168201915b505050505090806001018054600181600116156101000203166002900480601f0160208091040260200160405190810160405280929190818152602001828054600181600116156101000203166002900480156116165780601f106115eb57610100808354040283529160200191611616565b820191906000526020600020905b8154815290600101906020018083116115f957829003601f168201915b505050505090806002018054600181600116156101000203166002900480601f0160208091040260200160405190810160405280929190818152602001828054600181600116156101000203166002900480156116b45780601f10611689576101008083540402835291602001916116b4565b820191906000526020600020905b81548152906001019060200180831161169757829003601f168201915b5050505050908060030154908060040154905085565b6116d26118bc565b73ffffffffffffffffffffffffffffffffffffffff166116f0610d20565b73ffffffffffffffffffffffffffffffffffffffff1614611779576040517f08c379a00000000000000000000000000000000000000000000000000000000081526004018080602001828103825260208152602001807f4f776e61626c653a2063616c6c6572206973206e6f7420746865206f776e657281525060200191505060405180910390fd5b600073ffffffffffffffffffffffffffffffffffffffff168173ffffffffffffffffffffffffffffffffffffffff1614156117ff576040517f08c379a00000000000000000000000000000000000000000000000000000000081526004018080602001828103825260268152602001806125e76026913960400191505060405180910390fd5b8073ffffffffffffffffffffffffffffffffffffffff1660008054906101000a900473ffffffffffffffffffffffffffffffffffffffff1673ffffffffffffffffffffffffffffffffffffffff167f8be0079c531659141344cd1fd0a4f28419497f9722a3daafe3b4186f6b6457e060405160405180910390a3806000806101000a81548173ffffffffffffffffffffffffffffffffffffffff021916908373ffffffffffffffffffffffffffffffffffffffff16021790555050565b600033905090565b828054600181600116156101000203166002900490600052602060002090601f0160209004810192826118fa5760008555611941565b82601f1061191357805160ff1916838001178555611941565b82800160010185558215611941579182015b82811115611940578251825591602001919060010190611925565b5b50905061194e9190611a22565b5090565b6040518060a0016040528060608152602001606081526020016060815260200160008152602001600081525090565b6040518060c0016040528060608152602001606081526020016000815260200160008152602001600073ffffffffffffffffffffffffffffffffffffffff1681526020016000151581525090565b6040518060e00160405280606081526020016000815260200160008152602001600081526020016000815260200160008152602001600073ffffffffffffffffffffffffffffffffffffffff1681525090565b5b80821115611a3b576000816000905550600101611a23565b5090565b6000611a52611a4d846123dd565b6123ac565b905082815260208101848484011115611a6a57600080fd5b611a75848285612563565b509392505050565b600081359050611a8c816125b8565b92915050565b600082601f830112611aa357600080fd5b8135611ab3848260208601611a3f565b91505092915050565b600081359050611acb816125cf565b92915050565b600060208284031215611ae357600080fd5b6000611af184828501611a7d565b91505092915050565b60008060008060808587031215611b1057600080fd5b600085013567ffffffffffffffff811115611b2a57600080fd5b611b3687828801611a92565b945050602085013567ffffffffffffffff811115611b5357600080fd5b611b5f87828801611a92565b935050604085013567ffffffffffffffff811115611b7c57600080fd5b611b8887828801611a92565b9250506060611b9987828801611abc565b91505092959194509250565b60008060008060808587031215611bbb57600080fd5b600085013567ffffffffffffffff811115611bd557600080fd5b611be187828801611a92565b945050602085013567ffffffffffffffff811115611bfe57600080fd5b611c0a87828801611a92565b9350506040611c1b87828801611abc565b9250506060611c2c87828801611abc565b91505092959194509250565b600080600080600060a08688031215611c5057600080fd5b600086013567ffffffffffffffff811115611c6a57600080fd5b611c7688828901611a92565b9550506020611c8788828901611abc565b9450506040611c9888828901611abc565b9350506060611ca988828901611abc565b9250506080611cba88828901611abc565b9150509295509295909350565b600060208284031215611cd957600080fd5b6000611ce784828501611abc565b91505092915050565b6000611cfc8383611f88565b905092915050565b6000611d108383612024565b905092915050565b6000611d2483836120a8565b905092915050565b611d358161252d565b82525050565b611d44816124e5565b82525050565b611d53816124e5565b82525050565b6000611d648261243d565b611d6e8185612490565b935083602082028501611d808561240d565b8060005b85811015611dbc5784840389528151611d9d8582611cf0565b9450611da883612469565b925060208a01995050600181019050611d84565b50829750879550505050505092915050565b6000611dd982612448565b611de381856124a1565b935083602082028501611df58561241d565b8060005b85811015611e315784840389528151611e128582611d04565b9450611e1d83612476565b925060208a01995050600181019050611df9565b50829750879550505050505092915050565b6000611e4e82612453565b611e5881856124b2565b935083602082028501611e6a8561242d565b8060005b85811015611ea65784840389528151611e878582611d18565b9450611e9283612483565b925060208a01995050600181019050611e6e565b50829750879550505050505092915050565b611ec1816124f7565b82525050565b611ed0816124f7565b82525050565b6000611ee18261245e565b611eeb81856124c3565b9350611efb818560208601612572565b611f04816125a7565b840191505092915050565b6000611f1a8261245e565b611f2481856124d4565b9350611f34818560208601612572565b611f3d816125a7565b840191505092915050565b6000611f55601c836124d4565b91507f56616c696461746f7220616c72656164792072656769737465726564000000006000830152602082019050919050565b600060e0830160008301518482036000860152611fa58282611ed6565b9150506020830151611fba6020860182612138565b506040830151611fcd6040860182612138565b506060830151611fe06060860182612138565b506080830151611ff36080860182612138565b5060a083015161200660a0860182612138565b5060c083015161201960c0860182611d3b565b508091505092915050565b600060a08301600083015184820360008601526120418282611ed6565b9150506020830151848203602086015261205b8282611ed6565b915050604083015184820360408601526120758282611ed6565b915050606083015161208a6060860182612138565b50608083015161209d6080860182612138565b508091505092915050565b600060c08301600083015184820360008601526120c58282611ed6565b915050602083015184820360208601526120df8282611ed6565b91505060408301516120f46040860182612138565b5060608301516121076060860182612138565b50608083015161211a6080860182611d3b565b5060a083015161212d60a0860182611eb8565b508091505092915050565b61214181612523565b82525050565b61215081612523565b82525050565b600060208201905061216b6000830184611d4a565b92915050565b6000602082019050818103600083015261218b8184611d59565b905092915050565b600060208201905081810360008301526121ad8184611dce565b905092915050565b600060208201905081810360008301526121cf8184611e43565b905092915050565b600060a08201905081810360008301526121f18188611f0f565b905081810360208301526122058187611f0f565b905081810360408301526122198186611f0f565b90506122286060830185612147565b6122356080830184612147565b9695505050505050565b600060c08201905081810360008301526122598189611f0f565b9050818103602083015261226d8188611f0f565b905061227c6040830187612147565b6122896060830186612147565b6122966080830185611d4a565b6122a360a0830184611ec7565b979650505050505050565b600060c08201905081810360008301526122c88189611f0f565b90506122d76020830188612147565b6122e46040830187612147565b6122f16060830186612147565b6122fe6080830185612147565b61230b60a0830184611d2c565b979650505050505050565b600060e0820190508181036000830152612330818a611f0f565b905061233f6020830189612147565b61234c6040830188612147565b6123596060830187612147565b6123666080830186612147565b61237360a0830185612147565b61238060c0830184611d4a565b98975050505050505050565b600060208201905081810360008301526123a581611f48565b9050919050565b6000604051905081810181811067ffffffffffffffff821117156123d3576123d26125a5565b5b8060405250919050565b600067ffffffffffffffff8211156123f8576123f76125a5565b5b601f19601f8301169050602081019050919050565b6000819050602082019050919050565b6000819050602082019050919050565b6000819050602082019050919050565b600081519050919050565b600081519050919050565b600081519050919050565b600081519050919050565b6000602082019050919050565b6000602082019050919050565b6000602082019050919050565b600082825260208201905092915050565b600082825260208201905092915050565b600082825260208201905092915050565b600082825260208201905092915050565b600082825260208201905092915050565b60006124f082612503565b9050919050565b60008115159050919050565b600073ffffffffffffffffffffffffffffffffffffffff82169050919050565b6000819050919050565b60006125388261253f565b9050919050565b600061254a82612551565b9050919050565b600061255c82612503565b9050919050565b82818337600083830152505050565b60005b83811015612590578082015181840152602081019050612575565b8381111561259f576000848401525b50505050565bfe5b6000601f19601f8301169050919050565b6125c1816124e5565b81146125cc57600080fd5b50565b6125d881612523565b81146125e357600080fd5b5056fe4f776e61626c653a206e6577206f776e657220697320746865207a65726f2061646472657373a2646970667358221220b6a1fba3da2acbcbaddbf564468f09711c1ca48a0d896717c339356c8eda91cd64736f6c63430007060033",
					"opcodes": "PUSH1 0x80 PUSH1 0x40 MSTORE PUSH1 0x0 PUSH1 0x1 SSTORE PUSH1 0x0 PUSH1 0x2 SSTORE PUSH1 0x0 PUSH1 0x3 SSTORE CALLVALUE DUP1 ISZERO PUSH2 0x1F JUMPI PUSH1 0x0 DUP1 REVERT JUMPDEST POP PUSH1 0x0 PUSH2 0x30 PUSH2 0xD3 PUSH1 0x20 SHL PUSH1 0x20 SHR JUMP JUMPDEST SWAP1 POP DUP1 PUSH1 0x0 DUP1 PUSH2 0x100 EXP DUP2 SLOAD DUP2 PUSH20 0xFFFFFFFFFFFFFFFFFFFFFFFFFFFFFFFFFFFFFFFF MUL NOT AND SWAP1 DUP4 PUSH20 0xFFFFFFFFFFFFFFFFFFFFFFFFFFFFFFFFFFFFFFFF AND MUL OR SWAP1 SSTORE POP DUP1 PUSH20 0xFFFFFFFFFFFFFFFFFFFFFFFFFFFFFFFFFFFFFFFF AND PUSH1 0x0 PUSH20 0xFFFFFFFFFFFFFFFFFFFFFFFFFFFFFFFFFFFFFFFF AND PUSH32 0x8BE0079C531659141344CD1FD0A4F28419497F9722A3DAAFE3B4186F6B6457E0 PUSH1 0x40 MLOAD PUSH1 0x40 MLOAD DUP1 SWAP2 SUB SWAP1 LOG3 POP PUSH2 0xDB JUMP JUMPDEST PUSH1 0x0 CALLER SWAP1 POP SWAP1 JUMP JUMPDEST PUSH2 0x2642 DUP1 PUSH2 0xEA PUSH1 0x0 CODECOPY PUSH1 0x0 RETURN INVALID PUSH1 0x80 PUSH1 0x40 MSTORE CALLVALUE DUP1 ISZERO PUSH2 0x10 JUMPI PUSH1 0x0 DUP1 REVERT JUMPDEST POP PUSH1 0x4 CALLDATASIZE LT PUSH2 0xCF JUMPI PUSH1 0x0 CALLDATALOAD PUSH1 0xE0 SHR DUP1 PUSH4 0x8DA5CB5B GT PUSH2 0x8C JUMPI DUP1 PUSH4 0xAC1EFF68 GT PUSH2 0x66 JUMPI DUP1 PUSH4 0xAC1EFF68 EQ PUSH2 0x1F2 JUMPI DUP1 PUSH4 0xB2DF7349 EQ PUSH2 0x227 JUMPI DUP1 PUSH4 0xC0ABDA2A EQ PUSH2 0x245 JUMPI DUP1 PUSH4 0xF2FDE38B EQ PUSH2 0x279 JUMPI PUSH2 0xCF JUMP JUMPDEST DUP1 PUSH4 0x8DA5CB5B EQ PUSH2 0x19A JUMPI DUP1 PUSH4 0x95246E7F EQ PUSH2 0x1B8 JUMPI DUP1 PUSH4 0xA935E766 EQ PUSH2 0x1D4 JUMPI PUSH2 0xCF JUMP JUMPDEST DUP1 PUSH4 0x3A39AF26 EQ PUSH2 0xD4 JUMPI DUP1 PUSH4 0x4EA1352B EQ PUSH2 0xF0 JUMPI DUP1 PUSH4 0x715018A6 EQ PUSH2 0x120 JUMPI DUP1 PUSH4 0x75348D8E EQ PUSH2 0x12A JUMPI DUP1 PUSH4 0x7D81C437 EQ PUSH2 0x160 JUMPI DUP1 PUSH4 0x7DA67BA8 EQ PUSH2 0x17C JUMPI JUMPDEST PUSH1 0x0 DUP1 REVERT JUMPDEST PUSH2 0xEE PUSH1 0x4 DUP1 CALLDATASIZE SUB DUP2 ADD SWAP1 PUSH2 0xE9 SWAP2 SWAP1 PUSH2 0x1C38 JUMP JUMPDEST PUSH2 0x295 JUMP JUMPDEST STOP JUMPDEST PUSH2 0x10A PUSH1 0x4 DUP1 CALLDATASIZE SUB DUP2 ADD SWAP1 PUSH2 0x105 SWAP2 SWAP1 PUSH2 0x1AD1 JUMP JUMPDEST PUSH2 0x3E8 JUMP JUMPDEST PUSH1 0x40 MLOAD PUSH2 0x117 SWAP2 SWAP1 PUSH2 0x2193 JUMP JUMPDEST PUSH1 0x40 MLOAD DUP1 SWAP2 SUB SWAP1 RETURN JUMPDEST PUSH2 0x128 PUSH2 0x744 JUMP JUMPDEST STOP JUMPDEST PUSH2 0x144 PUSH1 0x4 DUP1 CALLDATASIZE SUB DUP2 ADD SWAP1 PUSH2 0x13F SWAP2 SWAP1 PUSH2 0x1CC7 JUMP JUMPDEST PUSH2 0x8B1 JUMP JUMPDEST PUSH1 0x40 MLOAD PUSH2 0x157 SWAP8 SWAP7 SWAP6 SWAP5 SWAP4 SWAP3 SWAP2 SWAP1 PUSH2 0x2316 JUMP JUMPDEST PUSH1 0x40 MLOAD DUP1 SWAP2 SUB SWAP1 RETURN JUMPDEST PUSH2 0x17A PUSH1 0x4 DUP1 CALLDATASIZE SUB DUP2 ADD SWAP1 PUSH2 0x175 SWAP2 SWAP1 PUSH2 0x1AFA JUMP JUMPDEST PUSH2 0x9AB JUMP JUMPDEST STOP JUMPDEST PUSH2 0x184 PUSH2 0xA6F JUMP JUMPDEST PUSH1 0x40 MLOAD PUSH2 0x191 SWAP2 SWAP1 PUSH2 0x2193 JUMP JUMPDEST PUSH1 0x40 MLOAD DUP1 SWAP2 SUB SWAP1 RETURN JUMPDEST PUSH2 0x1A2 PUSH2 0xD20 JUMP JUMPDEST PUSH1 0x40 MLOAD PUSH2 0x1AF SWAP2 SWAP1 PUSH2 0x2156 JUMP JUMPDEST PUSH1 0x40 MLOAD DUP1 SWAP2 SUB SWAP1 RETURN JUMPDEST PUSH2 0x1D2 PUSH1 0x4 DUP1 CALLDATASIZE SUB DUP2 ADD SWAP1 PUSH2 0x1CD SWAP2 SWAP1 PUSH2 0x1BA5 JUMP JUMPDEST PUSH2 0xD49 JUMP JUMPDEST STOP JUMPDEST PUSH2 0x1DC PUSH2 0xEDE JUMP JUMPDEST PUSH1 0x40 MLOAD PUSH2 0x1E9 SWAP2 SWAP1 PUSH2 0x21B5 JUMP JUMPDEST PUSH1 0x40 MLOAD DUP1 SWAP2 SUB SWAP1 RETURN JUMPDEST PUSH2 0x20C PUSH1 0x4 DUP1 CALLDATASIZE SUB DUP2 ADD SWAP1 PUSH2 0x207 SWAP2 SWAP1 PUSH2 0x1CC7 JUMP JUMPDEST PUSH2 0x1158 JUMP JUMPDEST PUSH1 0x40 MLOAD PUSH2 0x21E SWAP7 SWAP6 SWAP5 SWAP4 SWAP3 SWAP2 SWAP1 PUSH2 0x223F JUMP JUMPDEST PUSH1 0x40 MLOAD DUP1 SWAP2 SUB SWAP1 RETURN JUMPDEST PUSH2 0x22F PUSH2 0x12F1 JUMP JUMPDEST PUSH1 0x40 MLOAD PUSH2 0x23C SWAP2 SWAP1 PUSH2 0x2171 JUMP JUMPDEST PUSH1 0x40 MLOAD DUP1 SWAP2 SUB SWAP1 RETURN JUMPDEST PUSH2 0x25F PUSH1 0x4 DUP1 CALLDATASIZE SUB DUP2 ADD SWAP1 PUSH2 0x25A SWAP2 SWAP1 PUSH2 0x1CC7 JUMP JUMPDEST PUSH2 0x14CC JUMP JUMPDEST PUSH1 0x40 MLOAD PUSH2 0x270 SWAP6 SWAP5 SWAP4 SWAP3 SWAP2 SWAP1 PUSH2 0x21D7 JUMP JUMPDEST PUSH1 0x40 MLOAD DUP1 SWAP2 SUB SWAP1 RETURN JUMPDEST PUSH2 0x293 PUSH1 0x4 DUP1 CALLDATASIZE SUB DUP2 ADD SWAP1 PUSH2 0x28E SWAP2 SWAP1 PUSH2 0x1AD1 JUMP JUMPDEST PUSH2 0x16CA JUMP JUMPDEST STOP JUMPDEST PUSH1 0x1 PUSH1 0x0 DUP2 SLOAD DUP1 SWAP3 SWAP2 SWAP1 PUSH1 0x1 ADD SWAP2 SWAP1 POP SSTORE POP PUSH1 0x40 MLOAD DUP1 PUSH1 0xE0 ADD PUSH1 0x40 MSTORE DUP1 DUP7 DUP2 MSTORE PUSH1 0x20 ADD PUSH1 0x1 SLOAD DUP2 MSTORE PUSH1 0x20 ADD DUP6 DUP2 MSTORE PUSH1 0x20 ADD DUP5 DUP2 MSTORE PUSH1 0x20 ADD DUP4 DUP2 MSTORE PUSH1 0x20 ADD DUP3 DUP2 MSTORE PUSH1 0x20 ADD CALLER PUSH20 0xFFFFFFFFFFFFFFFFFFFFFFFFFFFFFFFFFFFFFFFF AND DUP2 MSTORE POP PUSH1 0x4 PUSH1 0x0 PUSH1 0x1 SLOAD DUP2 MSTORE PUSH1 0x20 ADD SWAP1 DUP2 MSTORE PUSH1 0x20 ADD PUSH1 0x0 KECCAK256 PUSH1 0x0 DUP3 ADD MLOAD DUP2 PUSH1 0x0 ADD SWAP1 DUP1 MLOAD SWAP1 PUSH1 0x20 ADD SWAP1 PUSH2 0x323 SWAP3 SWAP2 SWAP1 PUSH2 0x18C4 JUMP JUMPDEST POP PUSH1 0x20 DUP3 ADD MLOAD DUP2 PUSH1 0x1 ADD SSTORE PUSH1 0x40 DUP3 ADD MLOAD DUP2 PUSH1 0x2 ADD SSTORE PUSH1 0x60 DUP3 ADD MLOAD DUP2 PUSH1 0x3 ADD SSTORE PUSH1 0x80 DUP3 ADD MLOAD DUP2 PUSH1 0x4 ADD SSTORE PUSH1 0xA0 DUP3 ADD MLOAD DUP2 PUSH1 0x5 ADD SSTORE PUSH1 0xC0 DUP3 ADD MLOAD DUP2 PUSH1 0x6 ADD PUSH1 0x0 PUSH2 0x100 EXP DUP2 SLOAD DUP2 PUSH20 0xFFFFFFFFFFFFFFFFFFFFFFFFFFFFFFFFFFFFFFFF MUL NOT AND SWAP1 DUP4 PUSH20 0xFFFFFFFFFFFFFFFFFFFFFFFFFFFFFFFFFFFFFFFF AND MUL OR SWAP1 SSTORE POP SWAP1 POP POP PUSH32 0x1205BB3261C856D42A9C73EF554781F46CD2EF0647692B11FE20C2F4B89A2210 DUP6 DUP6 DUP6 DUP6 DUP6 CALLER PUSH1 0x40 MLOAD PUSH2 0x3D9 SWAP7 SWAP6 SWAP5 SWAP4 SWAP3 SWAP2 SWAP1 PUSH2 0x22AE JUMP JUMPDEST PUSH1 0x40 MLOAD DUP1 SWAP2 SUB SWAP1 LOG1 POP POP POP POP POP JUMP JUMPDEST PUSH1 0x60 PUSH2 0x3F2 PUSH2 0x18BC JUMP JUMPDEST PUSH20 0xFFFFFFFFFFFFFFFFFFFFFFFFFFFFFFFFFFFFFFFF AND PUSH2 0x410 PUSH2 0xD20 JUMP JUMPDEST PUSH20 0xFFFFFFFFFFFFFFFFFFFFFFFFFFFFFFFFFFFFFFFF AND EQ PUSH2 0x499 JUMPI PUSH1 0x40 MLOAD PUSH32 0x8C379A000000000000000000000000000000000000000000000000000000000 DUP2 MSTORE PUSH1 0x4 ADD DUP1 DUP1 PUSH1 0x20 ADD DUP3 DUP2 SUB DUP3 MSTORE PUSH1 0x20 DUP2 MSTORE PUSH1 0x20 ADD DUP1 PUSH32 0x4F776E61626C653A2063616C6C6572206973206E6F7420746865206F776E6572 DUP2 MSTORE POP PUSH1 0x20 ADD SWAP2 POP POP PUSH1 0x40 MLOAD DUP1 SWAP2 SUB SWAP1 REVERT JUMPDEST PUSH1 0x0 PUSH1 0x3 SLOAD PUSH8 0xFFFFFFFFFFFFFFFF DUP2 GT DUP1 ISZERO PUSH2 0x4B4 JUMPI PUSH1 0x0 DUP1 REVERT JUMPDEST POP PUSH1 0x40 MLOAD SWAP1 DUP1 DUP3 MSTORE DUP1 PUSH1 0x20 MUL PUSH1 0x20 ADD DUP3 ADD PUSH1 0x40 MSTORE DUP1 ISZERO PUSH2 0x4EE JUMPI DUP2 PUSH1 0x20 ADD JUMPDEST PUSH2 0x4DB PUSH2 0x1952 JUMP JUMPDEST DUP2 MSTORE PUSH1 0x20 ADD SWAP1 PUSH1 0x1 SWAP1 SUB SWAP1 DUP2 PUSH2 0x4D3 JUMPI SWAP1 POP JUMPDEST POP SWAP1 POP PUSH1 0x0 JUMPDEST PUSH1 0x3 SLOAD DUP2 LT ISZERO PUSH2 0x73A JUMPI PUSH1 0x6 PUSH1 0x0 DUP3 DUP2 MSTORE PUSH1 0x20 ADD SWAP1 DUP2 MSTORE PUSH1 0x20 ADD PUSH1 0x0 KECCAK256 PUSH1 0x40 MLOAD DUP1 PUSH1 0xA0 ADD PUSH1 0x40 MSTORE SWAP1 DUP2 PUSH1 0x0 DUP3 ADD DUP1 SLOAD PUSH1 0x1 DUP2 PUSH1 0x1 AND ISZERO PUSH2 0x100 MUL SUB AND PUSH1 0x2 SWAP1 DIV DUP1 PUSH1 0x1F ADD PUSH1 0x20 DUP1 SWAP2 DIV MUL PUSH1 0x20 ADD PUSH1 0x40 MLOAD SWAP1 DUP2 ADD PUSH1 0x40 MSTORE DUP1 SWAP3 SWAP2 SWAP1 DUP2 DUP2 MSTORE PUSH1 0x20 ADD DUP3 DUP1 SLOAD PUSH1 0x1 DUP2 PUSH1 0x1 AND ISZERO PUSH2 0x100 MUL SUB AND PUSH1 0x2 SWAP1 DIV DUP1 ISZERO PUSH2 0x5B5 JUMPI DUP1 PUSH1 0x1F LT PUSH2 0x58A JUMPI PUSH2 0x100 DUP1 DUP4 SLOAD DIV MUL DUP4 MSTORE SWAP2 PUSH1 0x20 ADD SWAP2 PUSH2 0x5B5 JUMP JUMPDEST DUP3 ADD SWAP2 SWAP1 PUSH1 0x0 MSTORE PUSH1 0x20 PUSH1 0x0 KECCAK256 SWAP1 JUMPDEST DUP2 SLOAD DUP2 MSTORE SWAP1 PUSH1 0x1 ADD SWAP1 PUSH1 0x20 ADD DUP1 DUP4 GT PUSH2 0x598 JUMPI DUP3 SWAP1 SUB PUSH1 0x1F AND DUP3 ADD SWAP2 JUMPDEST POP POP POP POP POP DUP2 MSTORE PUSH1 0x20 ADD PUSH1 0x1 DUP3 ADD DUP1 SLOAD PUSH1 0x1 DUP2 PUSH1 0x1 AND ISZERO PUSH2 0x100 MUL SUB AND PUSH1 0x2 SWAP1 DIV DUP1 PUSH1 0x1F ADD PUSH1 0x20 DUP1 SWAP2 DIV MUL PUSH1 0x20 ADD PUSH1 0x40 MLOAD SWAP1 DUP2 ADD PUSH1 0x40 MSTORE DUP1 SWAP3 SWAP2 SWAP1 DUP2 DUP2 MSTORE PUSH1 0x20 ADD DUP3 DUP1 SLOAD PUSH1 0x1 DUP2 PUSH1 0x1 AND ISZERO PUSH2 0x100 MUL SUB AND PUSH1 0x2 SWAP1 DIV DUP1 ISZERO PUSH2 0x657 JUMPI DUP1 PUSH1 0x1F LT PUSH2 0x62C JUMPI PUSH2 0x100 DUP1 DUP4 SLOAD DIV MUL DUP4 MSTORE SWAP2 PUSH1 0x20 ADD SWAP2 PUSH2 0x657 JUMP JUMPDEST DUP3 ADD SWAP2 SWAP1 PUSH1 0x0 MSTORE PUSH1 0x20 PUSH1 0x0 KECCAK256 SWAP1 JUMPDEST DUP2 SLOAD DUP2 MSTORE SWAP1 PUSH1 0x1 ADD SWAP1 PUSH1 0x20 ADD DUP1 DUP4 GT PUSH2 0x63A JUMPI DUP3 SWAP1 SUB PUSH1 0x1F AND DUP3 ADD SWAP2 JUMPDEST POP POP POP POP POP DUP2 MSTORE PUSH1 0x20 ADD PUSH1 0x2 DUP3 ADD DUP1 SLOAD PUSH1 0x1 DUP2 PUSH1 0x1 AND ISZERO PUSH2 0x100 MUL SUB AND PUSH1 0x2 SWAP1 DIV DUP1 PUSH1 0x1F ADD PUSH1 0x20 DUP1 SWAP2 DIV MUL PUSH1 0x20 ADD PUSH1 0x40 MLOAD SWAP1 DUP2 ADD PUSH1 0x40 MSTORE DUP1 SWAP3 SWAP2 SWAP1 DUP2 DUP2 MSTORE PUSH1 0x20 ADD DUP3 DUP1 SLOAD PUSH1 0x1 DUP2 PUSH1 0x1 AND ISZERO PUSH2 0x100 MUL SUB AND PUSH1 0x2 SWAP1 DIV DUP1 ISZERO PUSH2 0x6F9 JUMPI DUP1 PUSH1 0x1F LT PUSH2 0x6CE JUMPI PUSH2 0x100 DUP1 DUP4 SLOAD DIV MUL DUP4 MSTORE SWAP2 PUSH1 0x20 ADD SWAP2 PUSH2 0x6F9 JUMP JUMPDEST DUP3 ADD SWAP2 SWAP1 PUSH1 0x0 MSTORE PUSH1 0x20 PUSH1 0x0 KECCAK256 SWAP1 JUMPDEST DUP2 SLOAD DUP2 MSTORE SWAP1 PUSH1 0x1 ADD SWAP1 PUSH1 0x20 ADD DUP1 DUP4 GT PUSH2 0x6DC JUMPI DUP3 SWAP1 SUB PUSH1 0x1F AND DUP3 ADD SWAP2 JUMPDEST POP POP POP POP POP DUP2 MSTORE PUSH1 0x20 ADD PUSH1 0x3 DUP3 ADD SLOAD DUP2 MSTORE PUSH1 0x20 ADD PUSH1 0x4 DUP3 ADD SLOAD DUP2 MSTORE POP POP DUP3 DUP3 DUP2 MLOAD DUP2 LT PUSH2 0x722 JUMPI INVALID JUMPDEST PUSH1 0x20 MUL PUSH1 0x20 ADD ADD DUP2 SWAP1 MSTORE POP DUP1 DUP1 PUSH1 0x1 ADD SWAP2 POP POP PUSH2 0x4F4 JUMP JUMPDEST POP DUP1 SWAP2 POP POP SWAP2 SWAP1 POP JUMP JUMPDEST PUSH2 0x74C PUSH2 0x18BC JUMP JUMPDEST PUSH20 0xFFFFFFFFFFFFFFFFFFFFFFFFFFFFFFFFFFFFFFFF AND PUSH2 0x76A PUSH2 0xD20 JUMP JUMPDEST PUSH20 0xFFFFFFFFFFFFFFFFFFFFFFFFFFFFFFFFFFFFFFFF AND EQ PUSH2 0x7F3 JUMPI PUSH1 0x40 MLOAD PUSH32 0x8C379A000000000000000000000000000000000000000000000000000000000 DUP2 MSTORE PUSH1 0x4 ADD DUP1 DUP1 PUSH1 0x20 ADD DUP3 DUP2 SUB DUP3 MSTORE PUSH1 0x20 DUP2 MSTORE PUSH1 0x20 ADD DUP1 PUSH32 0x4F776E61626C653A2063616C6C6572206973206E6F7420746865206F776E6572 DUP2 MSTORE POP PUSH1 0x20 ADD SWAP2 POP POP PUSH1 0x40 MLOAD DUP1 SWAP2 SUB SWAP1 REVERT JUMPDEST PUSH1 0x0 PUSH20 0xFFFFFFFFFFFFFFFFFFFFFFFFFFFFFFFFFFFFFFFF AND PUSH1 0x0 DUP1 SLOAD SWAP1 PUSH2 0x100 EXP SWAP1 DIV PUSH20 0xFFFFFFFFFFFFFFFFFFFFFFFFFFFFFFFFFFFFFFFF AND PUSH20 0xFFFFFFFFFFFFFFFFFFFFFFFFFFFFFFFFFFFFFFFF AND PUSH32 0x8BE0079C531659141344CD1FD0A4F28419497F9722A3DAAFE3B4186F6B6457E0 PUSH1 0x40 MLOAD PUSH1 0x40 MLOAD DUP1 SWAP2 SUB SWAP1 LOG3 PUSH1 0x0 DUP1 PUSH1 0x0 PUSH2 0x100 EXP DUP2 SLOAD DUP2 PUSH20 0xFFFFFFFFFFFFFFFFFFFFFFFFFFFFFFFFFFFFFFFF MUL NOT AND SWAP1 DUP4 PUSH20 0xFFFFFFFFFFFFFFFFFFFFFFFFFFFFFFFFFFFFFFFF AND MUL OR SWAP1 SSTORE POP JUMP JUMPDEST PUSH1 0x4 PUSH1 0x20 MSTORE DUP1 PUSH1 0x0 MSTORE PUSH1 0x40 PUSH1 0x0 KECCAK256 PUSH1 0x0 SWAP2 POP SWAP1 POP DUP1 PUSH1 0x0 ADD DUP1 SLOAD PUSH1 0x1 DUP2 PUSH1 0x1 AND ISZERO PUSH2 0x100 MUL SUB AND PUSH1 0x2 SWAP1 DIV DUP1 PUSH1 0x1F ADD PUSH1 0x20 DUP1 SWAP2 DIV MUL PUSH1 0x20 ADD PUSH1 0x40 MLOAD SWAP1 DUP2 ADD PUSH1 0x40 MSTORE DUP1 SWAP3 SWAP2 SWAP1 DUP2 DUP2 MSTORE PUSH1 0x20 ADD DUP3 DUP1 SLOAD PUSH1 0x1 DUP2 PUSH1 0x1 AND ISZERO PUSH2 0x100 MUL SUB AND PUSH1 0x2 SWAP1 DIV DUP1 ISZERO PUSH2 0x95D JUMPI DUP1 PUSH1 0x1F LT PUSH2 0x932 JUMPI PUSH2 0x100 DUP1 DUP4 SLOAD DIV MUL DUP4 MSTORE SWAP2 PUSH1 0x20 ADD SWAP2 PUSH2 0x95D JUMP JUMPDEST DUP3 ADD SWAP2 SWAP1 PUSH1 0x0 MSTORE PUSH1 0x20 PUSH1 0x0 KECCAK256 SWAP1 JUMPDEST DUP2 SLOAD DUP2 MSTORE SWAP1 PUSH1 0x1 ADD SWAP1 PUSH1 0x20 ADD DUP1 DUP4 GT PUSH2 0x940 JUMPI DUP3 SWAP1 SUB PUSH1 0x1F AND DUP3 ADD SWAP2 JUMPDEST POP POP POP POP POP SWAP1 DUP1 PUSH1 0x1 ADD SLOAD SWAP1 DUP1 PUSH1 0x2 ADD SLOAD SWAP1 DUP1 PUSH1 0x3 ADD SLOAD SWAP1 DUP1 PUSH1 0x4 ADD SLOAD SWAP1 DUP1 PUSH1 0x5 ADD SLOAD SWAP1 DUP1 PUSH1 0x6 ADD PUSH1 0x0 SWAP1 SLOAD SWAP1 PUSH2 0x100 EXP SWAP1 DIV PUSH20 0xFFFFFFFFFFFFFFFFFFFFFFFFFFFFFFFFFFFFFFFF AND SWAP1 POP DUP8 JUMP JUMPDEST PUSH1 0x3 PUSH1 0x0 DUP2 SLOAD DUP1 SWAP3 SWAP2 SWAP1 PUSH1 0x1 ADD SWAP2 SWAP1 POP SSTORE POP PUSH1 0x40 MLOAD DUP1 PUSH1 0xA0 ADD PUSH1 0x40 MSTORE DUP1 DUP6 DUP2 MSTORE PUSH1 0x20 ADD DUP5 DUP2 MSTORE PUSH1 0x20 ADD DUP4 DUP2 MSTORE PUSH1 0x20 ADD DUP3 DUP2 MSTORE PUSH1 0x20 ADD PUSH1 0x3 SLOAD DUP2 MSTORE POP PUSH1 0x6 PUSH1 0x0 PUSH1 0x3 SLOAD DUP2 MSTORE PUSH1 0x20 ADD SWAP1 DUP2 MSTORE PUSH1 0x20 ADD PUSH1 0x0 KECCAK256 PUSH1 0x0 DUP3 ADD MLOAD DUP2 PUSH1 0x0 ADD SWAP1 DUP1 MLOAD SWAP1 PUSH1 0x20 ADD SWAP1 PUSH2 0xA17 SWAP3 SWAP2 SWAP1 PUSH2 0x18C4 JUMP JUMPDEST POP PUSH1 0x20 DUP3 ADD MLOAD DUP2 PUSH1 0x1 ADD SWAP1 DUP1 MLOAD SWAP1 PUSH1 0x20 ADD SWAP1 PUSH2 0xA34 SWAP3 SWAP2 SWAP1 PUSH2 0x18C4 JUMP JUMPDEST POP PUSH1 0x40 DUP3 ADD MLOAD DUP2 PUSH1 0x2 ADD SWAP1 DUP1 MLOAD SWAP1 PUSH1 0x20 ADD SWAP1 PUSH2 0xA51 SWAP3 SWAP2 SWAP1 PUSH2 0x18C4 JUMP JUMPDEST POP PUSH1 0x60 DUP3 ADD MLOAD DUP2 PUSH1 0x3 ADD SSTORE PUSH1 0x80 DUP3 ADD MLOAD DUP2 PUSH1 0x4 ADD SSTORE SWAP1 POP POP POP POP POP POP JUMP JUMPDEST PUSH1 0x60 PUSH1 0x0 PUSH1 0x3 SLOAD PUSH8 0xFFFFFFFFFFFFFFFF DUP2 GT DUP1 ISZERO PUSH2 0xA8C JUMPI PUSH1 0x0 DUP1 REVERT JUMPDEST POP PUSH1 0x40 MLOAD SWAP1 DUP1 DUP3 MSTORE DUP1 PUSH1 0x20 MUL PUSH1 0x20 ADD DUP3 ADD PUSH1 0x40 MSTORE DUP1 ISZERO PUSH2 0xAC6 JUMPI DUP2 PUSH1 0x20 ADD JUMPDEST PUSH2 0xAB3 PUSH2 0x1952 JUMP JUMPDEST DUP2 MSTORE PUSH1 0x20 ADD SWAP1 PUSH1 0x1 SWAP1 SUB SWAP1 DUP2 PUSH2 0xAAB JUMPI SWAP1 POP JUMPDEST POP SWAP1 POP PUSH1 0x0 PUSH1 0x1 SWAP1 POP JUMPDEST PUSH1 0x3 SLOAD DUP2 GT PUSH2 0xD18 JUMPI PUSH1 0x6 PUSH1 0x0 DUP3 DUP2 MSTORE PUSH1 0x20 ADD SWAP1 DUP2 MSTORE PUSH1 0x20 ADD PUSH1 0x0 KECCAK256 PUSH1 0x40 MLOAD DUP1 PUSH1 0xA0 ADD PUSH1 0x40 MSTORE SWAP1 DUP2 PUSH1 0x0 DUP3 ADD DUP1 SLOAD PUSH1 0x1 DUP2 PUSH1 0x1 AND ISZERO PUSH2 0x100 MUL SUB AND PUSH1 0x2 SWAP1 DIV DUP1 PUSH1 0x1F ADD PUSH1 0x20 DUP1 SWAP2 DIV MUL PUSH1 0x20 ADD PUSH1 0x40 MLOAD SWAP1 DUP2 ADD PUSH1 0x40 MSTORE DUP1 SWAP3 SWAP2 SWAP1 DUP2 DUP2 MSTORE PUSH1 0x20 ADD DUP3 DUP1 SLOAD PUSH1 0x1 DUP2 PUSH1 0x1 AND ISZERO PUSH2 0x100 MUL SUB AND PUSH1 0x2 SWAP1 DIV DUP1 ISZERO PUSH2 0xB90 JUMPI DUP1 PUSH1 0x1F LT PUSH2 0xB65 JUMPI PUSH2 0x100 DUP1 DUP4 SLOAD DIV MUL DUP4 MSTORE SWAP2 PUSH1 0x20 ADD SWAP2 PUSH2 0xB90 JUMP JUMPDEST DUP3 ADD SWAP2 SWAP1 PUSH1 0x0 MSTORE PUSH1 0x20 PUSH1 0x0 KECCAK256 SWAP1 JUMPDEST DUP2 SLOAD DUP2 MSTORE SWAP1 PUSH1 0x1 ADD SWAP1 PUSH1 0x20 ADD DUP1 DUP4 GT PUSH2 0xB73 JUMPI DUP3 SWAP1 SUB PUSH1 0x1F AND DUP3 ADD SWAP2 JUMPDEST POP POP POP POP POP DUP2 MSTORE PUSH1 0x20 ADD PUSH1 0x1 DUP3 ADD DUP1 SLOAD PUSH1 0x1 DUP2 PUSH1 0x1 AND ISZERO PUSH2 0x100 MUL SUB AND PUSH1 0x2 SWAP1 DIV DUP1 PUSH1 0x1F ADD PUSH1 0x20 DUP1 SWAP2 DIV MUL PUSH1 0x20 ADD PUSH1 0x40 MLOAD SWAP1 DUP2 ADD PUSH1 0x40 MSTORE DUP1 SWAP3 SWAP2 SWAP1 DUP2 DUP2 MSTORE PUSH1 0x20 ADD DUP3 DUP1 SLOAD PUSH1 0x1 DUP2 PUSH1 0x1 AND ISZERO PUSH2 0x100 MUL SUB AND PUSH1 0x2 SWAP1 DIV DUP1 ISZERO PUSH2 0xC32 JUMPI DUP1 PUSH1 0x1F LT PUSH2 0xC07 JUMPI PUSH2 0x100 DUP1 DUP4 SLOAD DIV MUL DUP4 MSTORE SWAP2 PUSH1 0x20 ADD SWAP2 PUSH2 0xC32 JUMP JUMPDEST DUP3 ADD SWAP2 SWAP1 PUSH1 0x0 MSTORE PUSH1 0x20 PUSH1 0x0 KECCAK256 SWAP1 JUMPDEST DUP2 SLOAD DUP2 MSTORE SWAP1 PUSH1 0x1 ADD SWAP1 PUSH1 0x20 ADD DUP1 DUP4 GT PUSH2 0xC15 JUMPI DUP3 SWAP1 SUB PUSH1 0x1F AND DUP3 ADD SWAP2 JUMPDEST POP POP POP POP POP DUP2 MSTORE PUSH1 0x20 ADD PUSH1 0x2 DUP3 ADD DUP1 SLOAD PUSH1 0x1 DUP2 PUSH1 0x1 AND ISZERO PUSH2 0x100 MUL SUB AND PUSH1 0x2 SWAP1 DIV DUP1 PUSH1 0x1F ADD PUSH1 0x20 DUP1 SWAP2 DIV MUL PUSH1 0x20 ADD PUSH1 0x40 MLOAD SWAP1 DUP2 ADD PUSH1 0x40 MSTORE DUP1 SWAP3 SWAP2 SWAP1 DUP2 DUP2 MSTORE PUSH1 0x20 ADD DUP3 DUP1 SLOAD PUSH1 0x1 DUP2 PUSH1 0x1 AND ISZERO PUSH2 0x100 MUL SUB AND PUSH1 0x2 SWAP1 DIV DUP1 ISZERO PUSH2 0xCD4 JUMPI DUP1 PUSH1 0x1F LT PUSH2 0xCA9 JUMPI PUSH2 0x100 DUP1 DUP4 SLOAD DIV MUL DUP4 MSTORE SWAP2 PUSH1 0x20 ADD SWAP2 PUSH2 0xCD4 JUMP JUMPDEST DUP3 ADD SWAP2 SWAP1 PUSH1 0x0 MSTORE PUSH1 0x20 PUSH1 0x0 KECCAK256 SWAP1 JUMPDEST DUP2 SLOAD DUP2 MSTORE SWAP1 PUSH1 0x1 ADD SWAP1 PUSH1 0x20 ADD DUP1 DUP4 GT PUSH2 0xCB7 JUMPI DUP3 SWAP1 SUB PUSH1 0x1F AND DUP3 ADD SWAP2 JUMPDEST POP POP POP POP POP DUP2 MSTORE PUSH1 0x20 ADD PUSH1 0x3 DUP3 ADD SLOAD DUP2 MSTORE PUSH1 0x20 ADD PUSH1 0x4 DUP3 ADD SLOAD DUP2 MSTORE POP POP DUP3 PUSH1 0x1 DUP4 SUB DUP2 MLOAD DUP2 LT PUSH2 0xD00 JUMPI INVALID JUMPDEST PUSH1 0x20 MUL PUSH1 0x20 ADD ADD DUP2 SWAP1 MSTORE POP DUP1 DUP1 PUSH1 0x1 ADD SWAP2 POP POP PUSH2 0xAD0 JUMP JUMPDEST POP DUP1 SWAP2 POP POP SWAP1 JUMP JUMPDEST PUSH1 0x0 DUP1 PUSH1 0x0 SWAP1 SLOAD SWAP1 PUSH2 0x100 EXP SWAP1 DIV PUSH20 0xFFFFFFFFFFFFFFFFFFFFFFFFFFFFFFFFFFFFFFFF AND SWAP1 POP SWAP1 JUMP JUMPDEST PUSH1 0x2 PUSH1 0x0 DUP2 SLOAD DUP1 SWAP3 SWAP2 SWAP1 PUSH1 0x1 ADD SWAP2 SWAP1 POP SSTORE POP PUSH1 0x0 ISZERO ISZERO PUSH1 0x5 PUSH1 0x0 DUP5 DUP2 MSTORE PUSH1 0x20 ADD SWAP1 DUP2 MSTORE PUSH1 0x20 ADD PUSH1 0x0 KECCAK256 PUSH1 0x4 ADD PUSH1 0x14 SWAP1 SLOAD SWAP1 PUSH2 0x100 EXP SWAP1 DIV PUSH1 0xFF AND ISZERO ISZERO EQ PUSH2 0xDC5 JUMPI PUSH1 0x40 MLOAD PUSH32 0x8C379A000000000000000000000000000000000000000000000000000000000 DUP2 MSTORE PUSH1 0x4 ADD PUSH2 0xDBC SWAP1 PUSH2 0x238C JUMP JUMPDEST PUSH1 0x40 MLOAD DUP1 SWAP2 SUB SWAP1 REVERT JUMPDEST PUSH1 0x40 MLOAD DUP1 PUSH1 0xC0 ADD PUSH1 0x40 MSTORE DUP1 DUP6 DUP2 MSTORE PUSH1 0x20 ADD DUP5 DUP2 MSTORE PUSH1 0x20 ADD DUP4 DUP2 MSTORE PUSH1 0x20 ADD DUP3 DUP2 MSTORE PUSH1 0x20 ADD CALLER PUSH20 0xFFFFFFFFFFFFFFFFFFFFFFFFFFFFFFFFFFFFFFFF AND DUP2 MSTORE PUSH1 0x20 ADD PUSH1 0x1 ISZERO ISZERO DUP2 MSTORE POP PUSH1 0x5 PUSH1 0x0 PUSH1 0x2 SLOAD DUP2 MSTORE PUSH1 0x20 ADD SWAP1 DUP2 MSTORE PUSH1 0x20 ADD PUSH1 0x0 KECCAK256 PUSH1 0x0 DUP3 ADD MLOAD DUP2 PUSH1 0x0 ADD SWAP1 DUP1 MLOAD SWAP1 PUSH1 0x20 ADD SWAP1 PUSH2 0xE3C SWAP3 SWAP2 SWAP1 PUSH2 0x18C4 JUMP JUMPDEST POP PUSH1 0x20 DUP3 ADD MLOAD DUP2 PUSH1 0x1 ADD SWAP1 DUP1 MLOAD SWAP1 PUSH1 0x20 ADD SWAP1 PUSH2 0xE59 SWAP3 SWAP2 SWAP1 PUSH2 0x18C4 JUMP JUMPDEST POP PUSH1 0x40 DUP3 ADD MLOAD DUP2 PUSH1 0x2 ADD SSTORE PUSH1 0x60 DUP3 ADD MLOAD DUP2 PUSH1 0x3 ADD SSTORE PUSH1 0x80 DUP3 ADD MLOAD DUP2 PUSH1 0x4 ADD PUSH1 0x0 PUSH2 0x100 EXP DUP2 SLOAD DUP2 PUSH20 0xFFFFFFFFFFFFFFFFFFFFFFFFFFFFFFFFFFFFFFFF MUL NOT AND SWAP1 DUP4 PUSH20 0xFFFFFFFFFFFFFFFFFFFFFFFFFFFFFFFFFFFFFFFF AND MUL OR SWAP1 SSTORE POP PUSH1 0xA0 DUP3 ADD MLOAD DUP2 PUSH1 0x4 ADD PUSH1 0x14 PUSH2 0x100 EXP DUP2 SLOAD DUP2 PUSH1 0xFF MUL NOT AND SWAP1 DUP4 ISZERO ISZERO MUL OR SWAP1 SSTORE POP SWAP1 POP POP POP POP POP POP JUMP JUMPDEST PUSH1 0x60 PUSH1 0x0 PUSH1 0x2 SLOAD PUSH8 0xFFFFFFFFFFFFFFFF DUP2 GT DUP1 ISZERO PUSH2 0xEFB JUMPI PUSH1 0x0 DUP1 REVERT JUMPDEST POP PUSH1 0x40 MLOAD SWAP1 DUP1 DUP3 MSTORE DUP1 PUSH1 0x20 MUL PUSH1 0x20 ADD DUP3 ADD PUSH1 0x40 MSTORE DUP1 ISZERO PUSH2 0xF35 JUMPI DUP2 PUSH1 0x20 ADD JUMPDEST PUSH2 0xF22 PUSH2 0x1981 JUMP JUMPDEST DUP2 MSTORE PUSH1 0x20 ADD SWAP1 PUSH1 0x1 SWAP1 SUB SWAP1 DUP2 PUSH2 0xF1A JUMPI SWAP1 POP JUMPDEST POP SWAP1 POP PUSH1 0x0 JUMPDEST PUSH1 0x2 SLOAD DUP2 LT ISZERO PUSH2 0x1150 JUMPI PUSH1 0x5 PUSH1 0x0 DUP3 DUP2 MSTORE PUSH1 0x20 ADD SWAP1 DUP2 MSTORE PUSH1 0x20 ADD PUSH1 0x0 KECCAK256 PUSH1 0x40 MLOAD DUP1 PUSH1 0xC0 ADD PUSH1 0x40 MSTORE SWAP1 DUP2 PUSH1 0x0 DUP3 ADD DUP1 SLOAD PUSH1 0x1 DUP2 PUSH1 0x1 AND ISZERO PUSH2 0x100 MUL SUB AND PUSH1 0x2 SWAP1 DIV DUP1 PUSH1 0x1F ADD PUSH1 0x20 DUP1 SWAP2 DIV MUL PUSH1 0x20 ADD PUSH1 0x40 MLOAD SWAP1 DUP2 ADD PUSH1 0x40 MSTORE DUP1 SWAP3 SWAP2 SWAP1 DUP2 DUP2 MSTORE PUSH1 0x20 ADD DUP3 DUP1 SLOAD PUSH1 0x1 DUP2 PUSH1 0x1 AND ISZERO PUSH2 0x100 MUL SUB AND PUSH1 0x2 SWAP1 DIV DUP1 ISZERO PUSH2 0xFFC JUMPI DUP1 PUSH1 0x1F LT PUSH2 0xFD1 JUMPI PUSH2 0x100 DUP1 DUP4 SLOAD DIV MUL DUP4 MSTORE SWAP2 PUSH1 0x20 ADD SWAP2 PUSH2 0xFFC JUMP JUMPDEST DUP3 ADD SWAP2 SWAP1 PUSH1 0x0 MSTORE PUSH1 0x20 PUSH1 0x0 KECCAK256 SWAP1 JUMPDEST DUP2 SLOAD DUP2 MSTORE SWAP1 PUSH1 0x1 ADD SWAP1 PUSH1 0x20 ADD DUP1 DUP4 GT PUSH2 0xFDF JUMPI DUP3 SWAP1 SUB PUSH1 0x1F AND DUP3 ADD SWAP2 JUMPDEST POP POP POP POP POP DUP2 MSTORE PUSH1 0x20 ADD PUSH1 0x1 DUP3 ADD DUP1 SLOAD PUSH1 0x1 DUP2 PUSH1 0x1 AND ISZERO PUSH2 0x100 MUL SUB AND PUSH1 0x2 SWAP1 DIV DUP1 PUSH1 0x1F ADD PUSH1 0x20 DUP1 SWAP2 DIV MUL PUSH1 0x20 ADD PUSH1 0x40 MLOAD SWAP1 DUP2 ADD PUSH1 0x40 MSTORE DUP1 SWAP3 SWAP2 SWAP1 DUP2 DUP2 MSTORE PUSH1 0x20 ADD DUP3 DUP1 SLOAD PUSH1 0x1 DUP2 PUSH1 0x1 AND ISZERO PUSH2 0x100 MUL SUB AND PUSH1 0x2 SWAP1 DIV DUP1 ISZERO PUSH2 0x109E JUMPI DUP1 PUSH1 0x1F LT PUSH2 0x1073 JUMPI PUSH2 0x100 DUP1 DUP4 SLOAD DIV MUL DUP4 MSTORE SWAP2 PUSH1 0x20 ADD SWAP2 PUSH2 0x109E JUMP JUMPDEST DUP3 ADD SWAP2 SWAP1 PUSH1 0x0 MSTORE PUSH1 0x20 PUSH1 0x0 KECCAK256 SWAP1 JUMPDEST DUP2 SLOAD DUP2 MSTORE SWAP1 PUSH1 0x1 ADD SWAP1 PUSH1 0x20 ADD DUP1 DUP4 GT PUSH2 0x1081 JUMPI DUP3 SWAP1 SUB PUSH1 0x1F AND DUP3 ADD SWAP2 JUMPDEST POP POP POP POP POP DUP2 MSTORE PUSH1 0x20 ADD PUSH1 0x2 DUP3 ADD SLOAD DUP2 MSTORE PUSH1 0x20 ADD PUSH1 0x3 DUP3 ADD SLOAD DUP2 MSTORE PUSH1 0x20 ADD PUSH1 0x4 DUP3 ADD PUSH1 0x0 SWAP1 SLOAD SWAP1 PUSH2 0x100 EXP SWAP1 DIV PUSH20 0xFFFFFFFFFFFFFFFFFFFFFFFFFFFFFFFFFFFFFFFF AND PUSH20 0xFFFFFFFFFFFFFFFFFFFFFFFFFFFFFFFFFFFFFFFF AND PUSH20 0xFFFFFFFFFFFFFFFFFFFFFFFFFFFFFFFFFFFFFFFF AND DUP2 MSTORE PUSH1 0x20 ADD PUSH1 0x4 DUP3 ADD PUSH1 0x14 SWAP1 SLOAD SWAP1 PUSH2 0x100 EXP SWAP1 DIV PUSH1 0xFF AND ISZERO ISZERO ISZERO ISZERO DUP2 MSTORE POP POP DUP3 DUP3 DUP2 MLOAD DUP2 LT PUSH2 0x1138 JUMPI INVALID JUMPDEST PUSH1 0x20 MUL PUSH1 0x20 ADD ADD DUP2 SWAP1 MSTORE POP DUP1 DUP1 PUSH1 0x1 ADD SWAP2 POP POP PUSH2 0xF3B JUMP JUMPDEST POP DUP1 SWAP2 POP POP SWAP1 JUMP JUMPDEST PUSH1 0x5 PUSH1 0x20 MSTORE DUP1 PUSH1 0x0 MSTORE PUSH1 0x40 PUSH1 0x0 KECCAK256 PUSH1 0x0 SWAP2 POP SWAP1 POP DUP1 PUSH1 0x0 ADD DUP1 SLOAD PUSH1 0x1 DUP2 PUSH1 0x1 AND ISZERO PUSH2 0x100 MUL SUB AND PUSH1 0x2 SWAP1 DIV DUP1 PUSH1 0x1F ADD PUSH1 0x20 DUP1 SWAP2 DIV MUL PUSH1 0x20 ADD PUSH1 0x40 MLOAD SWAP1 DUP2 ADD PUSH1 0x40 MSTORE DUP1 SWAP3 SWAP2 SWAP1 DUP2 DUP2 MSTORE PUSH1 0x20 ADD DUP3 DUP1 SLOAD PUSH1 0x1 DUP2 PUSH1 0x1 AND ISZERO PUSH2 0x100 MUL SUB AND PUSH1 0x2 SWAP1 DIV DUP1 ISZERO PUSH2 0x1204 JUMPI DUP1 PUSH1 0x1F LT PUSH2 0x11D9 JUMPI PUSH2 0x100 DUP1 DUP4 SLOAD DIV MUL DUP4 MSTORE SWAP2 PUSH1 0x20 ADD SWAP2 PUSH2 0x1204 JUMP JUMPDEST DUP3 ADD SWAP2 SWAP1 PUSH1 0x0 MSTORE PUSH1 0x20 PUSH1 0x0 KECCAK256 SWAP1 JUMPDEST DUP2 SLOAD DUP2 MSTORE SWAP1 PUSH1 0x1 ADD SWAP1 PUSH1 0x20 ADD DUP1 DUP4 GT PUSH2 0x11E7 JUMPI DUP3 SWAP1 SUB PUSH1 0x1F AND DUP3 ADD SWAP2 JUMPDEST POP POP POP POP POP SWAP1 DUP1 PUSH1 0x1 ADD DUP1 SLOAD PUSH1 0x1 DUP2 PUSH1 0x1 AND ISZERO PUSH2 0x100 MUL SUB AND PUSH1 0x2 SWAP1 DIV DUP1 PUSH1 0x1F ADD PUSH1 0x20 DUP1 SWAP2 DIV MUL PUSH1 0x20 ADD PUSH1 0x40 MLOAD SWAP1 DUP2 ADD PUSH1 0x40 MSTORE DUP1 SWAP3 SWAP2 SWAP1 DUP2 DUP2 MSTORE PUSH1 0x20 ADD DUP3 DUP1 SLOAD PUSH1 0x1 DUP2 PUSH1 0x1 AND ISZERO PUSH2 0x100 MUL SUB AND PUSH1 0x2 SWAP1 DIV DUP1 ISZERO PUSH2 0x12A2 JUMPI DUP1 PUSH1 0x1F LT PUSH2 0x1277 JUMPI PUSH2 0x100 DUP1 DUP4 SLOAD DIV MUL DUP4 MSTORE SWAP2 PUSH1 0x20 ADD SWAP2 PUSH2 0x12A2 JUMP JUMPDEST DUP3 ADD SWAP2 SWAP1 PUSH1 0x0 MSTORE PUSH1 0x20 PUSH1 0x0 KECCAK256 SWAP1 JUMPDEST DUP2 SLOAD DUP2 MSTORE SWAP1 PUSH1 0x1 ADD SWAP1 PUSH1 0x20 ADD DUP1 DUP4 GT PUSH2 0x1285 JUMPI DUP3 SWAP1 SUB PUSH1 0x1F AND DUP3 ADD SWAP2 JUMPDEST POP POP POP POP POP SWAP1 DUP1 PUSH1 0x2 ADD SLOAD SWAP1 DUP1 PUSH1 0x3 ADD SLOAD SWAP1 DUP1 PUSH1 0x4 ADD PUSH1 0x0 SWAP1 SLOAD SWAP1 PUSH2 0x100 EXP SWAP1 DIV PUSH20 0xFFFFFFFFFFFFFFFFFFFFFFFFFFFFFFFFFFFFFFFF AND SWAP1 DUP1 PUSH1 0x4 ADD PUSH1 0x14 SWAP1 SLOAD SWAP1 PUSH2 0x100 EXP SWAP1 DIV PUSH1 0xFF AND SWAP1 POP DUP7 JUMP JUMPDEST PUSH1 0x60 PUSH1 0x0 PUSH1 0x1 SLOAD PUSH8 0xFFFFFFFFFFFFFFFF DUP2 GT DUP1 ISZERO PUSH2 0x130E JUMPI PUSH1 0x0 DUP1 REVERT JUMPDEST POP PUSH1 0x40 MLOAD SWAP1 DUP1 DUP3 MSTORE DUP1 PUSH1 0x20 MUL PUSH1 0x20 ADD DUP3 ADD PUSH1 0x40 MSTORE DUP1 ISZERO PUSH2 0x1348 JUMPI DUP2 PUSH1 0x20 ADD JUMPDEST PUSH2 0x1335 PUSH2 0x19CF JUMP JUMPDEST DUP2 MSTORE PUSH1 0x20 ADD SWAP1 PUSH1 0x1 SWAP1 SUB SWAP1 DUP2 PUSH2 0x132D JUMPI SWAP1 POP JUMPDEST POP SWAP1 POP PUSH1 0x0 JUMPDEST PUSH1 0x1 SLOAD DUP2 LT ISZERO PUSH2 0x14C4 JUMPI PUSH1 0x4 PUSH1 0x0 DUP3 DUP2 MSTORE PUSH1 0x20 ADD SWAP1 DUP2 MSTORE PUSH1 0x20 ADD PUSH1 0x0 KECCAK256 PUSH1 0x40 MLOAD DUP1 PUSH1 0xE0 ADD PUSH1 0x40 MSTORE SWAP1 DUP2 PUSH1 0x0 DUP3 ADD DUP1 SLOAD PUSH1 0x1 DUP2 PUSH1 0x1 AND ISZERO PUSH2 0x100 MUL SUB AND PUSH1 0x2 SWAP1 DIV DUP1 PUSH1 0x1F ADD PUSH1 0x20 DUP1 SWAP2 DIV MUL PUSH1 0x20 ADD PUSH1 0x40 MLOAD SWAP1 DUP2 ADD PUSH1 0x40 MSTORE DUP1 SWAP3 SWAP2 SWAP1 DUP2 DUP2 MSTORE PUSH1 0x20 ADD DUP3 DUP1 SLOAD PUSH1 0x1 DUP2 PUSH1 0x1 AND ISZERO PUSH2 0x100 MUL SUB AND PUSH1 0x2 SWAP1 DIV DUP1 ISZERO PUSH2 0x140F JUMPI DUP1 PUSH1 0x1F LT PUSH2 0x13E4 JUMPI PUSH2 0x100 DUP1 DUP4 SLOAD DIV MUL DUP4 MSTORE SWAP2 PUSH1 0x20 ADD SWAP2 PUSH2 0x140F JUMP JUMPDEST DUP3 ADD SWAP2 SWAP1 PUSH1 0x0 MSTORE PUSH1 0x20 PUSH1 0x0 KECCAK256 SWAP1 JUMPDEST DUP2 SLOAD DUP2 MSTORE SWAP1 PUSH1 0x1 ADD SWAP1 PUSH1 0x20 ADD DUP1 DUP4 GT PUSH2 0x13F2 JUMPI DUP3 SWAP1 SUB PUSH1 0x1F AND DUP3 ADD SWAP2 JUMPDEST POP POP POP POP POP DUP2 MSTORE PUSH1 0x20 ADD PUSH1 0x1 DUP3 ADD SLOAD DUP2 MSTORE PUSH1 0x20 ADD PUSH1 0x2 DUP3 ADD SLOAD DUP2 MSTORE PUSH1 0x20 ADD PUSH1 0x3 DUP3 ADD SLOAD DUP2 MSTORE PUSH1 0x20 ADD PUSH1 0x4 DUP3 ADD SLOAD DUP2 MSTORE PUSH1 0x20 ADD PUSH1 0x5 DUP3 ADD SLOAD DUP2 MSTORE PUSH1 0x20 ADD PUSH1 0x6 DUP3 ADD PUSH1 0x0 SWAP1 SLOAD SWAP1 PUSH2 0x100 EXP SWAP1 DIV PUSH20 0xFFFFFFFFFFFFFFFFFFFFFFFFFFFFFFFFFFFFFFFF AND PUSH20 0xFFFFFFFFFFFFFFFFFFFFFFFFFFFFFFFFFFFFFFFF AND PUSH20 0xFFFFFFFFFFFFFFFFFFFFFFFFFFFFFFFFFFFFFFFF AND DUP2 MSTORE POP POP DUP3 DUP3 DUP2 MLOAD DUP2 LT PUSH2 0x14AC JUMPI INVALID JUMPDEST PUSH1 0x20 MUL PUSH1 0x20 ADD ADD DUP2 SWAP1 MSTORE POP DUP1 DUP1 PUSH1 0x1 ADD SWAP2 POP POP PUSH2 0x134E JUMP JUMPDEST POP DUP1 SWAP2 POP POP SWAP1 JUMP JUMPDEST PUSH1 0x6 PUSH1 0x20 MSTORE DUP1 PUSH1 0x0 MSTORE PUSH1 0x40 PUSH1 0x0 KECCAK256 PUSH1 0x0 SWAP2 POP SWAP1 POP DUP1 PUSH1 0x0 ADD DUP1 SLOAD PUSH1 0x1 DUP2 PUSH1 0x1 AND ISZERO PUSH2 0x100 MUL SUB AND PUSH1 0x2 SWAP1 DIV DUP1 PUSH1 0x1F ADD PUSH1 0x20 DUP1 SWAP2 DIV MUL PUSH1 0x20 ADD PUSH1 0x40 MLOAD SWAP1 DUP2 ADD PUSH1 0x40 MSTORE DUP1 SWAP3 SWAP2 SWAP1 DUP2 DUP2 MSTORE PUSH1 0x20 ADD DUP3 DUP1 SLOAD PUSH1 0x1 DUP2 PUSH1 0x1 AND ISZERO PUSH2 0x100 MUL SUB AND PUSH1 0x2 SWAP1 DIV DUP1 ISZERO PUSH2 0x1578 JUMPI DUP1 PUSH1 0x1F LT PUSH2 0x154D JUMPI PUSH2 0x100 DUP1 DUP4 SLOAD DIV MUL DUP4 MSTORE SWAP2 PUSH1 0x20 ADD SWAP2 PUSH2 0x1578 JUMP JUMPDEST DUP3 ADD SWAP2 SWAP1 PUSH1 0x0 MSTORE PUSH1 0x20 PUSH1 0x0 KECCAK256 SWAP1 JUMPDEST DUP2 SLOAD DUP2 MSTORE SWAP1 PUSH1 0x1 ADD SWAP1 PUSH1 0x20 ADD DUP1 DUP4 GT PUSH2 0x155B JUMPI DUP3 SWAP1 SUB PUSH1 0x1F AND DUP3 ADD SWAP2 JUMPDEST POP POP POP POP POP SWAP1 DUP1 PUSH1 0x1 ADD DUP1 SLOAD PUSH1 0x1 DUP2 PUSH1 0x1 AND ISZERO PUSH2 0x100 MUL SUB AND PUSH1 0x2 SWAP1 DIV DUP1 PUSH1 0x1F ADD PUSH1 0x20 DUP1 SWAP2 DIV MUL PUSH1 0x20 ADD PUSH1 0x40 MLOAD SWAP1 DUP2 ADD PUSH1 0x40 MSTORE DUP1 SWAP3 SWAP2 SWAP1 DUP2 DUP2 MSTORE PUSH1 0x20 ADD DUP3 DUP1 SLOAD PUSH1 0x1 DUP2 PUSH1 0x1 AND ISZERO PUSH2 0x100 MUL SUB AND PUSH1 0x2 SWAP1 DIV DUP1 ISZERO PUSH2 0x1616 JUMPI DUP1 PUSH1 0x1F LT PUSH2 0x15EB JUMPI PUSH2 0x100 DUP1 DUP4 SLOAD DIV MUL DUP4 MSTORE SWAP2 PUSH1 0x20 ADD SWAP2 PUSH2 0x1616 JUMP JUMPDEST DUP3 ADD SWAP2 SWAP1 PUSH1 0x0 MSTORE PUSH1 0x20 PUSH1 0x0 KECCAK256 SWAP1 JUMPDEST DUP2 SLOAD DUP2 MSTORE SWAP1 PUSH1 0x1 ADD SWAP1 PUSH1 0x20 ADD DUP1 DUP4 GT PUSH2 0x15F9 JUMPI DUP3 SWAP1 SUB PUSH1 0x1F AND DUP3 ADD SWAP2 JUMPDEST POP POP POP POP POP SWAP1 DUP1 PUSH1 0x2 ADD DUP1 SLOAD PUSH1 0x1 DUP2 PUSH1 0x1 AND ISZERO PUSH2 0x100 MUL SUB AND PUSH1 0x2 SWAP1 DIV DUP1 PUSH1 0x1F ADD PUSH1 0x20 DUP1 SWAP2 DIV MUL PUSH1 0x20 ADD PUSH1 0x40 MLOAD SWAP1 DUP2 ADD PUSH1 0x40 MSTORE DUP1 SWAP3 SWAP2 SWAP1 DUP2 DUP2 MSTORE PUSH1 0x20 ADD DUP3 DUP1 SLOAD PUSH1 0x1 DUP2 PUSH1 0x1 AND ISZERO PUSH2 0x100 MUL SUB AND PUSH1 0x2 SWAP1 DIV DUP1 ISZERO PUSH2 0x16B4 JUMPI DUP1 PUSH1 0x1F LT PUSH2 0x1689 JUMPI PUSH2 0x100 DUP1 DUP4 SLOAD DIV MUL DUP4 MSTORE SWAP2 PUSH1 0x20 ADD SWAP2 PUSH2 0x16B4 JUMP JUMPDEST DUP3 ADD SWAP2 SWAP1 PUSH1 0x0 MSTORE PUSH1 0x20 PUSH1 0x0 KECCAK256 SWAP1 JUMPDEST DUP2 SLOAD DUP2 MSTORE SWAP1 PUSH1 0x1 ADD SWAP1 PUSH1 0x20 ADD DUP1 DUP4 GT PUSH2 0x1697 JUMPI DUP3 SWAP1 SUB PUSH1 0x1F AND DUP3 ADD SWAP2 JUMPDEST POP POP POP POP POP SWAP1 DUP1 PUSH1 0x3 ADD SLOAD SWAP1 DUP1 PUSH1 0x4 ADD SLOAD SWAP1 POP DUP6 JUMP JUMPDEST PUSH2 0x16D2 PUSH2 0x18BC JUMP JUMPDEST PUSH20 0xFFFFFFFFFFFFFFFFFFFFFFFFFFFFFFFFFFFFFFFF AND PUSH2 0x16F0 PUSH2 0xD20 JUMP JUMPDEST PUSH20 0xFFFFFFFFFFFFFFFFFFFFFFFFFFFFFFFFFFFFFFFF AND EQ PUSH2 0x1779 JUMPI PUSH1 0x40 MLOAD PUSH32 0x8C379A000000000000000000000000000000000000000000000000000000000 DUP2 MSTORE PUSH1 0x4 ADD DUP1 DUP1 PUSH1 0x20 ADD DUP3 DUP2 SUB DUP3 MSTORE PUSH1 0x20 DUP2 MSTORE PUSH1 0x20 ADD DUP1 PUSH32 0x4F776E61626C653A2063616C6C6572206973206E6F7420746865206F776E6572 DUP2 MSTORE POP PUSH1 0x20 ADD SWAP2 POP POP PUSH1 0x40 MLOAD DUP1 SWAP2 SUB SWAP1 REVERT JUMPDEST PUSH1 0x0 PUSH20 0xFFFFFFFFFFFFFFFFFFFFFFFFFFFFFFFFFFFFFFFF AND DUP2 PUSH20 0xFFFFFFFFFFFFFFFFFFFFFFFFFFFFFFFFFFFFFFFF AND EQ ISZERO PUSH2 0x17FF JUMPI PUSH1 0x40 MLOAD PUSH32 0x8C379A000000000000000000000000000000000000000000000000000000000 DUP2 MSTORE PUSH1 0x4 ADD DUP1 DUP1 PUSH1 0x20 ADD DUP3 DUP2 SUB DUP3 MSTORE PUSH1 0x26 DUP2 MSTORE PUSH1 0x20 ADD DUP1 PUSH2 0x25E7 PUSH1 0x26 SWAP2 CODECOPY PUSH1 0x40 ADD SWAP2 POP POP PUSH1 0x40 MLOAD DUP1 SWAP2 SUB SWAP1 REVERT JUMPDEST DUP1 PUSH20 0xFFFFFFFFFFFFFFFFFFFFFFFFFFFFFFFFFFFFFFFF AND PUSH1 0x0 DUP1 SLOAD SWAP1 PUSH2 0x100 EXP SWAP1 DIV PUSH20 0xFFFFFFFFFFFFFFFFFFFFFFFFFFFFFFFFFFFFFFFF AND PUSH20 0xFFFFFFFFFFFFFFFFFFFFFFFFFFFFFFFFFFFFFFFF AND PUSH32 0x8BE0079C531659141344CD1FD0A4F28419497F9722A3DAAFE3B4186F6B6457E0 PUSH1 0x40 MLOAD PUSH1 0x40 MLOAD DUP1 SWAP2 SUB SWAP1 LOG3 DUP1 PUSH1 0x0 DUP1 PUSH2 0x100 EXP DUP2 SLOAD DUP2 PUSH20 0xFFFFFFFFFFFFFFFFFFFFFFFFFFFFFFFFFFFFFFFF MUL NOT AND SWAP1 DUP4 PUSH20 0xFFFFFFFFFFFFFFFFFFFFFFFFFFFFFFFFFFFFFFFF AND MUL OR SWAP1 SSTORE POP POP JUMP JUMPDEST PUSH1 0x0 CALLER SWAP1 POP SWAP1 JUMP JUMPDEST DUP3 DUP1 SLOAD PUSH1 0x1 DUP2 PUSH1 0x1 AND ISZERO PUSH2 0x100 MUL SUB AND PUSH1 0x2 SWAP1 DIV SWAP1 PUSH1 0x0 MSTORE PUSH1 0x20 PUSH1 0x0 KECCAK256 SWAP1 PUSH1 0x1F ADD PUSH1 0x20 SWAP1 DIV DUP2 ADD SWAP3 DUP3 PUSH2 0x18FA JUMPI PUSH1 0x0 DUP6 SSTORE PUSH2 0x1941 JUMP JUMPDEST DUP3 PUSH1 0x1F LT PUSH2 0x1913 JUMPI DUP1 MLOAD PUSH1 0xFF NOT AND DUP4 DUP1 ADD OR DUP6 SSTORE PUSH2 0x1941 JUMP JUMPDEST DUP3 DUP1 ADD PUSH1 0x1 ADD DUP6 SSTORE DUP3 ISZERO PUSH2 0x1941 JUMPI SWAP2 DUP3 ADD JUMPDEST DUP3 DUP2 GT ISZERO PUSH2 0x1940 JUMPI DUP3 MLOAD DUP3 SSTORE SWAP2 PUSH1 0x20 ADD SWAP2 SWAP1 PUSH1 0x1 ADD SWAP1 PUSH2 0x1925 JUMP JUMPDEST JUMPDEST POP SWAP1 POP PUSH2 0x194E SWAP2 SWAP1 PUSH2 0x1A22 JUMP JUMPDEST POP SWAP1 JUMP JUMPDEST PUSH1 0x40 MLOAD DUP1 PUSH1 0xA0 ADD PUSH1 0x40 MSTORE DUP1 PUSH1 0x60 DUP2 MSTORE PUSH1 0x20 ADD PUSH1 0x60 DUP2 MSTORE PUSH1 0x20 ADD PUSH1 0x60 DUP2 MSTORE PUSH1 0x20 ADD PUSH1 0x0 DUP2 MSTORE PUSH1 0x20 ADD PUSH1 0x0 DUP2 MSTORE POP SWAP1 JUMP JUMPDEST PUSH1 0x40 MLOAD DUP1 PUSH1 0xC0 ADD PUSH1 0x40 MSTORE DUP1 PUSH1 0x60 DUP2 MSTORE PUSH1 0x20 ADD PUSH1 0x60 DUP2 MSTORE PUSH1 0x20 ADD PUSH1 0x0 DUP2 MSTORE PUSH1 0x20 ADD PUSH1 0x0 DUP2 MSTORE PUSH1 0x20 ADD PUSH1 0x0 PUSH20 0xFFFFFFFFFFFFFFFFFFFFFFFFFFFFFFFFFFFFFFFF AND DUP2 MSTORE PUSH1 0x20 ADD PUSH1 0x0 ISZERO ISZERO DUP2 MSTORE POP SWAP1 JUMP JUMPDEST PUSH1 0x40 MLOAD DUP1 PUSH1 0xE0 ADD PUSH1 0x40 MSTORE DUP1 PUSH1 0x60 DUP2 MSTORE PUSH1 0x20 ADD PUSH1 0x0 DUP2 MSTORE PUSH1 0x20 ADD PUSH1 0x0 DUP2 MSTORE PUSH1 0x20 ADD PUSH1 0x0 DUP2 MSTORE PUSH1 0x20 ADD PUSH1 0x0 DUP2 MSTORE PUSH1 0x20 ADD PUSH1 0x0 DUP2 MSTORE PUSH1 0x20 ADD PUSH1 0x0 PUSH20 0xFFFFFFFFFFFFFFFFFFFFFFFFFFFFFFFFFFFFFFFF AND DUP2 MSTORE POP SWAP1 JUMP JUMPDEST JUMPDEST DUP1 DUP3 GT ISZERO PUSH2 0x1A3B JUMPI PUSH1 0x0 DUP2 PUSH1 0x0 SWAP1 SSTORE POP PUSH1 0x1 ADD PUSH2 0x1A23 JUMP JUMPDEST POP SWAP1 JUMP JUMPDEST PUSH1 0x0 PUSH2 0x1A52 PUSH2 0x1A4D DUP5 PUSH2 0x23DD JUMP JUMPDEST PUSH2 0x23AC JUMP JUMPDEST SWAP1 POP DUP3 DUP2 MSTORE PUSH1 0x20 DUP2 ADD DUP5 DUP5 DUP5 ADD GT ISZERO PUSH2 0x1A6A JUMPI PUSH1 0x0 DUP1 REVERT JUMPDEST PUSH2 0x1A75 DUP5 DUP3 DUP6 PUSH2 0x2563 JUMP JUMPDEST POP SWAP4 SWAP3 POP POP POP JUMP JUMPDEST PUSH1 0x0 DUP2 CALLDATALOAD SWAP1 POP PUSH2 0x1A8C DUP2 PUSH2 0x25B8 JUMP JUMPDEST SWAP3 SWAP2 POP POP JUMP JUMPDEST PUSH1 0x0 DUP3 PUSH1 0x1F DUP4 ADD SLT PUSH2 0x1AA3 JUMPI PUSH1 0x0 DUP1 REVERT JUMPDEST DUP2 CALLDATALOAD PUSH2 0x1AB3 DUP5 DUP3 PUSH1 0x20 DUP7 ADD PUSH2 0x1A3F JUMP JUMPDEST SWAP2 POP POP SWAP3 SWAP2 POP POP JUMP JUMPDEST PUSH1 0x0 DUP2 CALLDATALOAD SWAP1 POP PUSH2 0x1ACB DUP2 PUSH2 0x25CF JUMP JUMPDEST SWAP3 SWAP2 POP POP JUMP JUMPDEST PUSH1 0x0 PUSH1 0x20 DUP3 DUP5 SUB SLT ISZERO PUSH2 0x1AE3 JUMPI PUSH1 0x0 DUP1 REVERT JUMPDEST PUSH1 0x0 PUSH2 0x1AF1 DUP5 DUP3 DUP6 ADD PUSH2 0x1A7D JUMP JUMPDEST SWAP2 POP POP SWAP3 SWAP2 POP POP JUMP JUMPDEST PUSH1 0x0 DUP1 PUSH1 0x0 DUP1 PUSH1 0x80 DUP6 DUP8 SUB SLT ISZERO PUSH2 0x1B10 JUMPI PUSH1 0x0 DUP1 REVERT JUMPDEST PUSH1 0x0 DUP6 ADD CALLDATALOAD PUSH8 0xFFFFFFFFFFFFFFFF DUP2 GT ISZERO PUSH2 0x1B2A JUMPI PUSH1 0x0 DUP1 REVERT JUMPDEST PUSH2 0x1B36 DUP8 DUP3 DUP9 ADD PUSH2 0x1A92 JUMP JUMPDEST SWAP5 POP POP PUSH1 0x20 DUP6 ADD CALLDATALOAD PUSH8 0xFFFFFFFFFFFFFFFF DUP2 GT ISZERO PUSH2 0x1B53 JUMPI PUSH1 0x0 DUP1 REVERT JUMPDEST PUSH2 0x1B5F DUP8 DUP3 DUP9 ADD PUSH2 0x1A92 JUMP JUMPDEST SWAP4 POP POP PUSH1 0x40 DUP6 ADD CALLDATALOAD PUSH8 0xFFFFFFFFFFFFFFFF DUP2 GT ISZERO PUSH2 0x1B7C JUMPI PUSH1 0x0 DUP1 REVERT JUMPDEST PUSH2 0x1B88 DUP8 DUP3 DUP9 ADD PUSH2 0x1A92 JUMP JUMPDEST SWAP3 POP POP PUSH1 0x60 PUSH2 0x1B99 DUP8 DUP3 DUP9 ADD PUSH2 0x1ABC JUMP JUMPDEST SWAP2 POP POP SWAP3 SWAP6 SWAP2 SWAP5 POP SWAP3 POP JUMP JUMPDEST PUSH1 0x0 DUP1 PUSH1 0x0 DUP1 PUSH1 0x80 DUP6 DUP8 SUB SLT ISZERO PUSH2 0x1BBB JUMPI PUSH1 0x0 DUP1 REVERT JUMPDEST PUSH1 0x0 DUP6 ADD CALLDATALOAD PUSH8 0xFFFFFFFFFFFFFFFF DUP2 GT ISZERO PUSH2 0x1BD5 JUMPI PUSH1 0x0 DUP1 REVERT JUMPDEST PUSH2 0x1BE1 DUP8 DUP3 DUP9 ADD PUSH2 0x1A92 JUMP JUMPDEST SWAP5 POP POP PUSH1 0x20 DUP6 ADD CALLDATALOAD PUSH8 0xFFFFFFFFFFFFFFFF DUP2 GT ISZERO PUSH2 0x1BFE JUMPI PUSH1 0x0 DUP1 REVERT JUMPDEST PUSH2 0x1C0A DUP8 DUP3 DUP9 ADD PUSH2 0x1A92 JUMP JUMPDEST SWAP4 POP POP PUSH1 0x40 PUSH2 0x1C1B DUP8 DUP3 DUP9 ADD PUSH2 0x1ABC JUMP JUMPDEST SWAP3 POP POP PUSH1 0x60 PUSH2 0x1C2C DUP8 DUP3 DUP9 ADD PUSH2 0x1ABC JUMP JUMPDEST SWAP2 POP POP SWAP3 SWAP6 SWAP2 SWAP5 POP SWAP3 POP JUMP JUMPDEST PUSH1 0x0 DUP1 PUSH1 0x0 DUP1 PUSH1 0x0 PUSH1 0xA0 DUP7 DUP9 SUB SLT ISZERO PUSH2 0x1C50 JUMPI PUSH1 0x0 DUP1 REVERT JUMPDEST PUSH1 0x0 DUP7 ADD CALLDATALOAD PUSH8 0xFFFFFFFFFFFFFFFF DUP2 GT ISZERO PUSH2 0x1C6A JUMPI PUSH1 0x0 DUP1 REVERT JUMPDEST PUSH2 0x1C76 DUP9 DUP3 DUP10 ADD PUSH2 0x1A92 JUMP JUMPDEST SWAP6 POP POP PUSH1 0x20 PUSH2 0x1C87 DUP9 DUP3 DUP10 ADD PUSH2 0x1ABC JUMP JUMPDEST SWAP5 POP POP PUSH1 0x40 PUSH2 0x1C98 DUP9 DUP3 DUP10 ADD PUSH2 0x1ABC JUMP JUMPDEST SWAP4 POP POP PUSH1 0x60 PUSH2 0x1CA9 DUP9 DUP3 DUP10 ADD PUSH2 0x1ABC JUMP JUMPDEST SWAP3 POP POP PUSH1 0x80 PUSH2 0x1CBA DUP9 DUP3 DUP10 ADD PUSH2 0x1ABC JUMP JUMPDEST SWAP2 POP POP SWAP3 SWAP6 POP SWAP3 SWAP6 SWAP1 SWAP4 POP JUMP JUMPDEST PUSH1 0x0 PUSH1 0x20 DUP3 DUP5 SUB SLT ISZERO PUSH2 0x1CD9 JUMPI PUSH1 0x0 DUP1 REVERT JUMPDEST PUSH1 0x0 PUSH2 0x1CE7 DUP5 DUP3 DUP6 ADD PUSH2 0x1ABC JUMP JUMPDEST SWAP2 POP POP SWAP3 SWAP2 POP POP JUMP JUMPDEST PUSH1 0x0 PUSH2 0x1CFC DUP4 DUP4 PUSH2 0x1F88 JUMP JUMPDEST SWAP1 POP SWAP3 SWAP2 POP POP JUMP JUMPDEST PUSH1 0x0 PUSH2 0x1D10 DUP4 DUP4 PUSH2 0x2024 JUMP JUMPDEST SWAP1 POP SWAP3 SWAP2 POP POP JUMP JUMPDEST PUSH1 0x0 PUSH2 0x1D24 DUP4 DUP4 PUSH2 0x20A8 JUMP JUMPDEST SWAP1 POP SWAP3 SWAP2 POP POP JUMP JUMPDEST PUSH2 0x1D35 DUP2 PUSH2 0x252D JUMP JUMPDEST DUP3 MSTORE POP POP JUMP JUMPDEST PUSH2 0x1D44 DUP2 PUSH2 0x24E5 JUMP JUMPDEST DUP3 MSTORE POP POP JUMP JUMPDEST PUSH2 0x1D53 DUP2 PUSH2 0x24E5 JUMP JUMPDEST DUP3 MSTORE POP POP JUMP JUMPDEST PUSH1 0x0 PUSH2 0x1D64 DUP3 PUSH2 0x243D JUMP JUMPDEST PUSH2 0x1D6E DUP2 DUP6 PUSH2 0x2490 JUMP JUMPDEST SWAP4 POP DUP4 PUSH1 0x20 DUP3 MUL DUP6 ADD PUSH2 0x1D80 DUP6 PUSH2 0x240D JUMP JUMPDEST DUP1 PUSH1 0x0 JUMPDEST DUP6 DUP2 LT ISZERO PUSH2 0x1DBC JUMPI DUP5 DUP5 SUB DUP10 MSTORE DUP2 MLOAD PUSH2 0x1D9D DUP6 DUP3 PUSH2 0x1CF0 JUMP JUMPDEST SWAP5 POP PUSH2 0x1DA8 DUP4 PUSH2 0x2469 JUMP JUMPDEST SWAP3 POP PUSH1 0x20 DUP11 ADD SWAP10 POP POP PUSH1 0x1 DUP2 ADD SWAP1 POP PUSH2 0x1D84 JUMP JUMPDEST POP DUP3 SWAP8 POP DUP8 SWAP6 POP POP POP POP POP POP SWAP3 SWAP2 POP POP JUMP JUMPDEST PUSH1 0x0 PUSH2 0x1DD9 DUP3 PUSH2 0x2448 JUMP JUMPDEST PUSH2 0x1DE3 DUP2 DUP6 PUSH2 0x24A1 JUMP JUMPDEST SWAP4 POP DUP4 PUSH1 0x20 DUP3 MUL DUP6 ADD PUSH2 0x1DF5 DUP6 PUSH2 0x241D JUMP JUMPDEST DUP1 PUSH1 0x0 JUMPDEST DUP6 DUP2 LT ISZERO PUSH2 0x1E31 JUMPI DUP5 DUP5 SUB DUP10 MSTORE DUP2 MLOAD PUSH2 0x1E12 DUP6 DUP3 PUSH2 0x1D04 JUMP JUMPDEST SWAP5 POP PUSH2 0x1E1D DUP4 PUSH2 0x2476 JUMP JUMPDEST SWAP3 POP PUSH1 0x20 DUP11 ADD SWAP10 POP POP PUSH1 0x1 DUP2 ADD SWAP1 POP PUSH2 0x1DF9 JUMP JUMPDEST POP DUP3 SWAP8 POP DUP8 SWAP6 POP POP POP POP POP POP SWAP3 SWAP2 POP POP JUMP JUMPDEST PUSH1 0x0 PUSH2 0x1E4E DUP3 PUSH2 0x2453 JUMP JUMPDEST PUSH2 0x1E58 DUP2 DUP6 PUSH2 0x24B2 JUMP JUMPDEST SWAP4 POP DUP4 PUSH1 0x20 DUP3 MUL DUP6 ADD PUSH2 0x1E6A DUP6 PUSH2 0x242D JUMP JUMPDEST DUP1 PUSH1 0x0 JUMPDEST DUP6 DUP2 LT ISZERO PUSH2 0x1EA6 JUMPI DUP5 DUP5 SUB DUP10 MSTORE DUP2 MLOAD PUSH2 0x1E87 DUP6 DUP3 PUSH2 0x1D18 JUMP JUMPDEST SWAP5 POP PUSH2 0x1E92 DUP4 PUSH2 0x2483 JUMP JUMPDEST SWAP3 POP PUSH1 0x20 DUP11 ADD SWAP10 POP POP PUSH1 0x1 DUP2 ADD SWAP1 POP PUSH2 0x1E6E JUMP JUMPDEST POP DUP3 SWAP8 POP DUP8 SWAP6 POP POP POP POP POP POP SWAP3 SWAP2 POP POP JUMP JUMPDEST PUSH2 0x1EC1 DUP2 PUSH2 0x24F7 JUMP JUMPDEST DUP3 MSTORE POP POP JUMP JUMPDEST PUSH2 0x1ED0 DUP2 PUSH2 0x24F7 JUMP JUMPDEST DUP3 MSTORE POP POP JUMP JUMPDEST PUSH1 0x0 PUSH2 0x1EE1 DUP3 PUSH2 0x245E JUMP JUMPDEST PUSH2 0x1EEB DUP2 DUP6 PUSH2 0x24C3 JUMP JUMPDEST SWAP4 POP PUSH2 0x1EFB DUP2 DUP6 PUSH1 0x20 DUP7 ADD PUSH2 0x2572 JUMP JUMPDEST PUSH2 0x1F04 DUP2 PUSH2 0x25A7 JUMP JUMPDEST DUP5 ADD SWAP2 POP POP SWAP3 SWAP2 POP POP JUMP JUMPDEST PUSH1 0x0 PUSH2 0x1F1A DUP3 PUSH2 0x245E JUMP JUMPDEST PUSH2 0x1F24 DUP2 DUP6 PUSH2 0x24D4 JUMP JUMPDEST SWAP4 POP PUSH2 0x1F34 DUP2 DUP6 PUSH1 0x20 DUP7 ADD PUSH2 0x2572 JUMP JUMPDEST PUSH2 0x1F3D DUP2 PUSH2 0x25A7 JUMP JUMPDEST DUP5 ADD SWAP2 POP POP SWAP3 SWAP2 POP POP JUMP JUMPDEST PUSH1 0x0 PUSH2 0x1F55 PUSH1 0x1C DUP4 PUSH2 0x24D4 JUMP JUMPDEST SWAP2 POP PUSH32 0x56616C696461746F7220616C7265616479207265676973746572656400000000 PUSH1 0x0 DUP4 ADD MSTORE PUSH1 0x20 DUP3 ADD SWAP1 POP SWAP2 SWAP1 POP JUMP JUMPDEST PUSH1 0x0 PUSH1 0xE0 DUP4 ADD PUSH1 0x0 DUP4 ADD MLOAD DUP5 DUP3 SUB PUSH1 0x0 DUP7 ADD MSTORE PUSH2 0x1FA5 DUP3 DUP3 PUSH2 0x1ED6 JUMP JUMPDEST SWAP2 POP POP PUSH1 0x20 DUP4 ADD MLOAD PUSH2 0x1FBA PUSH1 0x20 DUP7 ADD DUP3 PUSH2 0x2138 JUMP JUMPDEST POP PUSH1 0x40 DUP4 ADD MLOAD PUSH2 0x1FCD PUSH1 0x40 DUP7 ADD DUP3 PUSH2 0x2138 JUMP JUMPDEST POP PUSH1 0x60 DUP4 ADD MLOAD PUSH2 0x1FE0 PUSH1 0x60 DUP7 ADD DUP3 PUSH2 0x2138 JUMP JUMPDEST POP PUSH1 0x80 DUP4 ADD MLOAD PUSH2 0x1FF3 PUSH1 0x80 DUP7 ADD DUP3 PUSH2 0x2138 JUMP JUMPDEST POP PUSH1 0xA0 DUP4 ADD MLOAD PUSH2 0x2006 PUSH1 0xA0 DUP7 ADD DUP3 PUSH2 0x2138 JUMP JUMPDEST POP PUSH1 0xC0 DUP4 ADD MLOAD PUSH2 0x2019 PUSH1 0xC0 DUP7 ADD DUP3 PUSH2 0x1D3B JUMP JUMPDEST POP DUP1 SWAP2 POP POP SWAP3 SWAP2 POP POP JUMP JUMPDEST PUSH1 0x0 PUSH1 0xA0 DUP4 ADD PUSH1 0x0 DUP4 ADD MLOAD DUP5 DUP3 SUB PUSH1 0x0 DUP7 ADD MSTORE PUSH2 0x2041 DUP3 DUP3 PUSH2 0x1ED6 JUMP JUMPDEST SWAP2 POP POP PUSH1 0x20 DUP4 ADD MLOAD DUP5 DUP3 SUB PUSH1 0x20 DUP7 ADD MSTORE PUSH2 0x205B DUP3 DUP3 PUSH2 0x1ED6 JUMP JUMPDEST SWAP2 POP POP PUSH1 0x40 DUP4 ADD MLOAD DUP5 DUP3 SUB PUSH1 0x40 DUP7 ADD MSTORE PUSH2 0x2075 DUP3 DUP3 PUSH2 0x1ED6 JUMP JUMPDEST SWAP2 POP POP PUSH1 0x60 DUP4 ADD MLOAD PUSH2 0x208A PUSH1 0x60 DUP7 ADD DUP3 PUSH2 0x2138 JUMP JUMPDEST POP PUSH1 0x80 DUP4 ADD MLOAD PUSH2 0x209D PUSH1 0x80 DUP7 ADD DUP3 PUSH2 0x2138 JUMP JUMPDEST POP DUP1 SWAP2 POP POP SWAP3 SWAP2 POP POP JUMP JUMPDEST PUSH1 0x0 PUSH1 0xC0 DUP4 ADD PUSH1 0x0 DUP4 ADD MLOAD DUP5 DUP3 SUB PUSH1 0x0 DUP7 ADD MSTORE PUSH2 0x20C5 DUP3 DUP3 PUSH2 0x1ED6 JUMP JUMPDEST SWAP2 POP POP PUSH1 0x20 DUP4 ADD MLOAD DUP5 DUP3 SUB PUSH1 0x20 DUP7 ADD MSTORE PUSH2 0x20DF DUP3 DUP3 PUSH2 0x1ED6 JUMP JUMPDEST SWAP2 POP POP PUSH1 0x40 DUP4 ADD MLOAD PUSH2 0x20F4 PUSH1 0x40 DUP7 ADD DUP3 PUSH2 0x2138 JUMP JUMPDEST POP PUSH1 0x60 DUP4 ADD MLOAD PUSH2 0x2107 PUSH1 0x60 DUP7 ADD DUP3 PUSH2 0x2138 JUMP JUMPDEST POP PUSH1 0x80 DUP4 ADD MLOAD PUSH2 0x211A PUSH1 0x80 DUP7 ADD DUP3 PUSH2 0x1D3B JUMP JUMPDEST POP PUSH1 0xA0 DUP4 ADD MLOAD PUSH2 0x212D PUSH1 0xA0 DUP7 ADD DUP3 PUSH2 0x1EB8 JUMP JUMPDEST POP DUP1 SWAP2 POP POP SWAP3 SWAP2 POP POP JUMP JUMPDEST PUSH2 0x2141 DUP2 PUSH2 0x2523 JUMP JUMPDEST DUP3 MSTORE POP POP JUMP JUMPDEST PUSH2 0x2150 DUP2 PUSH2 0x2523 JUMP JUMPDEST DUP3 MSTORE POP POP JUMP JUMPDEST PUSH1 0x0 PUSH1 0x20 DUP3 ADD SWAP1 POP PUSH2 0x216B PUSH1 0x0 DUP4 ADD DUP5 PUSH2 0x1D4A JUMP JUMPDEST SWAP3 SWAP2 POP POP JUMP JUMPDEST PUSH1 0x0 PUSH1 0x20 DUP3 ADD SWAP1 POP DUP2 DUP2 SUB PUSH1 0x0 DUP4 ADD MSTORE PUSH2 0x218B DUP2 DUP5 PUSH2 0x1D59 JUMP JUMPDEST SWAP1 POP SWAP3 SWAP2 POP POP JUMP JUMPDEST PUSH1 0x0 PUSH1 0x20 DUP3 ADD SWAP1 POP DUP2 DUP2 SUB PUSH1 0x0 DUP4 ADD MSTORE PUSH2 0x21AD DUP2 DUP5 PUSH2 0x1DCE JUMP JUMPDEST SWAP1 POP SWAP3 SWAP2 POP POP JUMP JUMPDEST PUSH1 0x0 PUSH1 0x20 DUP3 ADD SWAP1 POP DUP2 DUP2 SUB PUSH1 0x0 DUP4 ADD MSTORE PUSH2 0x21CF DUP2 DUP5 PUSH2 0x1E43 JUMP JUMPDEST SWAP1 POP SWAP3 SWAP2 POP POP JUMP JUMPDEST PUSH1 0x0 PUSH1 0xA0 DUP3 ADD SWAP1 POP DUP2 DUP2 SUB PUSH1 0x0 DUP4 ADD MSTORE PUSH2 0x21F1 DUP2 DUP9 PUSH2 0x1F0F JUMP JUMPDEST SWAP1 POP DUP2 DUP2 SUB PUSH1 0x20 DUP4 ADD MSTORE PUSH2 0x2205 DUP2 DUP8 PUSH2 0x1F0F JUMP JUMPDEST SWAP1 POP DUP2 DUP2 SUB PUSH1 0x40 DUP4 ADD MSTORE PUSH2 0x2219 DUP2 DUP7 PUSH2 0x1F0F JUMP JUMPDEST SWAP1 POP PUSH2 0x2228 PUSH1 0x60 DUP4 ADD DUP6 PUSH2 0x2147 JUMP JUMPDEST PUSH2 0x2235 PUSH1 0x80 DUP4 ADD DUP5 PUSH2 0x2147 JUMP JUMPDEST SWAP7 SWAP6 POP POP POP POP POP POP JUMP JUMPDEST PUSH1 0x0 PUSH1 0xC0 DUP3 ADD SWAP1 POP DUP2 DUP2 SUB PUSH1 0x0 DUP4 ADD MSTORE PUSH2 0x2259 DUP2 DUP10 PUSH2 0x1F0F JUMP JUMPDEST SWAP1 POP DUP2 DUP2 SUB PUSH1 0x20 DUP4 ADD MSTORE PUSH2 0x226D DUP2 DUP9 PUSH2 0x1F0F JUMP JUMPDEST SWAP1 POP PUSH2 0x227C PUSH1 0x40 DUP4 ADD DUP8 PUSH2 0x2147 JUMP JUMPDEST PUSH2 0x2289 PUSH1 0x60 DUP4 ADD DUP7 PUSH2 0x2147 JUMP JUMPDEST PUSH2 0x2296 PUSH1 0x80 DUP4 ADD DUP6 PUSH2 0x1D4A JUMP JUMPDEST PUSH2 0x22A3 PUSH1 0xA0 DUP4 ADD DUP5 PUSH2 0x1EC7 JUMP JUMPDEST SWAP8 SWAP7 POP POP POP POP POP POP POP JUMP JUMPDEST PUSH1 0x0 PUSH1 0xC0 DUP3 ADD SWAP1 POP DUP2 DUP2 SUB PUSH1 0x0 DUP4 ADD MSTORE PUSH2 0x22C8 DUP2 DUP10 PUSH2 0x1F0F JUMP JUMPDEST SWAP1 POP PUSH2 0x22D7 PUSH1 0x20 DUP4 ADD DUP9 PUSH2 0x2147 JUMP JUMPDEST PUSH2 0x22E4 PUSH1 0x40 DUP4 ADD DUP8 PUSH2 0x2147 JUMP JUMPDEST PUSH2 0x22F1 PUSH1 0x60 DUP4 ADD DUP7 PUSH2 0x2147 JUMP JUMPDEST PUSH2 0x22FE PUSH1 0x80 DUP4 ADD DUP6 PUSH2 0x2147 JUMP JUMPDEST PUSH2 0x230B PUSH1 0xA0 DUP4 ADD DUP5 PUSH2 0x1D2C JUMP JUMPDEST SWAP8 SWAP7 POP POP POP POP POP POP POP JUMP JUMPDEST PUSH1 0x0 PUSH1 0xE0 DUP3 ADD SWAP1 POP DUP2 DUP2 SUB PUSH1 0x0 DUP4 ADD MSTORE PUSH2 0x2330 DUP2 DUP11 PUSH2 0x1F0F JUMP JUMPDEST SWAP1 POP PUSH2 0x233F PUSH1 0x20 DUP4 ADD DUP10 PUSH2 0x2147 JUMP JUMPDEST PUSH2 0x234C PUSH1 0x40 DUP4 ADD DUP9 PUSH2 0x2147 JUMP JUMPDEST PUSH2 0x2359 PUSH1 0x60 DUP4 ADD DUP8 PUSH2 0x2147 JUMP JUMPDEST PUSH2 0x2366 PUSH1 0x80 DUP4 ADD DUP7 PUSH2 0x2147 JUMP JUMPDEST PUSH2 0x2373 PUSH1 0xA0 DUP4 ADD DUP6 PUSH2 0x2147 JUMP JUMPDEST PUSH2 0x2380 PUSH1 0xC0 DUP4 ADD DUP5 PUSH2 0x1D4A JUMP JUMPDEST SWAP9 SWAP8 POP POP POP POP POP POP POP POP JUMP JUMPDEST PUSH1 0x0 PUSH1 0x20 DUP3 ADD SWAP1 POP DUP2 DUP2 SUB PUSH1 0x0 DUP4 ADD MSTORE PUSH2 0x23A5 DUP2 PUSH2 0x1F48 JUMP JUMPDEST SWAP1 POP SWAP2 SWAP1 POP JUMP JUMPDEST PUSH1 0x0 PUSH1 0x40 MLOAD SWAP1 POP DUP2 DUP2 ADD DUP2 DUP2 LT PUSH8 0xFFFFFFFFFFFFFFFF DUP3 GT OR ISZERO PUSH2 0x23D3 JUMPI PUSH2 0x23D2 PUSH2 0x25A5 JUMP JUMPDEST JUMPDEST DUP1 PUSH1 0x40 MSTORE POP SWAP2 SWAP1 POP JUMP JUMPDEST PUSH1 0x0 PUSH8 0xFFFFFFFFFFFFFFFF DUP3 GT ISZERO PUSH2 0x23F8 JUMPI PUSH2 0x23F7 PUSH2 0x25A5 JUMP JUMPDEST JUMPDEST PUSH1 0x1F NOT PUSH1 0x1F DUP4 ADD AND SWAP1 POP PUSH1 0x20 DUP2 ADD SWAP1 POP SWAP2 SWAP1 POP JUMP JUMPDEST PUSH1 0x0 DUP2 SWAP1 POP PUSH1 0x20 DUP3 ADD SWAP1 POP SWAP2 SWAP1 POP JUMP JUMPDEST PUSH1 0x0 DUP2 SWAP1 POP PUSH1 0x20 DUP3 ADD SWAP1 POP SWAP2 SWAP1 POP JUMP JUMPDEST PUSH1 0x0 DUP2 SWAP1 POP PUSH1 0x20 DUP3 ADD SWAP1 POP SWAP2 SWAP1 POP JUMP JUMPDEST PUSH1 0x0 DUP2 MLOAD SWAP1 POP SWAP2 SWAP1 POP JUMP JUMPDEST PUSH1 0x0 DUP2 MLOAD SWAP1 POP SWAP2 SWAP1 POP JUMP JUMPDEST PUSH1 0x0 DUP2 MLOAD SWAP1 POP SWAP2 SWAP1 POP JUMP JUMPDEST PUSH1 0x0 DUP2 MLOAD SWAP1 POP SWAP2 SWAP1 POP JUMP JUMPDEST PUSH1 0x0 PUSH1 0x20 DUP3 ADD SWAP1 POP SWAP2 SWAP1 POP JUMP JUMPDEST PUSH1 0x0 PUSH1 0x20 DUP3 ADD SWAP1 POP SWAP2 SWAP1 POP JUMP JUMPDEST PUSH1 0x0 PUSH1 0x20 DUP3 ADD SWAP1 POP SWAP2 SWAP1 POP JUMP JUMPDEST PUSH1 0x0 DUP3 DUP3 MSTORE PUSH1 0x20 DUP3 ADD SWAP1 POP SWAP3 SWAP2 POP POP JUMP JUMPDEST PUSH1 0x0 DUP3 DUP3 MSTORE PUSH1 0x20 DUP3 ADD SWAP1 POP SWAP3 SWAP2 POP POP JUMP JUMPDEST PUSH1 0x0 DUP3 DUP3 MSTORE PUSH1 0x20 DUP3 ADD SWAP1 POP SWAP3 SWAP2 POP POP JUMP JUMPDEST PUSH1 0x0 DUP3 DUP3 MSTORE PUSH1 0x20 DUP3 ADD SWAP1 POP SWAP3 SWAP2 POP POP JUMP JUMPDEST PUSH1 0x0 DUP3 DUP3 MSTORE PUSH1 0x20 DUP3 ADD SWAP1 POP SWAP3 SWAP2 POP POP JUMP JUMPDEST PUSH1 0x0 PUSH2 0x24F0 DUP3 PUSH2 0x2503 JUMP JUMPDEST SWAP1 POP SWAP2 SWAP1 POP JUMP JUMPDEST PUSH1 0x0 DUP2 ISZERO ISZERO SWAP1 POP SWAP2 SWAP1 POP JUMP JUMPDEST PUSH1 0x0 PUSH20 0xFFFFFFFFFFFFFFFFFFFFFFFFFFFFFFFFFFFFFFFF DUP3 AND SWAP1 POP SWAP2 SWAP1 POP JUMP JUMPDEST PUSH1 0x0 DUP2 SWAP1 POP SWAP2 SWAP1 POP JUMP JUMPDEST PUSH1 0x0 PUSH2 0x2538 DUP3 PUSH2 0x253F JUMP JUMPDEST SWAP1 POP SWAP2 SWAP1 POP JUMP JUMPDEST PUSH1 0x0 PUSH2 0x254A DUP3 PUSH2 0x2551 JUMP JUMPDEST SWAP1 POP SWAP2 SWAP1 POP JUMP JUMPDEST PUSH1 0x0 PUSH2 0x255C DUP3 PUSH2 0x2503 JUMP JUMPDEST SWAP1 POP SWAP2 SWAP1 POP JUMP JUMPDEST DUP3 DUP2 DUP4 CALLDATACOPY PUSH1 0x0 DUP4 DUP4 ADD MSTORE POP POP POP JUMP JUMPDEST PUSH1 0x0 JUMPDEST DUP4 DUP2 LT ISZERO PUSH2 0x2590 JUMPI DUP1 DUP3 ADD MLOAD DUP2 DUP5 ADD MSTORE PUSH1 0x20 DUP2 ADD SWAP1 POP PUSH2 0x2575 JUMP JUMPDEST DUP4 DUP2 GT ISZERO PUSH2 0x259F JUMPI PUSH1 0x0 DUP5 DUP5 ADD MSTORE JUMPDEST POP POP POP POP JUMP JUMPDEST INVALID JUMPDEST PUSH1 0x0 PUSH1 0x1F NOT PUSH1 0x1F DUP4 ADD AND SWAP1 POP SWAP2 SWAP1 POP JUMP JUMPDEST PUSH2 0x25C1 DUP2 PUSH2 0x24E5 JUMP JUMPDEST DUP2 EQ PUSH2 0x25CC JUMPI PUSH1 0x0 DUP1 REVERT JUMPDEST POP JUMP JUMPDEST PUSH2 0x25D8 DUP2 PUSH2 0x2523 JUMP JUMPDEST DUP2 EQ PUSH2 0x25E3 JUMPI PUSH1 0x0 DUP1 REVERT JUMPDEST POP JUMP INVALID 0x4F PUSH24 0x6E61626C653A206E6577206F776E65722069732074686520 PUSH27 0x65726F2061646472657373A2646970667358221220B6A1FBA3DA2A 0xCB 0xCB 0xAD 0xDB CREATE2 PUSH5 0x468F09711C SHR LOG4 DUP11 0xD DUP10 PUSH8 0x17C339356C8EDA91 0xCD PUSH5 0x736F6C6343 STOP SMOD MOD STOP CALLER "
				},
				"gasEstimates": {
					"creation": {
						"codeDepositCost": "1958800",
						"executionCost": "infinite",
						"totalCost": "infinite"
					},
					"external": {
						"CreditHolders(uint256)": "infinite",
						"customers(uint256)": "infinite",
						"getAllCustomers()": "infinite",
						"getCreditHolders()": "infinite",
						"getCustomerProfile(address)": "infinite",
						"getVerifiers()": "infinite",
						"owner()": "1245",
						"registerCreditHolder(string,uint256,uint256,uint256,uint256)": "infinite",
						"registerCustomer(string,string,string,uint256)": "infinite",
						"registerVerifiers(string,string,uint256,uint256)": "infinite",
						"renounceOwnership()": "24374",
						"transferOwnership(address)": "infinite",
						"verifiers(uint256)": "infinite"
					}
				},
				"methodIdentifiers": {
					"CreditHolders(uint256)": "75348d8e",
					"customers(uint256)": "c0abda2a",
					"getAllCustomers()": "7da67ba8",
					"getCreditHolders()": "b2df7349",
					"getCustomerProfile(address)": "4ea1352b",
					"getVerifiers()": "a935e766",
					"owner()": "8da5cb5b",
					"registerCreditHolder(string,uint256,uint256,uint256,uint256)": "3a39af26",
					"registerCustomer(string,string,string,uint256)": "7d81c437",
					"registerVerifiers(string,string,uint256,uint256)": "95246e7f",
					"renounceOwnership()": "715018a6",
					"transferOwnership(address)": "f2fde38b",
					"verifiers(uint256)": "ac1eff68"
				}
			},
			"storageLayout": {
				"storage": [
					{
						"astId": 364,
						"contract": "contracts/carboncredits.sol:CarbonCredits",
						"label": "_owner",
						"offset": 0,
						"slot": "0",
						"type": "t_address"
					},
					{
						"astId": 8,
						"contract": "contracts/carboncredits.sol:CarbonCredits",
						"label": "totalRegistered",
						"offset": 0,
						"slot": "1",
						"type": "t_uint256"
					},
					{
						"astId": 11,
						"contract": "contracts/carboncredits.sol:CarbonCredits",
						"label": "verifiercount",
						"offset": 0,
						"slot": "2",
						"type": "t_uint256"
					},
					{
						"astId": 14,
						"contract": "contracts/carboncredits.sol:CarbonCredits",
						"label": "customercount",
						"offset": 0,
						"slot": "3",
						"type": "t_uint256"
					},
					{
						"astId": 57,
						"contract": "contracts/carboncredits.sol:CarbonCredits",
						"label": "CreditHolders",
						"offset": 0,
						"slot": "4",
						"type": "t_mapping(t_uint256,t_struct(CarbonCreditHolder)29_storage)"
					},
					{
						"astId": 61,
						"contract": "contracts/carboncredits.sol:CarbonCredits",
						"label": "verifiers",
						"offset": 0,
						"slot": "5",
						"type": "t_mapping(t_uint256,t_struct(verifier)42_storage)"
					},
					{
						"astId": 65,
						"contract": "contracts/carboncredits.sol:CarbonCredits",
						"label": "customers",
						"offset": 0,
						"slot": "6",
						"type": "t_mapping(t_uint256,t_struct(customer)53_storage)"
					}
				],
				"types": {
					"t_address": {
						"encoding": "inplace",
						"label": "address",
						"numberOfBytes": "20"
					},
					"t_bool": {
						"encoding": "inplace",
						"label": "bool",
						"numberOfBytes": "1"
					},
					"t_mapping(t_uint256,t_struct(CarbonCreditHolder)29_storage)": {
						"encoding": "mapping",
						"key": "t_uint256",
						"label": "mapping(uint256 => struct CarbonCredits.CarbonCreditHolder)",
						"numberOfBytes": "32",
						"value": "t_struct(CarbonCreditHolder)29_storage"
					},
					"t_mapping(t_uint256,t_struct(customer)53_storage)": {
						"encoding": "mapping",
						"key": "t_uint256",
						"label": "mapping(uint256 => struct CarbonCredits.customer)",
						"numberOfBytes": "32",
						"value": "t_struct(customer)53_storage"
					},
					"t_mapping(t_uint256,t_struct(verifier)42_storage)": {
						"encoding": "mapping",
						"key": "t_uint256",
						"label": "mapping(uint256 => struct CarbonCredits.verifier)",
						"numberOfBytes": "32",
						"value": "t_struct(verifier)42_storage"
					},
					"t_string_storage": {
						"encoding": "bytes",
						"label": "string",
						"numberOfBytes": "32"
					},
					"t_struct(CarbonCreditHolder)29_storage": {
						"encoding": "inplace",
						"label": "struct CarbonCredits.CarbonCreditHolder",
						"members": [
							{
								"astId": 16,
								"contract": "contracts/carboncredits.sol:CarbonCredits",
								"label": "name",
								"offset": 0,
								"slot": "0",
								"type": "t_string_storage"
							},
							{
								"astId": 18,
								"contract": "contracts/carboncredits.sol:CarbonCredits",
								"label": "id",
								"offset": 0,
								"slot": "1",
								"type": "t_uint256"
							},
							{
								"astId": 20,
								"contract": "contracts/carboncredits.sol:CarbonCredits",
								"label": "holderId",
								"offset": 0,
								"slot": "2",
								"type": "t_uint256"
							},
							{
								"astId": 22,
								"contract": "contracts/carboncredits.sol:CarbonCredits",
								"label": "creditsHeld",
								"offset": 0,
								"slot": "3",
								"type": "t_uint256"
							},
							{
								"astId": 24,
								"contract": "contracts/carboncredits.sol:CarbonCredits",
								"label": "pricepercredit",
								"offset": 0,
								"slot": "4",
								"type": "t_uint256"
							},
							{
								"astId": 26,
								"contract": "contracts/carboncredits.sol:CarbonCredits",
								"label": "creditvalidityperiod",
								"offset": 0,
								"slot": "5",
								"type": "t_uint256"
							},
							{
								"astId": 28,
								"contract": "contracts/carboncredits.sol:CarbonCredits",
								"label": "_addr",
								"offset": 0,
								"slot": "6",
								"type": "t_address"
							}
						],
						"numberOfBytes": "224"
					},
					"t_struct(customer)53_storage": {
						"encoding": "inplace",
						"label": "struct CarbonCredits.customer",
						"members": [
							{
								"astId": 44,
								"contract": "contracts/carboncredits.sol:CarbonCredits",
								"label": "first_name",
								"offset": 0,
								"slot": "0",
								"type": "t_string_storage"
							},
							{
								"astId": 46,
								"contract": "contracts/carboncredits.sol:CarbonCredits",
								"label": "last_name",
								"offset": 0,
								"slot": "1",
								"type": "t_string_storage"
							},
							{
								"astId": 48,
								"contract": "contracts/carboncredits.sol:CarbonCredits",
								"label": "email",
								"offset": 0,
								"slot": "2",
								"type": "t_string_storage"
							},
							{
								"astId": 50,
								"contract": "contracts/carboncredits.sol:CarbonCredits",
								"label": "contact",
								"offset": 0,
								"slot": "3",
								"type": "t_uint256"
							},
							{
								"astId": 52,
								"contract": "contracts/carboncredits.sol:CarbonCredits",
								"label": "_id",
								"offset": 0,
								"slot": "4",
								"type": "t_uint256"
							}
						],
						"numberOfBytes": "160"
					},
					"t_struct(verifier)42_storage": {
						"encoding": "inplace",
						"label": "struct CarbonCredits.verifier",
						"members": [
							{
								"astId": 31,
								"contract": "contracts/carboncredits.sol:CarbonCredits",
								"label": "name",
								"offset": 0,
								"slot": "0",
								"type": "t_string_storage"
							},
							{
								"astId": 33,
								"contract": "contracts/carboncredits.sol:CarbonCredits",
								"label": "homeCountry",
								"offset": 0,
								"slot": "1",
								"type": "t_string_storage"
							},
							{
								"astId": 35,
								"contract": "contracts/carboncredits.sol:CarbonCredits",
								"label": "reg_no",
								"offset": 0,
								"slot": "2",
								"type": "t_uint256"
							},
							{
								"astId": 37,
								"contract": "contracts/carboncredits.sol:CarbonCredits",
								"label": "license_no",
								"offset": 0,
								"slot": "3",
								"type": "t_uint256"
							},
							{
								"astId": 39,
								"contract": "contracts/carboncredits.sol:CarbonCredits",
								"label": "addr",
								"offset": 0,
								"slot": "4",
								"type": "t_address"
							},
							{
								"astId": 41,
								"contract": "contracts/carboncredits.sol:CarbonCredits",
								"label": "isExist",
								"offset": 20,
								"slot": "4",
								"type": "t_bool"
							}
						],
						"numberOfBytes": "160"
					},
					"t_uint256": {
						"encoding": "inplace",
						"label": "uint256",
						"numberOfBytes": "32"
					}
				}
			},
			"userdoc": {
				"kind": "user",
				"methods": {},
				"version": 1
			}
		}
	}
}